{
  "abi": [
    {
      "inputs": [],
      "stateMutability": "nonpayable",
      "type": "constructor"
    },
    {
      "inputs": [
        {
          "internalType": "address",
          "name": "owner",
          "type": "address"
        }
      ],
      "name": "OwnableInvalidOwner",
      "type": "error"
    },
    {
      "inputs": [
        {
          "internalType": "address",
          "name": "account",
          "type": "address"
        }
      ],
      "name": "OwnableUnauthorizedAccount",
      "type": "error"
    },
    {
      "inputs": [],
      "name": "ReentrancyGuardReentrantCall",
      "type": "error"
    },
    {
      "inputs": [
        {
          "internalType": "address",
          "name": "token",
          "type": "address"
        }
      ],
      "name": "SafeERC20FailedOperation",
      "type": "error"
    },
    {
      "anonymous": false,
      "inputs": [
        {
          "indexed": true,
          "internalType": "address",
          "name": "previousOwner",
          "type": "address"
        },
        {
          "indexed": true,
          "internalType": "address",
          "name": "newOwner",
          "type": "address"
        }
      ],
      "name": "OwnershipTransferred",
      "type": "event"
    },
    {
      "anonymous": false,
      "inputs": [
        {
          "indexed": true,
          "internalType": "address",
          "name": "user",
          "type": "address"
        },
        {
          "indexed": false,
          "internalType": "uint256",
          "name": "remainingRewards",
          "type": "uint256"
        }
      ],
      "name": "PoolEmpty",
      "type": "event"
    },
    {
      "anonymous": false,
      "inputs": [
        {
          "indexed": false,
          "internalType": "uint256",
          "name": "tokenId",
          "type": "uint256"
        },
        {
          "indexed": false,
          "internalType": "uint256",
          "name": "rate",
          "type": "uint256"
        }
      ],
      "name": "RewardRateUpdated",
      "type": "event"
    },
    {
      "anonymous": false,
      "inputs": [
        {
          "indexed": true,
          "internalType": "address",
          "name": "user",
          "type": "address"
        },
        {
          "indexed": false,
          "internalType": "uint256",
          "name": "amount",
          "type": "uint256"
        }
      ],
      "name": "RewardsClaimed",
      "type": "event"
    },
    {
      "anonymous": false,
      "inputs": [
        {
          "indexed": true,
          "internalType": "address",
          "name": "user",
          "type": "address"
        },
        {
          "indexed": false,
          "internalType": "uint256",
          "name": "tokenId",
          "type": "uint256"
        },
        {
          "indexed": false,
          "internalType": "uint256",
          "name": "amount",
          "type": "uint256"
        }
      ],
      "name": "Staked",
      "type": "event"
    },
    {
      "anonymous": false,
      "inputs": [
        {
          "indexed": true,
          "internalType": "address",
          "name": "user",
          "type": "address"
        },
        {
          "indexed": false,
          "internalType": "uint256",
          "name": "tokenId",
          "type": "uint256"
        },
        {
          "indexed": false,
          "internalType": "uint256",
          "name": "amount",
          "type": "uint256"
        }
      ],
      "name": "Withdrawn",
      "type": "event"
    },
    {
      "inputs": [],
      "name": "BOX_COLLECTION_ADDRESS",
      "outputs": [
        {
          "internalType": "address",
          "name": "",
          "type": "address"
        }
      ],
      "stateMutability": "view",
      "type": "function"
    },
    {
      "inputs": [],
      "name": "NZNA_TOKEN_ADDRESS",
      "outputs": [
        {
          "internalType": "address",
          "name": "",
          "type": "address"
        }
      ],
      "stateMutability": "view",
      "type": "function"
    },
    {
      "inputs": [
        {
          "internalType": "uint256",
          "name": "_amount",
          "type": "uint256"
        }
      ],
      "name": "adminWithdrawTokens",
      "outputs": [],
      "stateMutability": "nonpayable",
      "type": "function"
    },
    {
      "inputs": [
        {
          "internalType": "address",
          "name": "_staker",
          "type": "address"
        }
      ],
      "name": "availableRewards",
      "outputs": [
        {
          "internalType": "uint256",
          "name": "",
          "type": "uint256"
        }
      ],
      "stateMutability": "view",
      "type": "function"
    },
    {
      "inputs": [],
      "name": "boxCollection",
      "outputs": [
        {
          "internalType": "contract IERC1155",
          "name": "",
          "type": "address"
        }
      ],
      "stateMutability": "view",
      "type": "function"
    },
    {
      "inputs": [
        {
          "internalType": "address",
          "name": "_staker",
          "type": "address"
        }
      ],
      "name": "calculateRewards",
      "outputs": [
        {
          "internalType": "uint256",
          "name": "",
          "type": "uint256"
        }
      ],
      "stateMutability": "view",
      "type": "function"
    },
    {
      "inputs": [],
      "name": "claimRewards",
      "outputs": [],
      "stateMutability": "nonpayable",
      "type": "function"
    },
    {
      "inputs": [
        {
          "internalType": "address",
          "name": "_user",
          "type": "address"
        }
      ],
      "name": "getRewardRate",
      "outputs": [
        {
          "internalType": "uint256",
          "name": "",
          "type": "uint256"
        }
      ],
      "stateMutability": "view",
      "type": "function"
    },
    {
      "inputs": [
        {
          "internalType": "address",
          "name": "_user",
          "type": "address"
        }
      ],
      "name": "getStakedTokens",
      "outputs": [
        {
          "components": [
            {
              "internalType": "uint256",
              "name": "tokenId",
              "type": "uint256"
            },
            {
              "internalType": "uint256",
              "name": "amount",
              "type": "uint256"
            }
          ],
          "internalType": "struct StakingBoxes.StakedToken[]",
          "name": "",
          "type": "tuple[]"
        }
      ],
      "stateMutability": "view",
      "type": "function"
    },
    {
      "inputs": [],
      "name": "maxRewardSupply",
      "outputs": [
        {
          "internalType": "uint256",
          "name": "",
          "type": "uint256"
        }
      ],
      "stateMutability": "view",
      "type": "function"
    },
    {
      "inputs": [],
      "name": "nznaToken",
      "outputs": [
        {
          "internalType": "contract IERC20",
          "name": "",
          "type": "address"
        }
      ],
      "stateMutability": "view",
      "type": "function"
    },
    {
      "inputs": [
        {
          "internalType": "address",
          "name": "",
          "type": "address"
        },
        {
          "internalType": "address",
          "name": "",
          "type": "address"
        },
        {
          "internalType": "uint256[]",
          "name": "",
          "type": "uint256[]"
        },
        {
          "internalType": "uint256[]",
          "name": "",
          "type": "uint256[]"
        },
        {
          "internalType": "bytes",
          "name": "",
          "type": "bytes"
        }
      ],
      "name": "onERC1155BatchReceived",
      "outputs": [
        {
          "internalType": "bytes4",
          "name": "",
          "type": "bytes4"
        }
      ],
      "stateMutability": "nonpayable",
      "type": "function"
    },
    {
      "inputs": [
        {
          "internalType": "address",
          "name": "",
          "type": "address"
        },
        {
          "internalType": "address",
          "name": "",
          "type": "address"
        },
        {
          "internalType": "uint256",
          "name": "",
          "type": "uint256"
        },
        {
          "internalType": "uint256",
          "name": "",
          "type": "uint256"
        },
        {
          "internalType": "bytes",
          "name": "",
          "type": "bytes"
        }
      ],
      "name": "onERC1155Received",
      "outputs": [
        {
          "internalType": "bytes4",
          "name": "",
          "type": "bytes4"
        }
      ],
      "stateMutability": "nonpayable",
      "type": "function"
    },
    {
      "inputs": [],
      "name": "owner",
      "outputs": [
        {
          "internalType": "address",
          "name": "",
          "type": "address"
        }
      ],
      "stateMutability": "view",
      "type": "function"
    },
    {
      "inputs": [],
      "name": "renounceOwnership",
      "outputs": [],
      "stateMutability": "nonpayable",
      "type": "function"
    },
    {
      "inputs": [
        {
          "internalType": "uint256",
          "name": "",
          "type": "uint256"
        }
      ],
      "name": "rewardPerHourPerTokenId",
      "outputs": [
        {
          "internalType": "uint256",
          "name": "",
          "type": "uint256"
        }
      ],
      "stateMutability": "view",
      "type": "function"
    },
    {
      "inputs": [
        {
          "internalType": "uint256",
          "name": "_newMax",
          "type": "uint256"
        }
      ],
      "name": "setMaxRewardSupply",
      "outputs": [],
      "stateMutability": "nonpayable",
      "type": "function"
    },
    {
      "inputs": [
        {
          "internalType": "uint256",
          "name": "_tokenId",
          "type": "uint256"
        },
        {
          "internalType": "uint256",
          "name": "_rate",
          "type": "uint256"
        }
      ],
      "name": "setRewardRate",
      "outputs": [],
      "stateMutability": "nonpayable",
      "type": "function"
    },
    {
      "inputs": [
        {
          "internalType": "uint256",
          "name": "_tokenId",
          "type": "uint256"
        },
        {
          "internalType": "uint256",
          "name": "_amount",
          "type": "uint256"
        }
      ],
      "name": "stake",
      "outputs": [],
      "stateMutability": "nonpayable",
      "type": "function"
    },
    {
      "inputs": [
        {
          "internalType": "address",
          "name": "",
          "type": "address"
        }
      ],
      "name": "stakers",
      "outputs": [
        {
          "internalType": "uint256",
          "name": "amountStaked",
          "type": "uint256"
        },
        {
          "internalType": "uint256",
          "name": "timeOfLastUpdate",
          "type": "uint256"
        },
        {
          "internalType": "uint256",
          "name": "unclaimedRewards",
          "type": "uint256"
        }
      ],
      "stateMutability": "view",
      "type": "function"
    },
    {
      "inputs": [
        {
          "internalType": "bytes4",
          "name": "interfaceId",
          "type": "bytes4"
        }
      ],
      "name": "supportsInterface",
      "outputs": [
        {
          "internalType": "bool",
          "name": "",
          "type": "bool"
        }
      ],
      "stateMutability": "view",
      "type": "function"
    },
    {
      "inputs": [],
      "name": "totalRewardsDistributed",
      "outputs": [
        {
          "internalType": "uint256",
          "name": "",
          "type": "uint256"
        }
      ],
      "stateMutability": "view",
      "type": "function"
    },
    {
      "inputs": [
        {
          "internalType": "address",
          "name": "newOwner",
          "type": "address"
        }
      ],
      "name": "transferOwnership",
      "outputs": [],
      "stateMutability": "nonpayable",
      "type": "function"
    },
    {
      "inputs": [
        {
          "internalType": "uint256",
          "name": "_tokenId",
          "type": "uint256"
        },
        {
          "internalType": "uint256",
          "name": "_amount",
          "type": "uint256"
        }
      ],
      "name": "withdraw",
      "outputs": [],
      "stateMutability": "nonpayable",
      "type": "function"
    }
  ],
  "devdoc": {
    "errors": {
      "OwnableInvalidOwner(address)": [
        {
          "details": "The owner is not a valid owner account. (eg. `address(0)`)"
        }
      ],
      "OwnableUnauthorizedAccount(address)": [
        {
          "details": "The caller account is not authorized to perform an operation."
        }
      ],
      "ReentrancyGuardReentrantCall()": [
        {
          "details": "Unauthorized reentrant call."
        }
      ],
      "SafeERC20FailedOperation(address)": [
        {
          "details": "An operation with an ERC-20 token failed."
        }
      ]
    },
    "kind": "dev",
    "methods": {
      "owner()": {
        "details": "Returns the address of the current owner."
      },
      "renounceOwnership()": {
        "details": "Leaves the contract without owner. It will not be possible to call `onlyOwner` functions. Can only be called by the current owner. NOTE: Renouncing ownership will leave the contract without an owner, thereby disabling any functionality that is only available to the owner."
      },
      "supportsInterface(bytes4)": {
        "details": "Returns true if this contract implements the interface defined by `interfaceId`. See the corresponding https://eips.ethereum.org/EIPS/eip-165#how-interfaces-are-identified[ERC section] to learn more about how these ids are created. This function call must use less than 30 000 gas."
      },
      "transferOwnership(address)": {
        "details": "Transfers ownership of the contract to a new account (`newOwner`). Can only be called by the current owner."
      }
    },
    "version": 1
  },
  "evm": {
    "assembly": "    /* \"StakingBoxes.sol\":438:9064  contract StakingBoxes is ReentrancyGuard, ERC1155Holder, Ownable {... */\n  mstore(0x40, 0xc0)\n    /* \"StakingBoxes.sol\":1126:1139  150000 * 1e18 */\n  0x1fc3842bd1f071c00000\n    /* \"StakingBoxes.sol\":1093:1139  uint256 public maxRewardSupply = 150000 * 1e18 */\n  0x03\n  sstore\n    /* \"StakingBoxes.sol\":1929:2079  constructor() Ownable(msg.sender) {... */\n  callvalue\n  dup1\n  iszero\n  tag_1\n  jumpi\n  0x00\n  dup1\n  revert\ntag_1:\n  pop\n    /* \"@openzeppelin/contracts/utils/ReentrancyGuard.sol\":1857:1858   */\n  0x01\n    /* \"@openzeppelin/contracts/utils/ReentrancyGuard.sol\":2061:2068   */\n  0x00\n    /* \"@openzeppelin/contracts/utils/ReentrancyGuard.sol\":2061:2082   */\n  sstore\n    /* \"StakingBoxes.sol\":1951:1961  msg.sender */\n  caller\n  dup1\n    /* \"@openzeppelin/contracts/access/Ownable.sol\":1269:1364   */\n  tag_7\n  jumpi\n    /* \"@openzeppelin/contracts/access/Ownable.sol\":1322:1353   */\n  mload(0x40)\n  shl(0xe0, 0x1e4fbdf7)\n  dup2\n  mstore\n    /* \"@openzeppelin/contracts/access/Ownable.sol\":1350:1351   */\n  0x00\n    /* \"@openzeppelin/contracts/access/Ownable.sol\":1322:1353   */\n  0x04\n  dup3\n  add\n    /* \"#utility.yul\":160:211   */\n  mstore\n    /* \"#utility.yul\":133:151   */\n  0x24\n  add\n    /* \"@openzeppelin/contracts/access/Ownable.sol\":1322:1353   */\n  mload(0x40)\n  dup1\n  swap2\n  sub\n  swap1\n  revert\n    /* \"@openzeppelin/contracts/access/Ownable.sol\":1269:1364   */\ntag_7:\n    /* \"@openzeppelin/contracts/access/Ownable.sol\":1373:1405   */\n  tag_10\n    /* \"@openzeppelin/contracts/access/Ownable.sol\":1392:1404   */\n  dup2\n    /* \"@openzeppelin/contracts/access/Ownable.sol\":1373:1391   */\n  tag_11\n    /* \"@openzeppelin/contracts/access/Ownable.sol\":1373:1405   */\n  jump\t// in\ntag_10:\n  pop\n    /* \"StakingBoxes.sol\":1784:1826  0x2D355478971d42fbDdf879377216e18b2AD87559 */\n  0x2d355478971d42fbddf879377216e18b2ad87559\n    /* \"StakingBoxes.sol\":1974:2022  boxCollection = IERC1155(BOX_COLLECTION_ADDRESS) */\n  0xa0\n  mstore\n    /* \"StakingBoxes.sol\":1878:1920  0xa051D30E4210782F6Ad78be009701B6003adb23e */\n  0xa051d30e4210782f6ad78be009701b6003adb23e\n    /* \"StakingBoxes.sol\":2033:2071  nznaToken = IERC20(NZNA_TOKEN_ADDRESS) */\n  0x80\n  mstore\n    /* \"StakingBoxes.sol\":438:9064  contract StakingBoxes is ReentrancyGuard, ERC1155Holder, Ownable {... */\n  jump(tag_15)\n    /* \"@openzeppelin/contracts/access/Ownable.sol\":2912:3099   */\ntag_11:\n    /* \"@openzeppelin/contracts/access/Ownable.sol\":3004:3010   */\n  0x01\n  dup1\n  sload\n  sub(shl(0xa0, 0x01), 0x01)\n    /* \"@openzeppelin/contracts/access/Ownable.sol\":3020:3037   */\n  dup4\n  dup2\n  and\n  not(sub(shl(0xa0, 0x01), 0x01))\n  dup4\n  and\n  dup2\n  or\n  swap1\n  swap4\n  sstore\n    /* \"@openzeppelin/contracts/access/Ownable.sol\":3052:3092   */\n  mload(0x40)\n    /* \"@openzeppelin/contracts/access/Ownable.sol\":3004:3010   */\n  swap2\n  and\n  swap2\n    /* \"@openzeppelin/contracts/access/Ownable.sol\":3020:3037   */\n  swap1\n    /* \"@openzeppelin/contracts/access/Ownable.sol\":3004:3010   */\n  dup3\n  swap1\n    /* \"@openzeppelin/contracts/access/Ownable.sol\":3052:3092   */\n  0x8be0079c531659141344cd1fd0a4f28419497f9722a3daafe3b4186f6b6457e0\n  swap1\n    /* \"@openzeppelin/contracts/access/Ownable.sol\":2985:3001   */\n  0x00\n  swap1\n    /* \"@openzeppelin/contracts/access/Ownable.sol\":3052:3092   */\n  log3\n    /* \"@openzeppelin/contracts/access/Ownable.sol\":2975:3099   */\n  pop\n    /* \"@openzeppelin/contracts/access/Ownable.sol\":2912:3099   */\n  pop\n  jump\t// out\n    /* \"#utility.yul\":14:217   */\ntag_15:\n    /* \"StakingBoxes.sol\":438:9064  contract StakingBoxes is ReentrancyGuard, ERC1155Holder, Ownable {... */\n  mload(0x80)\n  mload(0xa0)\n  codecopy(0x00, dataOffset(sub_0), dataSize(sub_0))\n  0x00\n  assignImmutable(\"0x1572b593c53d839d80004aa4b8c51211864104f06ace9e22be9c4365b50655ea\")\n  0x00\n  assignImmutable(\"0x731dc163f73d31d8c68f9917ce4ff967753939f70432973c04fd2c2a48148607\")\n  return(0x00, dataSize(sub_0))\nstop\n\nsub_0: assembly {\n        /* \"StakingBoxes.sol\":438:9064  contract StakingBoxes is ReentrancyGuard, ERC1155Holder, Ownable {... */\n      mstore(0x40, 0x80)\n      callvalue\n      dup1\n      iszero\n      tag_1\n      jumpi\n      0x00\n      dup1\n      revert\n    tag_1:\n      pop\n      jumpi(tag_2, lt(calldatasize, 0x04))\n      shr(0xe0, calldataload(0x00))\n      dup1\n      0x7b0472f0\n      gt\n      tag_27\n      jumpi\n      dup1\n      0xe56ce480\n      gt\n      tag_28\n      jumpi\n      dup1\n      0xf23a6e61\n      gt\n      tag_29\n      jumpi\n      dup1\n      0xf23a6e61\n      eq\n      tag_24\n      jumpi\n      dup1\n      0xf2fde38b\n      eq\n      tag_25\n      jumpi\n      dup1\n      0xf854a27f\n      eq\n      tag_26\n      jumpi\n      0x00\n      dup1\n      revert\n    tag_29:\n      dup1\n      0xe56ce480\n      eq\n      tag_21\n      jumpi\n      dup1\n      0xea7cbff1\n      eq\n      tag_22\n      jumpi\n      dup1\n      0xee172546\n      eq\n      tag_23\n      jumpi\n      0x00\n      dup1\n      revert\n    tag_28:\n      dup1\n      0x921496a9\n      gt\n      tag_30\n      jumpi\n      dup1\n      0x921496a9\n      eq\n      tag_18\n      jumpi\n      dup1\n      0xbc197c81\n      eq\n      tag_19\n      jumpi\n      dup1\n      0xd25570f2\n      eq\n      tag_20\n      jumpi\n      0x00\n      dup1\n      revert\n    tag_30:\n      dup1\n      0x7b0472f0\n      eq\n      tag_15\n      jumpi\n      dup1\n      0x8da5cb5b\n      eq\n      tag_16\n      jumpi\n      dup1\n      0x9168ae72\n      eq\n      tag_17\n      jumpi\n      0x00\n      dup1\n      revert\n    tag_27:\n      dup1\n      0x62784cd7\n      gt\n      tag_31\n      jumpi\n      dup1\n      0x6ad10ef8\n      gt\n      tag_32\n      jumpi\n      dup1\n      0x6ad10ef8\n      eq\n      tag_12\n      jumpi\n      dup1\n      0x715018a6\n      eq\n      tag_13\n      jumpi\n      dup1\n      0x72f8a256\n      eq\n      tag_14\n      jumpi\n      0x00\n      dup1\n      revert\n    tag_32:\n      dup1\n      0x62784cd7\n      eq\n      tag_9\n      jumpi\n      dup1\n      0x63c28db1\n      eq\n      tag_10\n      jumpi\n      dup1\n      0x64ab8675\n      eq\n      tag_11\n      jumpi\n      0x00\n      dup1\n      revert\n    tag_31:\n      dup1\n      0x35fbbe01\n      gt\n      tag_33\n      jumpi\n      dup1\n      0x35fbbe01\n      eq\n      tag_6\n      jumpi\n      dup1\n      0x372500ab\n      eq\n      tag_7\n      jumpi\n      dup1\n      0x441a3e70\n      eq\n      tag_8\n      jumpi\n      0x00\n      dup1\n      revert\n    tag_33:\n      dup1\n      0x01ffc9a7\n      eq\n      tag_3\n      jumpi\n      dup1\n      0x26f7b85a\n      eq\n      tag_4\n      jumpi\n      dup1\n      0x3462e0a8\n      eq\n      tag_5\n      jumpi\n    tag_2:\n      0x00\n      dup1\n      revert\n        /* \"@openzeppelin/contracts/token/ERC1155/utils/ERC1155Holder.sol\":617:838   */\n    tag_3:\n      tag_34\n      tag_35\n      calldatasize\n      0x04\n      tag_36\n      jump\t// in\n    tag_35:\n      tag_37\n      jump\t// in\n    tag_34:\n      mload(0x40)\n        /* \"#utility.yul\":470:484   */\n      swap1\n      iszero\n        /* \"#utility.yul\":463:485   */\n      iszero\n        /* \"#utility.yul\":445:486   */\n      dup2\n      mstore\n        /* \"#utility.yul\":433:435   */\n      0x20\n        /* \"#utility.yul\":418:436   */\n      add\n        /* \"@openzeppelin/contracts/token/ERC1155/utils/ERC1155Holder.sol\":617:838   */\n    tag_38:\n      mload(0x40)\n      dup1\n      swap2\n      sub\n      swap1\n      return\n        /* \"StakingBoxes.sol\":974:1032  mapping(uint256 => uint256) public rewardPerHourPerTokenId */\n    tag_4:\n      tag_40\n      tag_41\n      calldatasize\n      0x04\n      tag_42\n      jump\t// in\n    tag_41:\n      mstore(0x20, 0x02)\n      0x00\n      swap1\n      dup2\n      mstore\n      0x40\n      swap1\n      keccak256\n      sload\n      dup2\n      jump\n    tag_40:\n      mload(0x40)\n        /* \"#utility.yul\":828:853   */\n      swap1\n      dup2\n      mstore\n        /* \"#utility.yul\":816:818   */\n      0x20\n        /* \"#utility.yul\":801:819   */\n      add\n        /* \"StakingBoxes.sol\":974:1032  mapping(uint256 => uint256) public rewardPerHourPerTokenId */\n      tag_38\n        /* \"#utility.yul\":682:859   */\n      jump\n        /* \"StakingBoxes.sol\":2087:2272  function setRewardRate(uint256 _tokenId, uint256 _rate) external onlyOwner {... */\n    tag_5:\n      tag_46\n      tag_47\n      calldatasize\n      0x04\n      tag_48\n      jump\t// in\n    tag_47:\n      tag_49\n      jump\t// in\n    tag_46:\n      stop\n        /* \"StakingBoxes.sol\":8682:8790  function setMaxRewardSupply(uint256 _newMax) external onlyOwner {... */\n    tag_6:\n      tag_46\n      tag_51\n      calldatasize\n      0x04\n      tag_42\n      jump\t// in\n    tag_51:\n      tag_52\n      jump\t// in\n        /* \"StakingBoxes.sol\":6186:7829  function claimRewards() external nonReentrant {... */\n    tag_7:\n      tag_46\n      tag_54\n      jump\t// in\n        /* \"StakingBoxes.sol\":3998:5266  function withdraw(uint256 _tokenId, uint256 _amount) external nonReentrant {... */\n    tag_8:\n      tag_46\n      tag_56\n      calldatasize\n      0x04\n      tag_48\n      jump\t// in\n    tag_56:\n      tag_57\n      jump\t// in\n        /* \"StakingBoxes.sol\":1093:1139  uint256 public maxRewardSupply = 150000 * 1e18 */\n    tag_9:\n      tag_40\n      sload(0x03)\n      dup2\n      jump\n        /* \"StakingBoxes.sol\":8463:8599  function getStakedTokens(address _user) public view returns (StakedToken[] memory) {... */\n    tag_10:\n      tag_61\n      tag_62\n      calldatasize\n      0x04\n      tag_63\n      jump\t// in\n    tag_62:\n      tag_64\n      jump\t// in\n    tag_61:\n      mload(0x40)\n      tag_38\n      swap2\n      swap1\n      tag_66\n      jump\t// in\n        /* \"StakingBoxes.sol\":7837:8206  function calculateRewards(address _staker) public view returns (uint256) {... */\n    tag_11:\n      tag_40\n      tag_68\n      calldatasize\n      0x04\n      tag_63\n      jump\t// in\n    tag_68:\n      tag_69\n      jump\t// in\n        /* \"StakingBoxes.sol\":1833:1920  address public constant NZNA_TOKEN_ADDRESS = 0xa051D30E4210782F6Ad78be009701B6003adb23e */\n    tag_12:\n      tag_71\n        /* \"StakingBoxes.sol\":1878:1920  0xa051D30E4210782F6Ad78be009701B6003adb23e */\n      0xa051d30e4210782f6ad78be009701b6003adb23e\n        /* \"StakingBoxes.sol\":1833:1920  address public constant NZNA_TOKEN_ADDRESS = 0xa051D30E4210782F6Ad78be009701B6003adb23e */\n      dup2\n      jump\n    tag_71:\n      mload(0x40)\n      sub(shl(0xa0, 0x01), 0x01)\n        /* \"#utility.yul\":2470:2525   */\n      swap1\n      swap2\n      and\n        /* \"#utility.yul\":2452:2526   */\n      dup2\n      mstore\n        /* \"#utility.yul\":2440:2442   */\n      0x20\n        /* \"#utility.yul\":2425:2443   */\n      add\n        /* \"StakingBoxes.sol\":1833:1920  address public constant NZNA_TOKEN_ADDRESS = 0xa051D30E4210782F6Ad78be009701B6003adb23e */\n      tag_38\n        /* \"#utility.yul\":2306:2532   */\n      jump\n        /* \"@openzeppelin/contracts/access/Ownable.sol\":2293:2394   */\n    tag_13:\n      tag_46\n      tag_76\n      jump\t// in\n        /* \"StakingBoxes.sol\":585:624  IERC1155 public immutable boxCollection */\n    tag_14:\n      tag_71\n      immutable(\"0x1572b593c53d839d80004aa4b8c51211864104f06ace9e22be9c4365b50655ea\")\n      dup2\n      jump\n        /* \"StakingBoxes.sol\":3049:3990  function stake(uint256 _tokenId, uint256 _amount) external nonReentrant {... */\n    tag_15:\n      tag_46\n      tag_82\n      calldatasize\n      0x04\n      tag_48\n      jump\t// in\n    tag_82:\n      tag_83\n      jump\t// in\n        /* \"@openzeppelin/contracts/access/Ownable.sol\":1638:1723   */\n    tag_16:\n        /* \"@openzeppelin/contracts/access/Ownable.sol\":1710:1716   */\n      and(sub(shl(0xa0, 0x01), 0x01), sload(0x01))\n        /* \"@openzeppelin/contracts/access/Ownable.sol\":1638:1723   */\n      jump(tag_71)\n        /* \"StakingBoxes.sol\":1285:1326  mapping(address => Staker) public stakers */\n    tag_17:\n      tag_87\n      tag_88\n      calldatasize\n      0x04\n      tag_63\n      jump\t// in\n    tag_88:\n      mstore(0x20, 0x05)\n      0x00\n      swap1\n      dup2\n      mstore\n      0x40\n      swap1\n      keccak256\n      dup1\n      sload\n      0x02\n      dup3\n      add\n      sload\n      0x03\n      swap1\n      swap3\n      add\n      sload\n      swap1\n      swap2\n      swap1\n      dup4\n      jump\n    tag_87:\n      0x40\n      dup1\n      mload\n        /* \"#utility.yul\":2987:3012   */\n      swap4\n      dup5\n      mstore\n        /* \"#utility.yul\":3043:3045   */\n      0x20\n        /* \"#utility.yul\":3028:3046   */\n      dup5\n      add\n        /* \"#utility.yul\":3021:3055   */\n      swap3\n      swap1\n      swap3\n      mstore\n        /* \"#utility.yul\":3071:3089   */\n      swap1\n      dup3\n      add\n        /* \"#utility.yul\":3064:3098   */\n      mstore\n        /* \"#utility.yul\":2975:2977   */\n      0x60\n        /* \"#utility.yul\":2960:2978   */\n      add\n        /* \"StakingBoxes.sol\":1285:1326  mapping(address => Staker) public stakers */\n      tag_38\n        /* \"#utility.yul\":2785:3104   */\n      jump\n        /* \"StakingBoxes.sol\":8845:9061  function adminWithdrawTokens(uint256 _amount) external onlyOwner {... */\n    tag_18:\n      tag_46\n      tag_93\n      calldatasize\n      0x04\n      tag_42\n      jump\t// in\n    tag_93:\n      tag_94\n      jump\t// in\n        /* \"@openzeppelin/contracts/token/ERC1155/utils/ERC1155Holder.sol\":1069:1316   */\n    tag_19:\n      tag_95\n      tag_96\n      calldatasize\n      0x04\n      tag_97\n      jump\t// in\n    tag_96:\n      shl(0xe0, 0xbc197c81)\n      swap6\n      swap5\n      pop\n      pop\n      pop\n      pop\n      pop\n      jump\n    tag_95:\n      mload(0x40)\n      not(sub(shl(0xe0, 0x01), 0x01))\n        /* \"#utility.yul\":5883:5916   */\n      swap1\n      swap2\n      and\n        /* \"#utility.yul\":5865:5917   */\n      dup2\n      mstore\n        /* \"#utility.yul\":5853:5855   */\n      0x20\n        /* \"#utility.yul\":5838:5856   */\n      add\n        /* \"@openzeppelin/contracts/token/ERC1155/utils/ERC1155Holder.sol\":1069:1316   */\n      tag_38\n        /* \"#utility.yul\":5721:5923   */\n      jump\n        /* \"StakingBoxes.sol\":545:578  IERC20 public immutable nznaToken */\n    tag_20:\n      tag_71\n      immutable(\"0x731dc163f73d31d8c68f9917ce4ff967753939f70432973c04fd2c2a48148607\")\n      dup2\n      jump\n        /* \"StakingBoxes.sol\":1735:1826  address public constant BOX_COLLECTION_ADDRESS = 0x2D355478971d42fbDdf879377216e18b2AD87559 */\n    tag_21:\n      tag_71\n        /* \"StakingBoxes.sol\":1784:1826  0x2D355478971d42fbDdf879377216e18b2AD87559 */\n      0x2d355478971d42fbddf879377216e18b2ad87559\n        /* \"StakingBoxes.sol\":1735:1826  address public constant BOX_COLLECTION_ADDRESS = 0x2D355478971d42fbDdf879377216e18b2AD87559 */\n      dup2\n      jump\n        /* \"StakingBoxes.sol\":2280:2721  function getRewardRate(address _user) public view returns (uint256) {... */\n    tag_22:\n      tag_40\n      tag_109\n      calldatasize\n      0x04\n      tag_63\n      jump\t// in\n    tag_109:\n      tag_110\n      jump\t// in\n        /* \"StakingBoxes.sol\":1187:1225  uint256 public totalRewardsDistributed */\n    tag_23:\n      tag_40\n      sload(0x04)\n      dup2\n      jump\n        /* \"@openzeppelin/contracts/token/ERC1155/utils/ERC1155Holder.sol\":844:1063   */\n    tag_24:\n      tag_95\n      tag_116\n      calldatasize\n      0x04\n      tag_117\n      jump\t// in\n    tag_116:\n      shl(0xe0, 0xf23a6e61)\n      swap6\n      swap5\n      pop\n      pop\n      pop\n      pop\n      pop\n      jump\n        /* \"@openzeppelin/contracts/access/Ownable.sol\":2543:2758   */\n    tag_25:\n      tag_46\n      tag_121\n      calldatasize\n      0x04\n      tag_63\n      jump\t// in\n    tag_121:\n      tag_122\n      jump\t// in\n        /* \"StakingBoxes.sol\":8214:8451  function availableRewards(address _staker) public view returns (uint256) {... */\n    tag_26:\n      tag_40\n      tag_124\n      calldatasize\n      0x04\n      tag_63\n      jump\t// in\n    tag_124:\n      tag_125\n      jump\t// in\n        /* \"@openzeppelin/contracts/token/ERC1155/utils/ERC1155Holder.sol\":617:838   */\n    tag_37:\n        /* \"@openzeppelin/contracts/token/ERC1155/utils/ERC1155Holder.sol\":719:723   */\n      0x00\n      not(sub(shl(0xe0, 0x01), 0x01))\n        /* \"@openzeppelin/contracts/token/ERC1155/utils/ERC1155Holder.sol\":742:791   */\n      dup3\n      and\n      shl(0xe5, 0x02711897)\n      eq\n      dup1\n        /* \"@openzeppelin/contracts/token/ERC1155/utils/ERC1155Holder.sol\":742:831   */\n      tag_129\n      jumpi\n      pop\n      shl(0xe0, 0x01ffc9a7)\n      not(sub(shl(0xe0, 0x01), 0x01))\n        /* \"@openzeppelin/contracts/utils/introspection/ERC165.sol\":829:869   */\n      dup4\n      and\n      eq\n        /* \"@openzeppelin/contracts/token/ERC1155/utils/ERC1155Holder.sol\":795:831   */\n    tag_129:\n        /* \"@openzeppelin/contracts/token/ERC1155/utils/ERC1155Holder.sol\":735:831   */\n      swap3\n        /* \"@openzeppelin/contracts/token/ERC1155/utils/ERC1155Holder.sol\":617:838   */\n      swap2\n      pop\n      pop\n      jump\t// out\n        /* \"StakingBoxes.sol\":2087:2272  function setRewardRate(uint256 _tokenId, uint256 _rate) external onlyOwner {... */\n    tag_49:\n        /* \"@openzeppelin/contracts/access/Ownable.sol\":1531:1544   */\n      tag_132\n        /* \"@openzeppelin/contracts/access/Ownable.sol\":1531:1542   */\n      tag_133\n        /* \"@openzeppelin/contracts/access/Ownable.sol\":1531:1544   */\n      jump\t// in\n    tag_132:\n        /* \"StakingBoxes.sol\":2173:2206  rewardPerHourPerTokenId[_tokenId] */\n      0x00\n      dup3\n      dup2\n      mstore\n        /* \"StakingBoxes.sol\":2173:2196  rewardPerHourPerTokenId */\n      0x02\n        /* \"StakingBoxes.sol\":2173:2206  rewardPerHourPerTokenId[_tokenId] */\n      0x20\n      swap1\n      dup2\n      mstore\n      0x40\n      swap2\n      dup3\n      swap1\n      keccak256\n        /* \"StakingBoxes.sol\":2173:2214  rewardPerHourPerTokenId[_tokenId] = _rate */\n      dup4\n      swap1\n      sstore\n        /* \"StakingBoxes.sol\":2230:2264  RewardRateUpdated(_tokenId, _rate) */\n      dup2\n      mload\n        /* \"#utility.yul\":6959:6984   */\n      dup5\n      dup2\n      mstore\n        /* \"#utility.yul\":7000:7018   */\n      swap1\n      dup2\n      add\n        /* \"#utility.yul\":6993:7027   */\n      dup4\n      swap1\n      mstore\n        /* \"StakingBoxes.sol\":2230:2264  RewardRateUpdated(_tokenId, _rate) */\n      0xc390a98ace15a7bb6bab611eedfdbb2685043b241a869420043cdfb23ccfee50\n      swap2\n        /* \"#utility.yul\":6932:6950   */\n      add\n        /* \"StakingBoxes.sol\":2230:2264  RewardRateUpdated(_tokenId, _rate) */\n      mload(0x40)\n      dup1\n      swap2\n      sub\n      swap1\n      log1\n        /* \"StakingBoxes.sol\":2087:2272  function setRewardRate(uint256 _tokenId, uint256 _rate) external onlyOwner {... */\n      pop\n      pop\n      jump\t// out\n        /* \"StakingBoxes.sol\":8682:8790  function setMaxRewardSupply(uint256 _newMax) external onlyOwner {... */\n    tag_52:\n        /* \"@openzeppelin/contracts/access/Ownable.sol\":1531:1544   */\n      tag_138\n        /* \"@openzeppelin/contracts/access/Ownable.sol\":1531:1542   */\n      tag_133\n        /* \"@openzeppelin/contracts/access/Ownable.sol\":1531:1544   */\n      jump\t// in\n    tag_138:\n        /* \"StakingBoxes.sol\":8757:8772  maxRewardSupply */\n      0x03\n        /* \"StakingBoxes.sol\":8757:8782  maxRewardSupply = _newMax */\n      sstore\n        /* \"StakingBoxes.sol\":8682:8790  function setMaxRewardSupply(uint256 _newMax) external onlyOwner {... */\n      jump\t// out\n        /* \"StakingBoxes.sol\":6186:7829  function claimRewards() external nonReentrant {... */\n    tag_54:\n        /* \"@openzeppelin/contracts/utils/ReentrancyGuard.sol\":2500:2521   */\n      tag_141\n        /* \"@openzeppelin/contracts/utils/ReentrancyGuard.sol\":2500:2519   */\n      tag_142\n        /* \"@openzeppelin/contracts/utils/ReentrancyGuard.sol\":2500:2521   */\n      jump\t// in\n    tag_141:\n        /* \"StakingBoxes.sol\":6243:6268  updateRewards(msg.sender) */\n      tag_144\n        /* \"StakingBoxes.sol\":6257:6267  msg.sender */\n      caller\n        /* \"StakingBoxes.sol\":6243:6256  updateRewards */\n      tag_145\n        /* \"StakingBoxes.sol\":6243:6268  updateRewards(msg.sender) */\n      jump\t// in\n    tag_144:\n        /* \"StakingBoxes.sol\":6305:6315  msg.sender */\n      caller\n        /* \"StakingBoxes.sol\":6279:6294  uint256 rewards */\n      0x00\n        /* \"StakingBoxes.sol\":6297:6316  stakers[msg.sender] */\n      swap1\n      dup2\n      mstore\n        /* \"StakingBoxes.sol\":6297:6304  stakers */\n      0x05\n        /* \"StakingBoxes.sol\":6297:6316  stakers[msg.sender] */\n      0x20\n      mstore\n      0x40\n      swap1\n      keccak256\n        /* \"StakingBoxes.sol\":6297:6333  stakers[msg.sender].unclaimedRewards */\n      0x03\n      add\n      sload\n        /* \"StakingBoxes.sol\":6352:6363  rewards > 0 */\n      dup1\n        /* \"StakingBoxes.sol\":6344:6387  require(rewards > 0, \"No rewards to claim\") */\n      tag_146\n      jumpi\n      mload(0x40)\n      shl(0xe5, 0x461bcd)\n      dup2\n      mstore\n        /* \"#utility.yul\":7240:7242   */\n      0x20\n        /* \"StakingBoxes.sol\":6344:6387  require(rewards > 0, \"No rewards to claim\") */\n      0x04\n      dup3\n      add\n        /* \"#utility.yul\":7222:7243   */\n      mstore\n        /* \"#utility.yul\":7279:7281   */\n      0x13\n        /* \"#utility.yul\":7259:7277   */\n      0x24\n      dup3\n      add\n        /* \"#utility.yul\":7252:7282   */\n      mstore\n        /* \"#utility.yul\":7318:7339   */\n      0x4e6f207265776172647320746f20636c61696d00000000000000000000000000\n        /* \"#utility.yul\":7298:7316   */\n      0x44\n      dup3\n      add\n        /* \"#utility.yul\":7291:7340   */\n      mstore\n        /* \"#utility.yul\":7357:7375   */\n      0x64\n      add\n        /* \"StakingBoxes.sol\":6344:6387  require(rewards > 0, \"No rewards to claim\") */\n    tag_147:\n      mload(0x40)\n      dup1\n      swap2\n      sub\n      swap1\n      revert\n    tag_146:\n        /* \"StakingBoxes.sol\":6440:6460  uint256 remainingCap */\n      0x00\n        /* \"StakingBoxes.sol\":6481:6504  totalRewardsDistributed */\n      sload(0x04)\n        /* \"StakingBoxes.sol\":6463:6478  maxRewardSupply */\n      sload(0x03)\n        /* \"StakingBoxes.sol\":6463:6504  maxRewardSupply > totalRewardsDistributed */\n      gt\n        /* \"StakingBoxes.sol\":6463:6552  maxRewardSupply > totalRewardsDistributed ? maxRewardSupply - totalRewardsDistributed : 0 */\n      tag_149\n      jumpi\n        /* \"StakingBoxes.sol\":6551:6552  0 */\n      0x00\n        /* \"StakingBoxes.sol\":6463:6552  maxRewardSupply > totalRewardsDistributed ? maxRewardSupply - totalRewardsDistributed : 0 */\n      jump(tag_151)\n    tag_149:\n        /* \"StakingBoxes.sol\":6525:6548  totalRewardsDistributed */\n      sload(0x04)\n        /* \"StakingBoxes.sol\":6507:6522  maxRewardSupply */\n      sload(0x03)\n        /* \"StakingBoxes.sol\":6507:6548  maxRewardSupply - totalRewardsDistributed */\n      tag_151\n      swap2\n      swap1\n      tag_152\n      jump\t// in\n    tag_151:\n        /* \"StakingBoxes.sol\":6440:6552  uint256 remainingCap = maxRewardSupply > totalRewardsDistributed ? maxRewardSupply - totalRewardsDistributed : 0 */\n      swap1\n      pop\n        /* \"StakingBoxes.sol\":6563:6580  bool isCapReached */\n      0x00\n        /* \"StakingBoxes.sol\":6623:6635  remainingCap */\n      dup2\n        /* \"StakingBoxes.sol\":6613:6620  rewards */\n      dup4\n        /* \"StakingBoxes.sol\":6613:6635  rewards > remainingCap */\n      gt\n        /* \"StakingBoxes.sol\":6609:6720  if (rewards > remainingCap) {... */\n      iszero\n      tag_153\n      jumpi\n      pop\n        /* \"StakingBoxes.sol\":6662:6674  remainingCap */\n      swap1\n      pop\n      dup1\n        /* \"StakingBoxes.sol\":6704:6708  true */\n      0x01\n        /* \"StakingBoxes.sol\":6609:6720  if (rewards > remainingCap) {... */\n    tag_153:\n        /* \"StakingBoxes.sol\":6808:6842  nznaToken.balanceOf(address(this)) */\n      mload(0x40)\n      shl(0xe0, 0x70a08231)\n      dup2\n      mstore\n        /* \"StakingBoxes.sol\":6836:6840  this */\n      address\n        /* \"StakingBoxes.sol\":6808:6842  nznaToken.balanceOf(address(this)) */\n      0x04\n      dup3\n      add\n        /* \"#utility.yul\":2452:2526   */\n      mstore\n        /* \"StakingBoxes.sol\":6782:6805  uint256 contractBalance */\n      0x00\n      swap1\n        /* \"StakingBoxes.sol\":6808:6817  nznaToken */\n      immutable(\"0x731dc163f73d31d8c68f9917ce4ff967753939f70432973c04fd2c2a48148607\")\n      sub(shl(0xa0, 0x01), 0x01)\n        /* \"StakingBoxes.sol\":6808:6827  nznaToken.balanceOf */\n      and\n      swap1\n      0x70a08231\n      swap1\n        /* \"#utility.yul\":2425:2443   */\n      0x24\n      add\n        /* \"StakingBoxes.sol\":6808:6842  nznaToken.balanceOf(address(this)) */\n      0x20\n      mload(0x40)\n      dup1\n      dup4\n      sub\n      dup2\n      dup7\n      gas\n      staticcall\n      iszero\n      dup1\n      iszero\n      tag_156\n      jumpi\n      returndatasize\n      0x00\n      dup1\n      returndatacopy\n      revert(0x00, returndatasize)\n    tag_156:\n      pop\n      pop\n      pop\n      pop\n      mload(0x40)\n      returndatasize\n      not(0x1f)\n      0x1f\n      dup3\n      add\n      and\n      dup3\n      add\n      dup1\n      0x40\n      mstore\n      pop\n      dup2\n      add\n      swap1\n      tag_157\n      swap2\n      swap1\n      tag_158\n      jump\t// in\n    tag_157:\n        /* \"StakingBoxes.sol\":6782:6842  uint256 contractBalance = nznaToken.balanceOf(address(this)) */\n      swap1\n      pop\n        /* \"StakingBoxes.sol\":6867:6882  contractBalance */\n      dup1\n        /* \"StakingBoxes.sol\":6857:6864  rewards */\n      dup5\n        /* \"StakingBoxes.sol\":6857:6882  rewards > contractBalance */\n      gt\n        /* \"StakingBoxes.sol\":6853:6970  if (rewards > contractBalance) {... */\n      iszero\n      tag_159\n      jumpi\n        /* \"StakingBoxes.sol\":6909:6924  contractBalance */\n      dup1\n        /* \"StakingBoxes.sol\":6899:6924  rewards = contractBalance */\n      swap4\n      pop\n        /* \"StakingBoxes.sol\":6954:6958  true */\n      0x01\n        /* \"StakingBoxes.sol\":6939:6958  isCapReached = true */\n      swap2\n      pop\n        /* \"StakingBoxes.sol\":6853:6970  if (rewards > contractBalance) {... */\n    tag_159:\n        /* \"StakingBoxes.sol\":7071:7083  rewards == 0 */\n      dup4\n      iszero\n        /* \"StakingBoxes.sol\":7071:7099  rewards == 0 && isCapReached */\n      dup1\n      iszero\n      tag_160\n      jumpi\n      pop\n        /* \"StakingBoxes.sol\":7087:7099  isCapReached */\n      dup2\n        /* \"StakingBoxes.sol\":7071:7099  rewards == 0 && isCapReached */\n    tag_160:\n        /* \"StakingBoxes.sol\":7067:7355  if (rewards == 0 && isCapReached) {... */\n      iszero\n      tag_161\n      jumpi\n        /* \"StakingBoxes.sol\":7124:7134  msg.sender */\n      caller\n        /* \"StakingBoxes.sol\":7155:7156  0 */\n      0x00\n        /* \"StakingBoxes.sol\":7116:7135  stakers[msg.sender] */\n      dup2\n      dup2\n      mstore\n        /* \"StakingBoxes.sol\":7116:7123  stakers */\n      0x05\n        /* \"StakingBoxes.sol\":7116:7135  stakers[msg.sender] */\n      0x20\n      mstore\n      0x40\n      dup2\n      keccak256\n        /* \"StakingBoxes.sol\":7116:7152  stakers[msg.sender].unclaimedRewards */\n      0x03\n      add\n        /* \"StakingBoxes.sol\":7116:7156  stakers[msg.sender].unclaimedRewards = 0 */\n      sstore\n        /* \"StakingBoxes.sol\":7203:7235  _emergencyUnstakeAll(msg.sender) */\n      tag_162\n      swap1\n        /* \"StakingBoxes.sol\":7203:7223  _emergencyUnstakeAll */\n      tag_163\n        /* \"StakingBoxes.sol\":7203:7235  _emergencyUnstakeAll(msg.sender) */\n      jump\t// in\n    tag_162:\n        /* \"StakingBoxes.sol\":7255:7279  PoolEmpty(msg.sender, 0) */\n      mload(0x40)\n        /* \"StakingBoxes.sol\":7277:7278  0 */\n      0x00\n        /* \"#utility.yul\":828:853   */\n      dup2\n      mstore\n        /* \"StakingBoxes.sol\":7265:7275  msg.sender */\n      caller\n      swap1\n        /* \"StakingBoxes.sol\":7255:7279  PoolEmpty(msg.sender, 0) */\n      0xc6de05d0802f64b865bcc39b2ff620df8f504497826dc676d28e26cad141e1db\n      swap1\n        /* \"#utility.yul\":816:818   */\n      0x20\n        /* \"#utility.yul\":801:819   */\n      add\n        /* \"StakingBoxes.sol\":7255:7279  PoolEmpty(msg.sender, 0) */\n      mload(0x40)\n      dup1\n      swap2\n      sub\n      swap1\n      log2\n        /* \"StakingBoxes.sol\":7294:7301  return; */\n      pop\n      pop\n      pop\n      pop\n      jump(tag_143)\n        /* \"StakingBoxes.sol\":7067:7355  if (rewards == 0 && isCapReached) {... */\n    tag_161:\n        /* \"StakingBoxes.sol\":7410:7420  msg.sender */\n      caller\n        /* \"StakingBoxes.sol\":7402:7421  stakers[msg.sender] */\n      0x00\n      swap1\n      dup2\n      mstore\n        /* \"StakingBoxes.sol\":7402:7409  stakers */\n      0x05\n        /* \"StakingBoxes.sol\":7402:7421  stakers[msg.sender] */\n      0x20\n      mstore\n      0x40\n      dup2\n      keccak256\n        /* \"StakingBoxes.sol\":7402:7438  stakers[msg.sender].unclaimedRewards */\n      0x03\n      add\n        /* \"StakingBoxes.sol\":7402:7449  stakers[msg.sender].unclaimedRewards -= rewards */\n      dup1\n      sload\n        /* \"StakingBoxes.sol\":7442:7449  rewards */\n      dup7\n      swap3\n        /* \"StakingBoxes.sol\":7402:7421  stakers[msg.sender] */\n      swap1\n        /* \"StakingBoxes.sol\":7402:7449  stakers[msg.sender].unclaimedRewards -= rewards */\n      tag_166\n      swap1\n        /* \"StakingBoxes.sol\":7442:7449  rewards */\n      dup5\n      swap1\n        /* \"StakingBoxes.sol\":7402:7449  stakers[msg.sender].unclaimedRewards -= rewards */\n      tag_152\n      jump\t// in\n    tag_166:\n      swap3\n      pop\n      pop\n      dup2\n      swap1\n      sstore\n      pop\n        /* \"StakingBoxes.sol\":7487:7494  rewards */\n      dup4\n        /* \"StakingBoxes.sol\":7460:7483  totalRewardsDistributed */\n      0x04\n      0x00\n        /* \"StakingBoxes.sol\":7460:7494  totalRewardsDistributed += rewards */\n      dup3\n      dup3\n      sload\n      tag_167\n      swap2\n      swap1\n      tag_168\n      jump\t// in\n    tag_167:\n      swap1\n      swap2\n      sstore\n      pop\n        /* \"StakingBoxes.sol\":7515:7558  nznaToken.safeTransfer(msg.sender, rewards) */\n      tag_169\n      swap1\n      pop\n      sub(shl(0xa0, 0x01), 0x01)\n        /* \"StakingBoxes.sol\":7515:7524  nznaToken */\n      immutable(\"0x731dc163f73d31d8c68f9917ce4ff967753939f70432973c04fd2c2a48148607\")\n        /* \"StakingBoxes.sol\":7515:7537  nznaToken.safeTransfer */\n      and\n        /* \"StakingBoxes.sol\":7538:7548  msg.sender */\n      caller\n        /* \"StakingBoxes.sol\":7550:7557  rewards */\n      dup7\n        /* \"StakingBoxes.sol\":7515:7537  nznaToken.safeTransfer */\n      tag_170\n        /* \"StakingBoxes.sol\":7515:7558  nznaToken.safeTransfer(msg.sender, rewards) */\n      jump\t// in\n    tag_169:\n        /* \"StakingBoxes.sol\":7574:7609  RewardsClaimed(msg.sender, rewards) */\n      mload(0x40)\n        /* \"#utility.yul\":828:853   */\n      dup5\n      dup2\n      mstore\n        /* \"StakingBoxes.sol\":7589:7599  msg.sender */\n      caller\n      swap1\n        /* \"StakingBoxes.sol\":7574:7609  RewardsClaimed(msg.sender, rewards) */\n      0xfc30cddea38e2bf4d6ea7d3f9ed3b6ad7f176419f4963bd81318067a4aee73fe\n      swap1\n        /* \"#utility.yul\":816:818   */\n      0x20\n        /* \"#utility.yul\":801:819   */\n      add\n        /* \"StakingBoxes.sol\":7574:7609  RewardsClaimed(msg.sender, rewards) */\n      mload(0x40)\n      dup1\n      swap2\n      sub\n      swap1\n      log2\n        /* \"StakingBoxes.sol\":7697:7709  isCapReached */\n      dup2\n        /* \"StakingBoxes.sol\":7693:7822  if (isCapReached) {... */\n      iszero\n      tag_172\n      jumpi\n        /* \"StakingBoxes.sol\":7727:7759  _emergencyUnstakeAll(msg.sender) */\n      tag_173\n        /* \"StakingBoxes.sol\":7748:7758  msg.sender */\n      caller\n        /* \"StakingBoxes.sol\":7727:7747  _emergencyUnstakeAll */\n      tag_163\n        /* \"StakingBoxes.sol\":7727:7759  _emergencyUnstakeAll(msg.sender) */\n      jump\t// in\n    tag_173:\n        /* \"StakingBoxes.sol\":7780:7810  PoolEmpty(msg.sender, rewards) */\n      mload(0x40)\n        /* \"#utility.yul\":828:853   */\n      dup5\n      dup2\n      mstore\n        /* \"StakingBoxes.sol\":7790:7800  msg.sender */\n      caller\n      swap1\n        /* \"StakingBoxes.sol\":7780:7810  PoolEmpty(msg.sender, rewards) */\n      0xc6de05d0802f64b865bcc39b2ff620df8f504497826dc676d28e26cad141e1db\n      swap1\n        /* \"#utility.yul\":816:818   */\n      0x20\n        /* \"#utility.yul\":801:819   */\n      add\n        /* \"StakingBoxes.sol\":7780:7810  PoolEmpty(msg.sender, rewards) */\n      mload(0x40)\n      dup1\n      swap2\n      sub\n      swap1\n      log2\n        /* \"StakingBoxes.sol\":7693:7822  if (isCapReached) {... */\n    tag_172:\n        /* \"StakingBoxes.sol\":6232:7829  {... */\n      pop\n      pop\n      pop\n      pop\n        /* \"@openzeppelin/contracts/utils/ReentrancyGuard.sol\":2531:2532   */\n    tag_143:\n        /* \"@openzeppelin/contracts/utils/ReentrancyGuard.sol\":2542:2562   */\n      tag_175\n        /* \"@openzeppelin/contracts/utils/ReentrancyGuard.sol\":1857:1858   */\n      0x01\n        /* \"@openzeppelin/contracts/utils/ReentrancyGuard.sol\":3068:3075   */\n      0x00\n        /* \"@openzeppelin/contracts/utils/ReentrancyGuard.sol\":3068:3089   */\n      sstore\n        /* \"@openzeppelin/contracts/utils/ReentrancyGuard.sol\":2888:3096   */\n      jump\n        /* \"@openzeppelin/contracts/utils/ReentrancyGuard.sol\":2542:2562   */\n    tag_175:\n        /* \"StakingBoxes.sol\":6186:7829  function claimRewards() external nonReentrant {... */\n      jump\t// out\n        /* \"StakingBoxes.sol\":3998:5266  function withdraw(uint256 _tokenId, uint256 _amount) external nonReentrant {... */\n    tag_57:\n        /* \"@openzeppelin/contracts/utils/ReentrancyGuard.sol\":2500:2521   */\n      tag_178\n        /* \"@openzeppelin/contracts/utils/ReentrancyGuard.sol\":2500:2519   */\n      tag_142\n        /* \"@openzeppelin/contracts/utils/ReentrancyGuard.sol\":2500:2521   */\n      jump\t// in\n    tag_178:\n        /* \"StakingBoxes.sol\":4102:4103  0 */\n      0x00\n        /* \"StakingBoxes.sol\":4092:4099  _amount */\n      dup2\n        /* \"StakingBoxes.sol\":4092:4103  _amount > 0 */\n      gt\n        /* \"StakingBoxes.sol\":4084:4126  require(_amount > 0, \"Amount must be > 0\") */\n      tag_180\n      jumpi\n      mload(0x40)\n      shl(0xe5, 0x461bcd)\n      dup2\n      mstore\n        /* \"#utility.yul\":8362:8364   */\n      0x20\n        /* \"StakingBoxes.sol\":4084:4126  require(_amount > 0, \"Amount must be > 0\") */\n      0x04\n      dup3\n      add\n        /* \"#utility.yul\":8344:8365   */\n      mstore\n        /* \"#utility.yul\":8401:8403   */\n      0x12\n        /* \"#utility.yul\":8381:8399   */\n      0x24\n      dup3\n      add\n        /* \"#utility.yul\":8374:8404   */\n      mstore\n        /* \"#utility.yul\":8440:8460   */\n      0x416d6f756e74206d757374206265203e20300000000000000000000000000000\n        /* \"#utility.yul\":8420:8438   */\n      0x44\n      dup3\n      add\n        /* \"#utility.yul\":8413:8461   */\n      mstore\n        /* \"#utility.yul\":8478:8496   */\n      0x64\n      add\n        /* \"StakingBoxes.sol\":4084:4126  require(_amount > 0, \"Amount must be > 0\") */\n      tag_147\n        /* \"#utility.yul\":8160:8502   */\n      jump\n        /* \"StakingBoxes.sol\":4084:4126  require(_amount > 0, \"Amount must be > 0\") */\n    tag_180:\n        /* \"StakingBoxes.sol\":4169:4179  msg.sender */\n      caller\n        /* \"StakingBoxes.sol\":4137:4158  Staker storage staker */\n      0x00\n        /* \"StakingBoxes.sol\":4161:4180  stakers[msg.sender] */\n      swap1\n      dup2\n      mstore\n        /* \"StakingBoxes.sol\":4161:4168  stakers */\n      0x05\n        /* \"StakingBoxes.sol\":4161:4180  stakers[msg.sender] */\n      0x20\n      mstore\n      0x40\n      swap1\n      keccak256\n        /* \"StakingBoxes.sol\":4199:4218  staker.amountStaked */\n      dup1\n      sload\n        /* \"StakingBoxes.sol\":4199:4229  staker.amountStaked >= _amount */\n      dup3\n      gt\n      iszero\n        /* \"StakingBoxes.sol\":4191:4260  require(staker.amountStaked >= _amount, \"Insufficient staked amount\") */\n      tag_183\n      jumpi\n      mload(0x40)\n      shl(0xe5, 0x461bcd)\n      dup2\n      mstore\n        /* \"#utility.yul\":8709:8711   */\n      0x20\n        /* \"StakingBoxes.sol\":4191:4260  require(staker.amountStaked >= _amount, \"Insufficient staked amount\") */\n      0x04\n      dup3\n      add\n        /* \"#utility.yul\":8691:8712   */\n      mstore\n        /* \"#utility.yul\":8748:8750   */\n      0x1a\n        /* \"#utility.yul\":8728:8746   */\n      0x24\n      dup3\n      add\n        /* \"#utility.yul\":8721:8751   */\n      mstore\n        /* \"#utility.yul\":8787:8815   */\n      0x496e73756666696369656e74207374616b656420616d6f756e74000000000000\n        /* \"#utility.yul\":8767:8785   */\n      0x44\n      dup3\n      add\n        /* \"#utility.yul\":8760:8816   */\n      mstore\n        /* \"#utility.yul\":8833:8851   */\n      0x64\n      add\n        /* \"StakingBoxes.sol\":4191:4260  require(staker.amountStaked >= _amount, \"Insufficient staked amount\") */\n      tag_147\n        /* \"#utility.yul\":8507:8857   */\n      jump\n        /* \"StakingBoxes.sol\":4191:4260  require(staker.amountStaked >= _amount, \"Insufficient staked amount\") */\n    tag_183:\n        /* \"StakingBoxes.sol\":4273:4298  updateRewards(msg.sender) */\n      tag_186\n        /* \"StakingBoxes.sol\":4287:4297  msg.sender */\n      caller\n        /* \"StakingBoxes.sol\":4273:4286  updateRewards */\n      tag_145\n        /* \"StakingBoxes.sol\":4273:4298  updateRewards(msg.sender) */\n      jump\t// in\n    tag_186:\n        /* \"StakingBoxes.sol\":4311:4321  bool found */\n      0x00\n        /* \"StakingBoxes.sol\":4345:4354  uint256 i */\n      dup1\n        /* \"StakingBoxes.sol\":4340:5012  for (uint256 i = 0; i < staker.stakedTokens.length; i++) {... */\n    tag_187:\n        /* \"StakingBoxes.sol\":4364:4383  staker.stakedTokens */\n      0x01\n      dup4\n      add\n        /* \"StakingBoxes.sol\":4364:4390  staker.stakedTokens.length */\n      sload\n        /* \"StakingBoxes.sol\":4360:4390  i < staker.stakedTokens.length */\n      dup2\n      lt\n        /* \"StakingBoxes.sol\":4340:5012  for (uint256 i = 0; i < staker.stakedTokens.length; i++) {... */\n      iszero\n      tag_188\n      jumpi\n        /* \"StakingBoxes.sol\":4450:4458  _tokenId */\n      dup5\n        /* \"StakingBoxes.sol\":4416:4422  staker */\n      dup4\n        /* \"StakingBoxes.sol\":4416:4435  staker.stakedTokens */\n      0x01\n      add\n        /* \"StakingBoxes.sol\":4436:4437  i */\n      dup3\n        /* \"StakingBoxes.sol\":4416:4438  staker.stakedTokens[i] */\n      dup2\n      sload\n      dup2\n      lt\n      tag_191\n      jumpi\n      tag_191\n      tag_192\n      jump\t// in\n    tag_191:\n      swap1\n      0x00\n      mstore\n      keccak256(0x00, 0x20)\n      swap1\n      0x02\n      mul\n      add\n        /* \"StakingBoxes.sol\":4416:4446  staker.stakedTokens[i].tokenId */\n      0x00\n      add\n      sload\n        /* \"StakingBoxes.sol\":4416:4458  staker.stakedTokens[i].tokenId == _tokenId */\n      sub\n        /* \"StakingBoxes.sol\":4412:5001  if (staker.stakedTokens[i].tokenId == _tokenId) {... */\n      tag_194\n      jumpi\n        /* \"StakingBoxes.sol\":4520:4527  _amount */\n      dup4\n        /* \"StakingBoxes.sol\":4487:4493  staker */\n      dup4\n        /* \"StakingBoxes.sol\":4487:4506  staker.stakedTokens */\n      0x01\n      add\n        /* \"StakingBoxes.sol\":4507:4508  i */\n      dup3\n        /* \"StakingBoxes.sol\":4487:4509  staker.stakedTokens[i] */\n      dup2\n      sload\n      dup2\n      lt\n      tag_196\n      jumpi\n      tag_196\n      tag_192\n      jump\t// in\n    tag_196:\n      swap1\n      0x00\n      mstore\n      keccak256(0x00, 0x20)\n      swap1\n      0x02\n      mul\n      add\n        /* \"StakingBoxes.sol\":4487:4516  staker.stakedTokens[i].amount */\n      0x01\n      add\n      sload\n        /* \"StakingBoxes.sol\":4487:4527  staker.stakedTokens[i].amount >= _amount */\n      lt\n      iszero\n        /* \"StakingBoxes.sol\":4479:4574  require(staker.stakedTokens[i].amount >= _amount, \"Insufficient staked balance for this token\") */\n      tag_198\n      jumpi\n      mload(0x40)\n      shl(0xe5, 0x461bcd)\n      dup2\n      mstore\n        /* \"#utility.yul\":9196:9198   */\n      0x20\n        /* \"StakingBoxes.sol\":4479:4574  require(staker.stakedTokens[i].amount >= _amount, \"Insufficient staked balance for this token\") */\n      0x04\n      dup3\n      add\n        /* \"#utility.yul\":9178:9199   */\n      mstore\n        /* \"#utility.yul\":9235:9237   */\n      0x2a\n        /* \"#utility.yul\":9215:9233   */\n      0x24\n      dup3\n      add\n        /* \"#utility.yul\":9208:9238   */\n      mstore\n        /* \"#utility.yul\":9274:9308   */\n      0x496e73756666696369656e74207374616b65642062616c616e636520666f7220\n        /* \"#utility.yul\":9254:9272   */\n      0x44\n      dup3\n      add\n        /* \"#utility.yul\":9247:9309   */\n      mstore\n        /* \"#utility.yul\":9345:9357   */\n      0x7468697320746f6b656e00000000000000000000000000000000000000000000\n        /* \"#utility.yul\":9325:9343   */\n      0x64\n      dup3\n      add\n        /* \"#utility.yul\":9318:9358   */\n      mstore\n        /* \"#utility.yul\":9375:9394   */\n      0x84\n      add\n        /* \"StakingBoxes.sol\":4479:4574  require(staker.stakedTokens[i].amount >= _amount, \"Insufficient staked balance for this token\") */\n      tag_147\n        /* \"#utility.yul\":8994:9400   */\n      jump\n        /* \"StakingBoxes.sol\":4479:4574  require(staker.stakedTokens[i].amount >= _amount, \"Insufficient staked balance for this token\") */\n    tag_198:\n        /* \"StakingBoxes.sol\":4626:4633  _amount */\n      dup4\n        /* \"StakingBoxes.sol\":4593:4599  staker */\n      dup4\n        /* \"StakingBoxes.sol\":4593:4612  staker.stakedTokens */\n      0x01\n      add\n        /* \"StakingBoxes.sol\":4613:4614  i */\n      dup3\n        /* \"StakingBoxes.sol\":4593:4615  staker.stakedTokens[i] */\n      dup2\n      sload\n      dup2\n      lt\n      tag_202\n      jumpi\n      tag_202\n      tag_192\n      jump\t// in\n    tag_202:\n      swap1\n      0x00\n      mstore\n      keccak256(0x00, 0x20)\n      swap1\n      0x02\n      mul\n      add\n        /* \"StakingBoxes.sol\":4593:4622  staker.stakedTokens[i].amount */\n      0x01\n      add\n      0x00\n        /* \"StakingBoxes.sol\":4593:4633  staker.stakedTokens[i].amount -= _amount */\n      dup3\n      dup3\n      sload\n      tag_204\n      swap2\n      swap1\n      tag_152\n      jump\t// in\n    tag_204:\n      swap1\n      swap2\n      sstore\n      pop\n      pop\n        /* \"StakingBoxes.sol\":4656:4675  staker.stakedTokens */\n      0x01\n      dup4\n      add\n        /* \"StakingBoxes.sol\":4656:4678  staker.stakedTokens[i] */\n      dup1\n      sload\n        /* \"StakingBoxes.sol\":4676:4677  i */\n      dup3\n      swap1\n        /* \"StakingBoxes.sol\":4656:4678  staker.stakedTokens[i] */\n      dup2\n      lt\n      tag_206\n      jumpi\n      tag_206\n      tag_192\n      jump\t// in\n    tag_206:\n      swap1\n      0x00\n      mstore\n      keccak256(0x00, 0x20)\n      swap1\n      0x02\n      mul\n      add\n        /* \"StakingBoxes.sol\":4656:4685  staker.stakedTokens[i].amount */\n      0x01\n      add\n      sload\n        /* \"StakingBoxes.sol\":4689:4690  0 */\n      0x00\n        /* \"StakingBoxes.sol\":4656:4690  staker.stakedTokens[i].amount == 0 */\n      sub\n        /* \"StakingBoxes.sol\":4652:4931  if (staker.stakedTokens[i].amount == 0) {... */\n      tag_208\n      jumpi\n        /* \"StakingBoxes.sol\":4812:4831  staker.stakedTokens */\n      0x01\n      dup1\n      dup5\n      add\n        /* \"StakingBoxes.sol\":4832:4858  staker.stakedTokens.length */\n      dup1\n      sload\n        /* \"StakingBoxes.sol\":4812:4831  staker.stakedTokens */\n      swap1\n      swap2\n        /* \"StakingBoxes.sol\":4832:4862  staker.stakedTokens.length - 1 */\n      tag_209\n      swap2\n      tag_152\n      jump\t// in\n    tag_209:\n        /* \"StakingBoxes.sol\":4812:4863  staker.stakedTokens[staker.stakedTokens.length - 1] */\n      dup2\n      sload\n      dup2\n      lt\n      tag_211\n      jumpi\n      tag_211\n      tag_192\n      jump\t// in\n    tag_211:\n      swap1\n      0x00\n      mstore\n      keccak256(0x00, 0x20)\n      swap1\n      0x02\n      mul\n      add\n        /* \"StakingBoxes.sol\":4787:4793  staker */\n      dup4\n        /* \"StakingBoxes.sol\":4787:4806  staker.stakedTokens */\n      0x01\n      add\n        /* \"StakingBoxes.sol\":4807:4808  i */\n      dup3\n        /* \"StakingBoxes.sol\":4787:4809  staker.stakedTokens[i] */\n      dup2\n      sload\n      dup2\n      lt\n      tag_214\n      jumpi\n      tag_214\n      tag_192\n      jump\t// in\n    tag_214:\n      0x00\n      swap2\n      dup3\n      mstore\n      0x20\n      swap1\n      swap2\n      keccak256\n        /* \"StakingBoxes.sol\":4787:4863  staker.stakedTokens[i] = staker.stakedTokens[staker.stakedTokens.length - 1] */\n      dup3\n      sload\n        /* \"StakingBoxes.sol\":4787:4809  staker.stakedTokens[i] */\n      0x02\n      swap1\n      swap3\n      mul\n      add\n        /* \"StakingBoxes.sol\":4787:4863  staker.stakedTokens[i] = staker.stakedTokens[staker.stakedTokens.length - 1] */\n      swap1\n      dup2\n      sstore\n      0x01\n      swap2\n      dup3\n      add\n      sload\n      swap1\n      dup3\n      add\n      sstore\n        /* \"StakingBoxes.sol\":4886:4905  staker.stakedTokens */\n      dup4\n      add\n        /* \"StakingBoxes.sol\":4886:4911  staker.stakedTokens.pop() */\n      dup1\n      sload\n      dup1\n      tag_217\n      jumpi\n      tag_217\n      tag_218\n      jump\t// in\n    tag_217:\n      0x00\n      dup3\n      dup2\n      mstore\n      0x20\n      dup2\n      keccak256\n      0x02\n      not(0x00)\n      swap1\n      swap4\n      add\n      swap3\n      dup4\n      mul\n      add\n      dup2\n      dup2\n      sstore\n      0x01\n      add\n      sstore\n      swap1\n      sstore\n        /* \"StakingBoxes.sol\":4652:4931  if (staker.stakedTokens[i].amount == 0) {... */\n    tag_208:\n        /* \"StakingBoxes.sol\":4957:4961  true */\n      0x01\n        /* \"StakingBoxes.sol\":4949:4961  found = true */\n      swap2\n      pop\n        /* \"StakingBoxes.sol\":4980:4985  break */\n      jump(tag_188)\n        /* \"StakingBoxes.sol\":4412:5001  if (staker.stakedTokens[i].tokenId == _tokenId) {... */\n    tag_194:\n        /* \"StakingBoxes.sol\":4392:4395  i++ */\n      0x01\n      add\n        /* \"StakingBoxes.sol\":4340:5012  for (uint256 i = 0; i < staker.stakedTokens.length; i++) {... */\n      jump(tag_187)\n    tag_188:\n      pop\n        /* \"StakingBoxes.sol\":5030:5035  found */\n      dup1\n        /* \"StakingBoxes.sol\":5022:5056  require(found, \"Token not staked\") */\n      tag_220\n      jumpi\n      mload(0x40)\n      shl(0xe5, 0x461bcd)\n      dup2\n      mstore\n        /* \"#utility.yul\":9739:9741   */\n      0x20\n        /* \"StakingBoxes.sol\":5022:5056  require(found, \"Token not staked\") */\n      0x04\n      dup3\n      add\n        /* \"#utility.yul\":9721:9742   */\n      mstore\n        /* \"#utility.yul\":9778:9780   */\n      0x10\n        /* \"#utility.yul\":9758:9776   */\n      0x24\n      dup3\n      add\n        /* \"#utility.yul\":9751:9781   */\n      mstore\n        /* \"#utility.yul\":9817:9835   */\n      0x546f6b656e206e6f74207374616b656400000000000000000000000000000000\n        /* \"#utility.yul\":9797:9815   */\n      0x44\n      dup3\n      add\n        /* \"#utility.yul\":9790:9836   */\n      mstore\n        /* \"#utility.yul\":9853:9871   */\n      0x64\n      add\n        /* \"StakingBoxes.sol\":5022:5056  require(found, \"Token not staked\") */\n      tag_147\n        /* \"#utility.yul\":9537:9877   */\n      jump\n        /* \"StakingBoxes.sol\":5022:5056  require(found, \"Token not staked\") */\n    tag_220:\n        /* \"StakingBoxes.sol\":5092:5099  _amount */\n      dup3\n        /* \"StakingBoxes.sol\":5069:5075  staker */\n      dup3\n        /* \"StakingBoxes.sol\":5069:5088  staker.amountStaked */\n      0x00\n      add\n      0x00\n        /* \"StakingBoxes.sol\":5069:5099  staker.amountStaked -= _amount */\n      dup3\n      dup3\n      sload\n      tag_223\n      swap2\n      swap1\n      tag_152\n      jump\t// in\n    tag_223:\n      swap1\n      swap2\n      sstore\n      pop\n      pop\n        /* \"StakingBoxes.sol\":5112:5192  boxCollection.safeTransferFrom(address(this), msg.sender, _tokenId, _amount, \"\") */\n      mload(0x40)\n      shl(0xe1, 0x79212195)\n      dup2\n      mstore\n        /* \"StakingBoxes.sol\":5151:5155  this */\n      address\n        /* \"StakingBoxes.sol\":5112:5192  boxCollection.safeTransferFrom(address(this), msg.sender, _tokenId, _amount, \"\") */\n      0x04\n      dup3\n      add\n        /* \"#utility.yul\":10238:10272   */\n      mstore\n        /* \"StakingBoxes.sol\":5158:5168  msg.sender */\n      caller\n        /* \"#utility.yul\":10288:10306   */\n      0x24\n      dup3\n      add\n        /* \"#utility.yul\":10281:10324   */\n      mstore\n        /* \"#utility.yul\":10340:10358   */\n      0x44\n      dup2\n      add\n        /* \"#utility.yul\":10333:10367   */\n      dup6\n      swap1\n      mstore\n        /* \"#utility.yul\":10383:10401   */\n      0x64\n      dup2\n      add\n        /* \"#utility.yul\":10376:10410   */\n      dup5\n      swap1\n      mstore\n        /* \"#utility.yul\":10447:10450   */\n      0xa0\n        /* \"#utility.yul\":10426:10445   */\n      0x84\n      dup3\n      add\n        /* \"#utility.yul\":10419:10451   */\n      mstore\n      0x00\n        /* \"#utility.yul\":10467:10486   */\n      0xa4\n      dup3\n      add\n        /* \"#utility.yul\":10460:10490   */\n      mstore\n        /* \"StakingBoxes.sol\":5112:5125  boxCollection */\n      immutable(\"0x1572b593c53d839d80004aa4b8c51211864104f06ace9e22be9c4365b50655ea\")\n      sub(shl(0xa0, 0x01), 0x01)\n        /* \"StakingBoxes.sol\":5112:5142  boxCollection.safeTransferFrom */\n      and\n      swap1\n      0xf242432a\n      swap1\n        /* \"#utility.yul\":10507:10526   */\n      0xc4\n      add\n        /* \"StakingBoxes.sol\":5112:5192  boxCollection.safeTransferFrom(address(this), msg.sender, _tokenId, _amount, \"\") */\n      0x00\n      mload(0x40)\n      dup1\n      dup4\n      sub\n      dup2\n      0x00\n      dup8\n      dup1\n      extcodesize\n      iszero\n      dup1\n      iszero\n      tag_226\n      jumpi\n      0x00\n      dup1\n      revert\n    tag_226:\n      pop\n      gas\n      call\n      iszero\n      dup1\n      iszero\n      tag_228\n      jumpi\n      returndatasize\n      0x00\n      dup1\n      returndatacopy\n      revert(0x00, returndatasize)\n    tag_228:\n      pop\n      pop\n        /* \"StakingBoxes.sol\":5218:5258  Withdrawn(msg.sender, _tokenId, _amount) */\n      0x40\n      dup1\n      mload\n        /* \"#utility.yul\":6959:6984   */\n      dup8\n      dup2\n      mstore\n        /* \"#utility.yul\":7015:7017   */\n      0x20\n        /* \"#utility.yul\":7000:7018   */\n      dup2\n      add\n        /* \"#utility.yul\":6993:7027   */\n      dup8\n      swap1\n      mstore\n        /* \"StakingBoxes.sol\":5228:5238  msg.sender */\n      caller\n      swap4\n      pop\n        /* \"StakingBoxes.sol\":5218:5258  Withdrawn(msg.sender, _tokenId, _amount) */\n      0x92ccf450a286a957af52509bc1c9939d1a6a481783e142e41e2499f0bb66ebc6\n      swap3\n      pop\n        /* \"#utility.yul\":6932:6950   */\n      add\n        /* \"StakingBoxes.sol\":5218:5258  Withdrawn(msg.sender, _tokenId, _amount) */\n    tag_229:\n      mload(0x40)\n      dup1\n      swap2\n      sub\n      swap1\n      log2\n        /* \"StakingBoxes.sol\":4073:5266  {... */\n      pop\n      pop\n        /* \"@openzeppelin/contracts/utils/ReentrancyGuard.sol\":2542:2562   */\n      tag_230\n        /* \"@openzeppelin/contracts/utils/ReentrancyGuard.sol\":1857:1858   */\n      0x01\n        /* \"@openzeppelin/contracts/utils/ReentrancyGuard.sol\":3068:3075   */\n      0x00\n        /* \"@openzeppelin/contracts/utils/ReentrancyGuard.sol\":3068:3089   */\n      sstore\n        /* \"@openzeppelin/contracts/utils/ReentrancyGuard.sol\":2888:3096   */\n      jump\n        /* \"@openzeppelin/contracts/utils/ReentrancyGuard.sol\":2542:2562   */\n    tag_230:\n        /* \"StakingBoxes.sol\":3998:5266  function withdraw(uint256 _tokenId, uint256 _amount) external nonReentrant {... */\n      pop\n      pop\n      jump\t// out\n        /* \"StakingBoxes.sol\":8463:8599  function getStakedTokens(address _user) public view returns (StakedToken[] memory) {... */\n    tag_64:\n      sub(shl(0xa0, 0x01), 0x01)\n        /* \"StakingBoxes.sol\":8564:8578  stakers[_user] */\n      dup2\n      and\n      0x00\n      swap1\n      dup2\n      mstore\n        /* \"StakingBoxes.sol\":8564:8571  stakers */\n      0x05\n        /* \"StakingBoxes.sol\":8564:8578  stakers[_user] */\n      0x20\n      swap1\n      dup2\n      mstore\n      0x40\n      dup1\n      dup4\n      keccak256\n        /* \"StakingBoxes.sol\":8564:8591  stakers[_user].stakedTokens */\n      0x01\n      add\n        /* \"StakingBoxes.sol\":8557:8591  return stakers[_user].stakedTokens */\n      dup1\n      sload\n      dup3\n      mload\n      dup2\n      dup6\n      mul\n      dup2\n      add\n      dup6\n      add\n      swap1\n      swap4\n      mstore\n      dup1\n      dup4\n      mstore\n        /* \"StakingBoxes.sol\":8524:8544  StakedToken[] memory */\n      0x60\n      swap5\n        /* \"StakingBoxes.sol\":8557:8591  return stakers[_user].stakedTokens */\n      swap3\n      swap4\n        /* \"StakingBoxes.sol\":8564:8591  stakers[_user].stakedTokens */\n      swap2\n      swap3\n        /* \"StakingBoxes.sol\":8557:8591  return stakers[_user].stakedTokens */\n      swap1\n      swap2\n      dup5\n      add\n    tag_232:\n      dup3\n      dup3\n      lt\n      iszero\n      tag_233\n      jumpi\n      dup4\n      dup3\n      swap1\n      0x00\n      mstore\n      keccak256(0x00, 0x20)\n      swap1\n      0x02\n      mul\n      add\n      mload(0x40)\n      dup1\n      0x40\n      add\n      0x40\n      mstore\n      swap1\n      dup2\n      0x00\n      dup3\n      add\n      sload\n      dup2\n      mstore\n      0x20\n      add\n      0x01\n      dup3\n      add\n      sload\n      dup2\n      mstore\n      pop\n      pop\n      dup2\n      mstore\n      0x20\n      add\n      swap1\n      0x01\n      add\n      swap1\n      jump(tag_232)\n    tag_233:\n      pop\n      pop\n      pop\n      pop\n      swap1\n      pop\n        /* \"StakingBoxes.sol\":8463:8599  function getStakedTokens(address _user) public view returns (StakedToken[] memory) {... */\n      swap2\n      swap1\n      pop\n      jump\t// out\n        /* \"StakingBoxes.sol\":7837:8206  function calculateRewards(address _staker) public view returns (uint256) {... */\n    tag_69:\n      sub(shl(0xa0, 0x01), 0x01)\n        /* \"StakingBoxes.sol\":7946:7962  stakers[_staker] */\n      dup2\n      and\n        /* \"StakingBoxes.sol\":7901:7908  uint256 */\n      0x00\n        /* \"StakingBoxes.sol\":7946:7962  stakers[_staker] */\n      swap1\n      dup2\n      mstore\n        /* \"StakingBoxes.sol\":7946:7953  stakers */\n      0x05\n        /* \"StakingBoxes.sol\":7946:7962  stakers[_staker] */\n      0x20\n      mstore\n      0x40\n      dup2\n      keccak256\n        /* \"StakingBoxes.sol\":7978:7997  staker.amountStaked */\n      dup1\n      sload\n        /* \"StakingBoxes.sol\":7978:8002  staker.amountStaked == 0 */\n      dup3\n      sub\n        /* \"StakingBoxes.sol\":7974:8012  if (staker.amountStaked == 0) return 0 */\n      tag_236\n      jumpi\n      pop\n        /* \"StakingBoxes.sol\":8011:8012  0 */\n      0x00\n      swap3\n        /* \"StakingBoxes.sol\":7837:8206  function calculateRewards(address _staker) public view returns (uint256) {... */\n      swap2\n      pop\n      pop\n      jump\t// out\n        /* \"StakingBoxes.sol\":7974:8012  if (staker.amountStaked == 0) return 0 */\n    tag_236:\n        /* \"StakingBoxes.sol\":8035:8051  uint256 timeDiff */\n      0x00\n        /* \"StakingBoxes.sol\":8072:8078  staker */\n      dup2\n        /* \"StakingBoxes.sol\":8072:8095  staker.timeOfLastUpdate */\n      0x02\n      add\n      sload\n        /* \"StakingBoxes.sol\":8054:8069  block.timestamp */\n      timestamp\n        /* \"StakingBoxes.sol\":8054:8095  block.timestamp - staker.timeOfLastUpdate */\n      tag_237\n      swap2\n      swap1\n      tag_152\n      jump\t// in\n    tag_237:\n        /* \"StakingBoxes.sol\":8035:8095  uint256 timeDiff = block.timestamp - staker.timeOfLastUpdate */\n      swap1\n      pop\n        /* \"StakingBoxes.sol\":8107:8119  uint256 rate */\n      0x00\n        /* \"StakingBoxes.sol\":8122:8144  getRewardRate(_staker) */\n      tag_238\n        /* \"StakingBoxes.sol\":8136:8143  _staker */\n      dup6\n        /* \"StakingBoxes.sol\":8122:8135  getRewardRate */\n      tag_110\n        /* \"StakingBoxes.sol\":8122:8144  getRewardRate(_staker) */\n      jump\t// in\n    tag_238:\n        /* \"StakingBoxes.sol\":8107:8144  uint256 rate = getRewardRate(_staker) */\n      swap1\n      pop\n        /* \"StakingBoxes.sol\":8194:8198  3600 */\n      0x0e10\n        /* \"StakingBoxes.sol\":8175:8190  timeDiff * rate */\n      tag_239\n        /* \"StakingBoxes.sol\":8107:8144  uint256 rate = getRewardRate(_staker) */\n      dup3\n        /* \"StakingBoxes.sol\":8175:8183  timeDiff */\n      dup5\n        /* \"StakingBoxes.sol\":8175:8190  timeDiff * rate */\n      tag_240\n      jump\t// in\n    tag_239:\n        /* \"StakingBoxes.sol\":8174:8198  (timeDiff * rate) / 3600 */\n      tag_241\n      swap2\n      swap1\n      tag_242\n      jump\t// in\n    tag_241:\n        /* \"StakingBoxes.sol\":8167:8198  return (timeDiff * rate) / 3600 */\n      swap6\n        /* \"StakingBoxes.sol\":7837:8206  function calculateRewards(address _staker) public view returns (uint256) {... */\n      swap5\n      pop\n      pop\n      pop\n      pop\n      pop\n      jump\t// out\n        /* \"@openzeppelin/contracts/access/Ownable.sol\":2293:2394   */\n    tag_76:\n        /* \"@openzeppelin/contracts/access/Ownable.sol\":1531:1544   */\n      tag_244\n        /* \"@openzeppelin/contracts/access/Ownable.sol\":1531:1542   */\n      tag_133\n        /* \"@openzeppelin/contracts/access/Ownable.sol\":1531:1544   */\n      jump\t// in\n    tag_244:\n        /* \"@openzeppelin/contracts/access/Ownable.sol\":2357:2387   */\n      tag_175\n        /* \"@openzeppelin/contracts/access/Ownable.sol\":2384:2385   */\n      0x00\n        /* \"@openzeppelin/contracts/access/Ownable.sol\":2357:2375   */\n      tag_247\n        /* \"@openzeppelin/contracts/access/Ownable.sol\":2357:2387   */\n      jump\t// in\n        /* \"StakingBoxes.sol\":3049:3990  function stake(uint256 _tokenId, uint256 _amount) external nonReentrant {... */\n    tag_83:\n        /* \"@openzeppelin/contracts/utils/ReentrancyGuard.sol\":2500:2521   */\n      tag_249\n        /* \"@openzeppelin/contracts/utils/ReentrancyGuard.sol\":2500:2519   */\n      tag_142\n        /* \"@openzeppelin/contracts/utils/ReentrancyGuard.sol\":2500:2521   */\n      jump\t// in\n    tag_249:\n        /* \"StakingBoxes.sol\":3150:3151  0 */\n      0x00\n        /* \"StakingBoxes.sol\":3140:3147  _amount */\n      dup2\n        /* \"StakingBoxes.sol\":3140:3151  _amount > 0 */\n      gt\n        /* \"StakingBoxes.sol\":3132:3174  require(_amount > 0, \"Amount must be > 0\") */\n      tag_251\n      jumpi\n      mload(0x40)\n      shl(0xe5, 0x461bcd)\n      dup2\n      mstore\n        /* \"#utility.yul\":8362:8364   */\n      0x20\n        /* \"StakingBoxes.sol\":3132:3174  require(_amount > 0, \"Amount must be > 0\") */\n      0x04\n      dup3\n      add\n        /* \"#utility.yul\":8344:8365   */\n      mstore\n        /* \"#utility.yul\":8401:8403   */\n      0x12\n        /* \"#utility.yul\":8381:8399   */\n      0x24\n      dup3\n      add\n        /* \"#utility.yul\":8374:8404   */\n      mstore\n        /* \"#utility.yul\":8440:8460   */\n      0x416d6f756e74206d757374206265203e20300000000000000000000000000000\n        /* \"#utility.yul\":8420:8438   */\n      0x44\n      dup3\n      add\n        /* \"#utility.yul\":8413:8461   */\n      mstore\n        /* \"#utility.yul\":8478:8496   */\n      0x64\n      add\n        /* \"StakingBoxes.sol\":3132:3174  require(_amount > 0, \"Amount must be > 0\") */\n      tag_147\n        /* \"#utility.yul\":8160:8502   */\n      jump\n        /* \"StakingBoxes.sol\":3132:3174  require(_amount > 0, \"Amount must be > 0\") */\n    tag_251:\n        /* \"StakingBoxes.sol\":3193:3238  boxCollection.balanceOf(msg.sender, _tokenId) */\n      mload(0x40)\n      shl(0xe1, 0x7eeac7)\n      dup2\n      mstore\n        /* \"StakingBoxes.sol\":3217:3227  msg.sender */\n      caller\n        /* \"StakingBoxes.sol\":3193:3238  boxCollection.balanceOf(msg.sender, _tokenId) */\n      0x04\n      dup3\n      add\n        /* \"#utility.yul\":11106:11180   */\n      mstore\n        /* \"#utility.yul\":11196:11214   */\n      0x24\n      dup2\n      add\n        /* \"#utility.yul\":11189:11223   */\n      dup4\n      swap1\n      mstore\n        /* \"StakingBoxes.sol\":3242:3249  _amount */\n      dup2\n      swap1\n        /* \"StakingBoxes.sol\":3193:3206  boxCollection */\n      immutable(\"0x1572b593c53d839d80004aa4b8c51211864104f06ace9e22be9c4365b50655ea\")\n      sub(shl(0xa0, 0x01), 0x01)\n        /* \"StakingBoxes.sol\":3193:3216  boxCollection.balanceOf */\n      and\n      swap1\n      0xfdd58e\n      swap1\n        /* \"#utility.yul\":11079:11097   */\n      0x44\n      add\n        /* \"StakingBoxes.sol\":3193:3238  boxCollection.balanceOf(msg.sender, _tokenId) */\n      0x20\n      mload(0x40)\n      dup1\n      dup4\n      sub\n      dup2\n      dup7\n      gas\n      staticcall\n      iszero\n      dup1\n      iszero\n      tag_256\n      jumpi\n      returndatasize\n      0x00\n      dup1\n      returndatacopy\n      revert(0x00, returndatasize)\n    tag_256:\n      pop\n      pop\n      pop\n      pop\n      mload(0x40)\n      returndatasize\n      not(0x1f)\n      0x1f\n      dup3\n      add\n      and\n      dup3\n      add\n      dup1\n      0x40\n      mstore\n      pop\n      dup2\n      add\n      swap1\n      tag_257\n      swap2\n      swap1\n      tag_158\n      jump\t// in\n    tag_257:\n        /* \"StakingBoxes.sol\":3193:3249  boxCollection.balanceOf(msg.sender, _tokenId) >= _amount */\n      lt\n      iszero\n        /* \"StakingBoxes.sol\":3185:3274  require(boxCollection.balanceOf(msg.sender, _tokenId) >= _amount, \"Insufficient balance\") */\n      tag_258\n      jumpi\n      mload(0x40)\n      shl(0xe5, 0x461bcd)\n      dup2\n      mstore\n        /* \"#utility.yul\":11436:11438   */\n      0x20\n        /* \"StakingBoxes.sol\":3185:3274  require(boxCollection.balanceOf(msg.sender, _tokenId) >= _amount, \"Insufficient balance\") */\n      0x04\n      dup3\n      add\n        /* \"#utility.yul\":11418:11439   */\n      mstore\n        /* \"#utility.yul\":11475:11477   */\n      0x14\n        /* \"#utility.yul\":11455:11473   */\n      0x24\n      dup3\n      add\n        /* \"#utility.yul\":11448:11478   */\n      mstore\n        /* \"#utility.yul\":11514:11536   */\n      0x496e73756666696369656e742062616c616e6365000000000000000000000000\n        /* \"#utility.yul\":11494:11512   */\n      0x44\n      dup3\n      add\n        /* \"#utility.yul\":11487:11537   */\n      mstore\n        /* \"#utility.yul\":11554:11572   */\n      0x64\n      add\n        /* \"StakingBoxes.sol\":3185:3274  require(boxCollection.balanceOf(msg.sender, _tokenId) >= _amount, \"Insufficient balance\") */\n      tag_147\n        /* \"#utility.yul\":11234:11578   */\n      jump\n        /* \"StakingBoxes.sol\":3185:3274  require(boxCollection.balanceOf(msg.sender, _tokenId) >= _amount, \"Insufficient balance\") */\n    tag_258:\n        /* \"StakingBoxes.sol\":3287:3312  updateRewards(msg.sender) */\n      tag_261\n        /* \"StakingBoxes.sol\":3301:3311  msg.sender */\n      caller\n        /* \"StakingBoxes.sol\":3287:3300  updateRewards */\n      tag_145\n        /* \"StakingBoxes.sol\":3287:3312  updateRewards(msg.sender) */\n      jump\t// in\n    tag_261:\n        /* \"StakingBoxes.sol\":3325:3405  boxCollection.safeTransferFrom(msg.sender, address(this), _tokenId, _amount, \"\") */\n      mload(0x40)\n      shl(0xe1, 0x79212195)\n      dup2\n      mstore\n        /* \"StakingBoxes.sol\":3356:3366  msg.sender */\n      caller\n        /* \"StakingBoxes.sol\":3325:3405  boxCollection.safeTransferFrom(msg.sender, address(this), _tokenId, _amount, \"\") */\n      0x04\n      dup3\n      add\n        /* \"#utility.yul\":10238:10272   */\n      mstore\n        /* \"StakingBoxes.sol\":3376:3380  this */\n      address\n        /* \"#utility.yul\":10288:10306   */\n      0x24\n      dup3\n      add\n        /* \"#utility.yul\":10281:10324   */\n      mstore\n        /* \"#utility.yul\":10340:10358   */\n      0x44\n      dup2\n      add\n        /* \"#utility.yul\":10333:10367   */\n      dup4\n      swap1\n      mstore\n        /* \"#utility.yul\":10383:10401   */\n      0x64\n      dup2\n      add\n        /* \"#utility.yul\":10376:10410   */\n      dup3\n      swap1\n      mstore\n        /* \"#utility.yul\":10447:10450   */\n      0xa0\n        /* \"#utility.yul\":10426:10445   */\n      0x84\n      dup3\n      add\n        /* \"#utility.yul\":10419:10451   */\n      mstore\n      0x00\n        /* \"#utility.yul\":10467:10486   */\n      0xa4\n      dup3\n      add\n        /* \"#utility.yul\":10460:10490   */\n      mstore\n        /* \"StakingBoxes.sol\":3325:3338  boxCollection */\n      immutable(\"0x1572b593c53d839d80004aa4b8c51211864104f06ace9e22be9c4365b50655ea\")\n      sub(shl(0xa0, 0x01), 0x01)\n        /* \"StakingBoxes.sol\":3325:3355  boxCollection.safeTransferFrom */\n      and\n      swap1\n      0xf242432a\n      swap1\n        /* \"#utility.yul\":10507:10526   */\n      0xc4\n      add\n        /* \"StakingBoxes.sol\":3325:3405  boxCollection.safeTransferFrom(msg.sender, address(this), _tokenId, _amount, \"\") */\n      0x00\n      mload(0x40)\n      dup1\n      dup4\n      sub\n      dup2\n      0x00\n      dup8\n      dup1\n      extcodesize\n      iszero\n      dup1\n      iszero\n      tag_263\n      jumpi\n      0x00\n      dup1\n      revert\n    tag_263:\n      pop\n      gas\n      call\n      iszero\n      dup1\n      iszero\n      tag_265\n      jumpi\n      returndatasize\n      0x00\n      dup1\n      returndatacopy\n      revert(0x00, returndatasize)\n    tag_265:\n      pop\n      pop\n        /* \"StakingBoxes.sol\":3450:3460  msg.sender */\n      caller\n        /* \"StakingBoxes.sol\":3418:3439  Staker storage staker */\n      0x00\n        /* \"StakingBoxes.sol\":3442:3461  stakers[msg.sender] */\n      swap1\n      dup2\n      mstore\n        /* \"StakingBoxes.sol\":3442:3449  stakers */\n      0x05\n        /* \"StakingBoxes.sol\":3442:3461  stakers[msg.sender] */\n      0x20\n      mstore\n      0x40\n      dup2\n      keccak256\n      swap3\n      pop\n        /* \"StakingBoxes.sol\":3418:3439  Staker storage staker */\n      swap1\n      pop\n      dup1\n        /* \"StakingBoxes.sol\":3511:3772  for (uint256 i = 0; i < staker.stakedTokens.length; i++) {... */\n    tag_266:\n        /* \"StakingBoxes.sol\":3535:3554  staker.stakedTokens */\n      0x01\n      dup4\n      add\n        /* \"StakingBoxes.sol\":3535:3561  staker.stakedTokens.length */\n      sload\n        /* \"StakingBoxes.sol\":3531:3561  i < staker.stakedTokens.length */\n      dup2\n      lt\n        /* \"StakingBoxes.sol\":3511:3772  for (uint256 i = 0; i < staker.stakedTokens.length; i++) {... */\n      iszero\n      tag_267\n      jumpi\n        /* \"StakingBoxes.sol\":3621:3629  _tokenId */\n      dup5\n        /* \"StakingBoxes.sol\":3587:3593  staker */\n      dup4\n        /* \"StakingBoxes.sol\":3587:3606  staker.stakedTokens */\n      0x01\n      add\n        /* \"StakingBoxes.sol\":3607:3608  i */\n      dup3\n        /* \"StakingBoxes.sol\":3587:3609  staker.stakedTokens[i] */\n      dup2\n      sload\n      dup2\n      lt\n      tag_270\n      jumpi\n      tag_270\n      tag_192\n      jump\t// in\n    tag_270:\n      swap1\n      0x00\n      mstore\n      keccak256(0x00, 0x20)\n      swap1\n      0x02\n      mul\n      add\n        /* \"StakingBoxes.sol\":3587:3617  staker.stakedTokens[i].tokenId */\n      0x00\n      add\n      sload\n        /* \"StakingBoxes.sol\":3587:3629  staker.stakedTokens[i].tokenId == _tokenId */\n      sub\n        /* \"StakingBoxes.sol\":3583:3761  if (staker.stakedTokens[i].tokenId == _tokenId) {... */\n      tag_272\n      jumpi\n        /* \"StakingBoxes.sol\":3683:3690  _amount */\n      dup4\n        /* \"StakingBoxes.sol\":3650:3656  staker */\n      dup4\n        /* \"StakingBoxes.sol\":3650:3669  staker.stakedTokens */\n      0x01\n      add\n        /* \"StakingBoxes.sol\":3670:3671  i */\n      dup3\n        /* \"StakingBoxes.sol\":3650:3672  staker.stakedTokens[i] */\n      dup2\n      sload\n      dup2\n      lt\n      tag_274\n      jumpi\n      tag_274\n      tag_192\n      jump\t// in\n    tag_274:\n      swap1\n      0x00\n      mstore\n      keccak256(0x00, 0x20)\n      swap1\n      0x02\n      mul\n      add\n        /* \"StakingBoxes.sol\":3650:3679  staker.stakedTokens[i].amount */\n      0x01\n      add\n      0x00\n        /* \"StakingBoxes.sol\":3650:3690  staker.stakedTokens[i].amount += _amount */\n      dup3\n      dup3\n      sload\n      tag_276\n      swap2\n      swap1\n      tag_168\n      jump\t// in\n    tag_276:\n      swap1\n      swap2\n      sstore\n      pop\n        /* \"StakingBoxes.sol\":3717:3721  true */\n      0x01\n      swap3\n      pop\n        /* \"StakingBoxes.sol\":3740:3745  break */\n      tag_267\n      swap1\n      pop\n      jump\n        /* \"StakingBoxes.sol\":3583:3761  if (staker.stakedTokens[i].tokenId == _tokenId) {... */\n    tag_272:\n        /* \"StakingBoxes.sol\":3563:3566  i++ */\n      0x01\n      add\n        /* \"StakingBoxes.sol\":3511:3772  for (uint256 i = 0; i < staker.stakedTokens.length; i++) {... */\n      jump(tag_266)\n    tag_267:\n      pop\n        /* \"StakingBoxes.sol\":3787:3792  found */\n      dup1\n        /* \"StakingBoxes.sol\":3782:3877  if (!found) {... */\n      tag_277\n      jumpi\n        /* \"StakingBoxes.sol\":3834:3864  StakedToken(_tokenId, _amount) */\n      0x40\n      dup1\n      mload\n      dup1\n      dup3\n      add\n      swap1\n      swap2\n      mstore\n      dup5\n      dup2\n      mstore\n      0x20\n      dup1\n      dup3\n      add\n      dup6\n      dup2\n      mstore\n        /* \"StakingBoxes.sol\":3809:3828  staker.stakedTokens */\n      0x01\n      dup1\n      dup7\n      add\n        /* \"StakingBoxes.sol\":3809:3865  staker.stakedTokens.push(StakedToken(_tokenId, _amount)) */\n      dup1\n      sload\n      dup1\n      dup4\n      add\n      dup3\n      sstore\n      0x00\n      swap2\n      dup3\n      mstore\n      swap4\n      swap1\n      keccak256\n      swap4\n      mload\n      0x02\n      swap1\n      swap4\n      mul\n      swap1\n      swap4\n      add\n      swap2\n      dup3\n      sstore\n      mload\n      swap2\n      add\n      sstore\n        /* \"StakingBoxes.sol\":3782:3877  if (!found) {... */\n    tag_277:\n        /* \"StakingBoxes.sol\":3912:3919  _amount */\n      dup3\n        /* \"StakingBoxes.sol\":3889:3895  staker */\n      dup3\n        /* \"StakingBoxes.sol\":3889:3908  staker.amountStaked */\n      0x00\n      add\n      0x00\n        /* \"StakingBoxes.sol\":3889:3919  staker.amountStaked += _amount */\n      dup3\n      dup3\n      sload\n      tag_279\n      swap2\n      swap1\n      tag_168\n      jump\t// in\n    tag_279:\n      swap1\n      swap2\n      sstore\n      pop\n      pop\n        /* \"StakingBoxes.sol\":3945:3982  Staked(msg.sender, _tokenId, _amount) */\n      0x40\n      dup1\n      mload\n        /* \"#utility.yul\":6959:6984   */\n      dup6\n      dup2\n      mstore\n        /* \"#utility.yul\":7015:7017   */\n      0x20\n        /* \"#utility.yul\":7000:7018   */\n      dup2\n      add\n        /* \"#utility.yul\":6993:7027   */\n      dup6\n      swap1\n      mstore\n        /* \"StakingBoxes.sol\":3952:3962  msg.sender */\n      caller\n      swap2\n        /* \"StakingBoxes.sol\":3945:3982  Staked(msg.sender, _tokenId, _amount) */\n      0x1449c6dd7851abc30abf37f57715f492010519147cc2652fbc38202c18a6ee90\n      swap2\n        /* \"#utility.yul\":6932:6950   */\n      add\n        /* \"StakingBoxes.sol\":3945:3982  Staked(msg.sender, _tokenId, _amount) */\n      tag_229\n        /* \"#utility.yul\":6785:7033   */\n      jump\n        /* \"StakingBoxes.sol\":8845:9061  function adminWithdrawTokens(uint256 _amount) external onlyOwner {... */\n    tag_94:\n        /* \"@openzeppelin/contracts/access/Ownable.sol\":1531:1544   */\n      tag_284\n        /* \"@openzeppelin/contracts/access/Ownable.sol\":1531:1542   */\n      tag_133\n        /* \"@openzeppelin/contracts/access/Ownable.sol\":1531:1544   */\n      jump\t// in\n    tag_284:\n        /* \"StakingBoxes.sol\":8929:8963  nznaToken.balanceOf(address(this)) */\n      mload(0x40)\n      shl(0xe0, 0x70a08231)\n      dup2\n      mstore\n        /* \"StakingBoxes.sol\":8957:8961  this */\n      address\n        /* \"StakingBoxes.sol\":8929:8963  nznaToken.balanceOf(address(this)) */\n      0x04\n      dup3\n      add\n        /* \"#utility.yul\":2452:2526   */\n      mstore\n        /* \"StakingBoxes.sol\":8967:8974  _amount */\n      dup2\n      swap1\n        /* \"StakingBoxes.sol\":8929:8938  nznaToken */\n      immutable(\"0x731dc163f73d31d8c68f9917ce4ff967753939f70432973c04fd2c2a48148607\")\n      sub(shl(0xa0, 0x01), 0x01)\n        /* \"StakingBoxes.sol\":8929:8948  nznaToken.balanceOf */\n      and\n      swap1\n      0x70a08231\n      swap1\n        /* \"#utility.yul\":2425:2443   */\n      0x24\n      add\n        /* \"StakingBoxes.sol\":8929:8963  nznaToken.balanceOf(address(this)) */\n      0x20\n      mload(0x40)\n      dup1\n      dup4\n      sub\n      dup2\n      dup7\n      gas\n      staticcall\n      iszero\n      dup1\n      iszero\n      tag_288\n      jumpi\n      returndatasize\n      0x00\n      dup1\n      returndatacopy\n      revert(0x00, returndatasize)\n    tag_288:\n      pop\n      pop\n      pop\n      pop\n      mload(0x40)\n      returndatasize\n      not(0x1f)\n      0x1f\n      dup3\n      add\n      and\n      dup3\n      add\n      dup1\n      0x40\n      mstore\n      pop\n      dup2\n      add\n      swap1\n      tag_289\n      swap2\n      swap1\n      tag_158\n      jump\t// in\n    tag_289:\n        /* \"StakingBoxes.sol\":8929:8974  nznaToken.balanceOf(address(this)) >= _amount */\n      lt\n      iszero\n        /* \"StakingBoxes.sol\":8921:8999  require(nznaToken.balanceOf(address(this)) >= _amount, \"Insufficient balance\") */\n      tag_290\n      jumpi\n      mload(0x40)\n      shl(0xe5, 0x461bcd)\n      dup2\n      mstore\n        /* \"#utility.yul\":11436:11438   */\n      0x20\n        /* \"StakingBoxes.sol\":8921:8999  require(nznaToken.balanceOf(address(this)) >= _amount, \"Insufficient balance\") */\n      0x04\n      dup3\n      add\n        /* \"#utility.yul\":11418:11439   */\n      mstore\n        /* \"#utility.yul\":11475:11477   */\n      0x14\n        /* \"#utility.yul\":11455:11473   */\n      0x24\n      dup3\n      add\n        /* \"#utility.yul\":11448:11478   */\n      mstore\n        /* \"#utility.yul\":11514:11536   */\n      0x496e73756666696369656e742062616c616e6365000000000000000000000000\n        /* \"#utility.yul\":11494:11512   */\n      0x44\n      dup3\n      add\n        /* \"#utility.yul\":11487:11537   */\n      mstore\n        /* \"#utility.yul\":11554:11572   */\n      0x64\n      add\n        /* \"StakingBoxes.sol\":8921:8999  require(nznaToken.balanceOf(address(this)) >= _amount, \"Insufficient balance\") */\n      tag_147\n        /* \"#utility.yul\":11234:11578   */\n      jump\n        /* \"StakingBoxes.sol\":8921:8999  require(nznaToken.balanceOf(address(this)) >= _amount, \"Insufficient balance\") */\n    tag_290:\n        /* \"StakingBoxes.sol\":9010:9053  nznaToken.safeTransfer(msg.sender, _amount) */\n      tag_292\n      sub(shl(0xa0, 0x01), 0x01)\n        /* \"StakingBoxes.sol\":9010:9019  nznaToken */\n      immutable(\"0x731dc163f73d31d8c68f9917ce4ff967753939f70432973c04fd2c2a48148607\")\n        /* \"StakingBoxes.sol\":9010:9032  nznaToken.safeTransfer */\n      and\n        /* \"StakingBoxes.sol\":9033:9043  msg.sender */\n      caller\n        /* \"StakingBoxes.sol\":9045:9052  _amount */\n      dup4\n        /* \"StakingBoxes.sol\":9010:9032  nznaToken.safeTransfer */\n      tag_170\n        /* \"StakingBoxes.sol\":9010:9053  nznaToken.safeTransfer(msg.sender, _amount) */\n      jump\t// in\n    tag_292:\n        /* \"StakingBoxes.sol\":8845:9061  function adminWithdrawTokens(uint256 _amount) external onlyOwner {... */\n      pop\n      jump\t// out\n        /* \"StakingBoxes.sol\":2280:2721  function getRewardRate(address _user) public view returns (uint256) {... */\n    tag_110:\n      sub(shl(0xa0, 0x01), 0x01)\n        /* \"StakingBoxes.sol\":2383:2397  stakers[_user] */\n      dup2\n      and\n        /* \"StakingBoxes.sol\":2339:2346  uint256 */\n      0x00\n        /* \"StakingBoxes.sol\":2383:2397  stakers[_user] */\n      swap1\n      dup2\n      mstore\n        /* \"StakingBoxes.sol\":2383:2390  stakers */\n      0x05\n        /* \"StakingBoxes.sol\":2383:2397  stakers[_user] */\n      0x20\n      mstore\n      0x40\n      dup2\n      keccak256\n        /* \"StakingBoxes.sol\":2339:2346  uint256 */\n      dup2\n      dup1\n        /* \"StakingBoxes.sol\":2435:2692  for (uint256 i = 0; i < staker.stakedTokens.length; i++) {... */\n    tag_295:\n        /* \"StakingBoxes.sol\":2459:2478  staker.stakedTokens */\n      0x01\n      dup4\n      add\n        /* \"StakingBoxes.sol\":2459:2485  staker.stakedTokens.length */\n      sload\n        /* \"StakingBoxes.sol\":2455:2485  i < staker.stakedTokens.length */\n      dup2\n      lt\n        /* \"StakingBoxes.sol\":2435:2692  for (uint256 i = 0; i < staker.stakedTokens.length; i++) {... */\n      iszero\n      tag_296\n      jumpi\n        /* \"StakingBoxes.sol\":2507:2522  uint256 tokenId */\n      0x00\n        /* \"StakingBoxes.sol\":2525:2531  staker */\n      dup4\n        /* \"StakingBoxes.sol\":2525:2544  staker.stakedTokens */\n      0x01\n      add\n        /* \"StakingBoxes.sol\":2545:2546  i */\n      dup3\n        /* \"StakingBoxes.sol\":2525:2547  staker.stakedTokens[i] */\n      dup2\n      sload\n      dup2\n      lt\n      tag_299\n      jumpi\n      tag_299\n      tag_192\n      jump\t// in\n    tag_299:\n      swap1\n      0x00\n      mstore\n      keccak256(0x00, 0x20)\n      swap1\n      0x02\n      mul\n      add\n        /* \"StakingBoxes.sol\":2525:2555  staker.stakedTokens[i].tokenId */\n      0x00\n      add\n      sload\n        /* \"StakingBoxes.sol\":2507:2555  uint256 tokenId = staker.stakedTokens[i].tokenId */\n      swap1\n      pop\n        /* \"StakingBoxes.sol\":2570:2584  uint256 amount */\n      0x00\n        /* \"StakingBoxes.sol\":2587:2593  staker */\n      dup5\n        /* \"StakingBoxes.sol\":2587:2606  staker.stakedTokens */\n      0x01\n      add\n        /* \"StakingBoxes.sol\":2607:2608  i */\n      dup4\n        /* \"StakingBoxes.sol\":2587:2609  staker.stakedTokens[i] */\n      dup2\n      sload\n      dup2\n      lt\n      tag_302\n      jumpi\n      tag_302\n      tag_192\n      jump\t// in\n    tag_302:\n      swap1\n      0x00\n      mstore\n      keccak256(0x00, 0x20)\n      swap1\n      0x02\n      mul\n      add\n        /* \"StakingBoxes.sol\":2587:2616  staker.stakedTokens[i].amount */\n      0x01\n      add\n      sload\n        /* \"StakingBoxes.sol\":2570:2616  uint256 amount = staker.stakedTokens[i].amount */\n      swap1\n      pop\n        /* \"StakingBoxes.sol\":2674:2680  amount */\n      dup1\n        /* \"StakingBoxes.sol\":2639:2662  rewardPerHourPerTokenId */\n      0x02\n        /* \"StakingBoxes.sol\":2639:2671  rewardPerHourPerTokenId[tokenId] */\n      0x00\n        /* \"StakingBoxes.sol\":2663:2670  tokenId */\n      dup5\n        /* \"StakingBoxes.sol\":2639:2671  rewardPerHourPerTokenId[tokenId] */\n      dup2\n      mstore\n      0x20\n      add\n      swap1\n      dup2\n      mstore\n      0x20\n      add\n      0x00\n      keccak256\n      sload\n        /* \"StakingBoxes.sol\":2639:2680  rewardPerHourPerTokenId[tokenId] * amount */\n      tag_304\n      swap2\n      swap1\n      tag_240\n      jump\t// in\n    tag_304:\n        /* \"StakingBoxes.sol\":2631:2680  rate += rewardPerHourPerTokenId[tokenId] * amount */\n      tag_305\n      swap1\n      dup6\n      tag_168\n      jump\t// in\n    tag_305:\n      swap4\n      pop\n      pop\n      pop\n        /* \"StakingBoxes.sol\":2487:2490  i++ */\n      0x01\n      add\n        /* \"StakingBoxes.sol\":2435:2692  for (uint256 i = 0; i < staker.stakedTokens.length; i++) {... */\n      jump(tag_295)\n    tag_296:\n      pop\n        /* \"StakingBoxes.sol\":2709:2713  rate */\n      swap4\n        /* \"StakingBoxes.sol\":2280:2721  function getRewardRate(address _user) public view returns (uint256) {... */\n      swap3\n      pop\n      pop\n      pop\n      jump\t// out\n        /* \"@openzeppelin/contracts/access/Ownable.sol\":2543:2758   */\n    tag_122:\n        /* \"@openzeppelin/contracts/access/Ownable.sol\":1531:1544   */\n      tag_308\n        /* \"@openzeppelin/contracts/access/Ownable.sol\":1531:1542   */\n      tag_133\n        /* \"@openzeppelin/contracts/access/Ownable.sol\":1531:1544   */\n      jump\t// in\n    tag_308:\n      sub(shl(0xa0, 0x01), 0x01)\n        /* \"@openzeppelin/contracts/access/Ownable.sol\":2627:2649   */\n      dup2\n      and\n        /* \"@openzeppelin/contracts/access/Ownable.sol\":2623:2714   */\n      tag_310\n      jumpi\n        /* \"@openzeppelin/contracts/access/Ownable.sol\":2672:2703   */\n      mload(0x40)\n      shl(0xe0, 0x1e4fbdf7)\n      dup2\n      mstore\n        /* \"@openzeppelin/contracts/access/Ownable.sol\":2700:2701   */\n      0x00\n        /* \"@openzeppelin/contracts/access/Ownable.sol\":2672:2703   */\n      0x04\n      dup3\n      add\n        /* \"#utility.yul\":2452:2526   */\n      mstore\n        /* \"#utility.yul\":2425:2443   */\n      0x24\n      add\n        /* \"@openzeppelin/contracts/access/Ownable.sol\":2672:2703   */\n      tag_147\n        /* \"#utility.yul\":2306:2532   */\n      jump\n        /* \"@openzeppelin/contracts/access/Ownable.sol\":2623:2714   */\n    tag_310:\n        /* \"@openzeppelin/contracts/access/Ownable.sol\":2723:2751   */\n      tag_292\n        /* \"@openzeppelin/contracts/access/Ownable.sol\":2742:2750   */\n      dup2\n        /* \"@openzeppelin/contracts/access/Ownable.sol\":2723:2741   */\n      tag_247\n        /* \"@openzeppelin/contracts/access/Ownable.sol\":2723:2751   */\n      jump\t// in\n        /* \"StakingBoxes.sol\":8214:8451  function availableRewards(address _staker) public view returns (uint256) {... */\n    tag_125:\n      sub(shl(0xa0, 0x01), 0x01)\n        /* \"StakingBoxes.sol\":8322:8338  stakers[_staker] */\n      dup2\n      and\n        /* \"StakingBoxes.sol\":8278:8285  uint256 */\n      0x00\n        /* \"StakingBoxes.sol\":8322:8338  stakers[_staker] */\n      swap1\n      dup2\n      mstore\n        /* \"StakingBoxes.sol\":8322:8329  stakers */\n      0x05\n        /* \"StakingBoxes.sol\":8322:8338  stakers[_staker] */\n      0x20\n      mstore\n      0x40\n      dup2\n      keccak256\n        /* \"StakingBoxes.sol\":8278:8285  uint256 */\n      dup2\n        /* \"StakingBoxes.sol\":8367:8392  calculateRewards(_staker) */\n      tag_314\n        /* \"StakingBoxes.sol\":8330:8337  _staker */\n      dup5\n        /* \"StakingBoxes.sol\":8367:8383  calculateRewards */\n      tag_69\n        /* \"StakingBoxes.sol\":8367:8392  calculateRewards(_staker) */\n      jump\t// in\n    tag_314:\n        /* \"StakingBoxes.sol\":8349:8392  uint256 pending = calculateRewards(_staker) */\n      swap1\n      pop\n        /* \"StakingBoxes.sol\":8436:8443  pending */\n      dup1\n        /* \"StakingBoxes.sol\":8410:8416  staker */\n      dup3\n        /* \"StakingBoxes.sol\":8410:8433  staker.unclaimedRewards */\n      0x03\n      add\n      sload\n        /* \"StakingBoxes.sol\":8410:8443  staker.unclaimedRewards + pending */\n      tag_315\n      swap2\n      swap1\n      tag_168\n      jump\t// in\n    tag_315:\n        /* \"StakingBoxes.sol\":8403:8443  return staker.unclaimedRewards + pending */\n      swap5\n        /* \"StakingBoxes.sol\":8214:8451  function availableRewards(address _staker) public view returns (uint256) {... */\n      swap4\n      pop\n      pop\n      pop\n      pop\n      jump\t// out\n        /* \"@openzeppelin/contracts/access/Ownable.sol\":1796:1958   */\n    tag_133:\n        /* \"@openzeppelin/contracts/access/Ownable.sol\":1710:1716   */\n      and(sub(shl(0xa0, 0x01), 0x01), sload(0x01))\n        /* \"@openzeppelin/contracts/utils/Context.sol\":735:745   */\n      caller\n        /* \"@openzeppelin/contracts/access/Ownable.sol\":1855:1878   */\n      eq\n        /* \"@openzeppelin/contracts/access/Ownable.sol\":1851:1952   */\n      tag_175\n      jumpi\n        /* \"@openzeppelin/contracts/access/Ownable.sol\":1901:1941   */\n      mload(0x40)\n      shl(0xe0, 0x118cdaa7)\n      dup2\n      mstore\n        /* \"@openzeppelin/contracts/utils/Context.sol\":735:745   */\n      caller\n        /* \"@openzeppelin/contracts/access/Ownable.sol\":1901:1941   */\n      0x04\n      dup3\n      add\n        /* \"#utility.yul\":2452:2526   */\n      mstore\n        /* \"#utility.yul\":2425:2443   */\n      0x24\n      add\n        /* \"@openzeppelin/contracts/access/Ownable.sol\":1901:1941   */\n      tag_147\n        /* \"#utility.yul\":2306:2532   */\n      jump\n        /* \"@openzeppelin/contracts/utils/ReentrancyGuard.sol\":2575:2882   */\n    tag_142:\n        /* \"@openzeppelin/contracts/utils/ReentrancyGuard.sol\":1899:1900   */\n      0x02\n        /* \"@openzeppelin/contracts/utils/ReentrancyGuard.sol\":2702:2709   */\n      sload(0x00)\n        /* \"@openzeppelin/contracts/utils/ReentrancyGuard.sol\":2702:2720   */\n      sub\n        /* \"@openzeppelin/contracts/utils/ReentrancyGuard.sol\":2698:2784   */\n      tag_325\n      jumpi\n        /* \"@openzeppelin/contracts/utils/ReentrancyGuard.sol\":2743:2773   */\n      mload(0x40)\n      shl(0xe0, 0x3ee5aeb5)\n      dup2\n      mstore\n      0x04\n      add\n      mload(0x40)\n      dup1\n      swap2\n      sub\n      swap1\n      revert\n        /* \"@openzeppelin/contracts/utils/ReentrancyGuard.sol\":2698:2784   */\n    tag_325:\n        /* \"@openzeppelin/contracts/utils/ReentrancyGuard.sol\":1899:1900   */\n      0x02\n        /* \"@openzeppelin/contracts/utils/ReentrancyGuard.sol\":2858:2865   */\n      0x00\n        /* \"@openzeppelin/contracts/utils/ReentrancyGuard.sol\":2858:2875   */\n      sstore\n        /* \"@openzeppelin/contracts/utils/ReentrancyGuard.sol\":2575:2882   */\n      jump\t// out\n        /* \"StakingBoxes.sol\":2729:3041  function updateRewards(address _user) internal {... */\n    tag_145:\n      sub(shl(0xa0, 0x01), 0x01)\n        /* \"StakingBoxes.sol\":2811:2825  stakers[_user] */\n      dup2\n      and\n        /* \"StakingBoxes.sol\":2787:2808  Staker storage staker */\n      0x00\n        /* \"StakingBoxes.sol\":2811:2825  stakers[_user] */\n      swap1\n      dup2\n      mstore\n        /* \"StakingBoxes.sol\":2811:2818  stakers */\n      0x05\n        /* \"StakingBoxes.sol\":2811:2825  stakers[_user] */\n      0x20\n      mstore\n      0x40\n      swap1\n      keccak256\n        /* \"StakingBoxes.sol\":2840:2859  staker.amountStaked */\n      dup1\n      sload\n        /* \"StakingBoxes.sol\":2840:2863  staker.amountStaked > 0 */\n      iszero\n        /* \"StakingBoxes.sol\":2836:2982  if (staker.amountStaked > 0) {... */\n      tag_327\n      jumpi\n        /* \"StakingBoxes.sol\":2880:2895  uint256 rewards */\n      0x00\n        /* \"StakingBoxes.sol\":2898:2921  calculateRewards(_user) */\n      tag_328\n        /* \"StakingBoxes.sol\":2915:2920  _user */\n      dup4\n        /* \"StakingBoxes.sol\":2898:2914  calculateRewards */\n      tag_69\n        /* \"StakingBoxes.sol\":2898:2921  calculateRewards(_user) */\n      jump\t// in\n    tag_328:\n        /* \"StakingBoxes.sol\":2880:2921  uint256 rewards = calculateRewards(_user) */\n      swap1\n      pop\n        /* \"StakingBoxes.sol\":2963:2970  rewards */\n      dup1\n        /* \"StakingBoxes.sol\":2936:2942  staker */\n      dup3\n        /* \"StakingBoxes.sol\":2936:2959  staker.unclaimedRewards */\n      0x03\n      add\n      0x00\n        /* \"StakingBoxes.sol\":2936:2970  staker.unclaimedRewards += rewards */\n      dup3\n      dup3\n      sload\n      tag_329\n      swap2\n      swap1\n      tag_168\n      jump\t// in\n    tag_329:\n      swap1\n      swap2\n      sstore\n      pop\n      pop\n      pop\n        /* \"StakingBoxes.sol\":2836:2982  if (staker.amountStaked > 0) {... */\n    tag_327:\n        /* \"StakingBoxes.sol\":3018:3033  block.timestamp */\n      timestamp\n        /* \"StakingBoxes.sol\":2992:3015  staker.timeOfLastUpdate */\n      0x02\n      swap1\n      swap2\n      add\n        /* \"StakingBoxes.sol\":2992:3033  staker.timeOfLastUpdate = block.timestamp */\n      sstore\n      pop\n        /* \"StakingBoxes.sol\":2729:3041  function updateRewards(address _user) internal {... */\n      jump\t// out\n        /* \"StakingBoxes.sol\":5344:6178  function _emergencyUnstakeAll(address _user) internal {... */\n    tag_163:\n      sub(shl(0xa0, 0x01), 0x01)\n        /* \"StakingBoxes.sol\":5433:5447  stakers[_user] */\n      dup2\n      and\n        /* \"StakingBoxes.sol\":5409:5430  Staker storage staker */\n      0x00\n        /* \"StakingBoxes.sol\":5433:5447  stakers[_user] */\n      swap1\n      dup2\n      mstore\n        /* \"StakingBoxes.sol\":5433:5440  stakers */\n      0x05\n        /* \"StakingBoxes.sol\":5433:5447  stakers[_user] */\n      0x20\n      mstore\n      0x40\n      dup2\n      keccak256\n        /* \"StakingBoxes.sol\":5462:5481  staker.amountStaked */\n      dup1\n      sload\n        /* \"StakingBoxes.sol\":5433:5447  stakers[_user] */\n      swap1\n      swap2\n        /* \"StakingBoxes.sol\":5462:5486  staker.amountStaked == 0 */\n      sub\n        /* \"StakingBoxes.sol\":5458:5495  if (staker.amountStaked == 0) return; */\n      tag_331\n      jumpi\n        /* \"StakingBoxes.sol\":5488:5495  return; */\n      pop\n        /* \"StakingBoxes.sol\":5344:6178  function _emergencyUnstakeAll(address _user) internal {... */\n      pop\n      jump\t// out\n        /* \"StakingBoxes.sol\":5458:5495  if (staker.amountStaked == 0) return; */\n    tag_331:\n        /* \"StakingBoxes.sol\":5512:5521  uint256 i */\n      0x00\n        /* \"StakingBoxes.sol\":5507:5895  for (uint256 i = 0; i < staker.stakedTokens.length; i++) {... */\n    tag_332:\n        /* \"StakingBoxes.sol\":5531:5550  staker.stakedTokens */\n      0x01\n      dup3\n      add\n        /* \"StakingBoxes.sol\":5531:5557  staker.stakedTokens.length */\n      sload\n        /* \"StakingBoxes.sol\":5527:5557  i < staker.stakedTokens.length */\n      dup2\n      lt\n        /* \"StakingBoxes.sol\":5507:5895  for (uint256 i = 0; i < staker.stakedTokens.length; i++) {... */\n      iszero\n      tag_333\n      jumpi\n        /* \"StakingBoxes.sol\":5579:5594  uint256 tokenId */\n      0x00\n        /* \"StakingBoxes.sol\":5597:5603  staker */\n      dup3\n        /* \"StakingBoxes.sol\":5597:5616  staker.stakedTokens */\n      0x01\n      add\n        /* \"StakingBoxes.sol\":5617:5618  i */\n      dup3\n        /* \"StakingBoxes.sol\":5597:5619  staker.stakedTokens[i] */\n      dup2\n      sload\n      dup2\n      lt\n      tag_336\n      jumpi\n      tag_336\n      tag_192\n      jump\t// in\n    tag_336:\n      swap1\n      0x00\n      mstore\n      keccak256(0x00, 0x20)\n      swap1\n      0x02\n      mul\n      add\n        /* \"StakingBoxes.sol\":5597:5627  staker.stakedTokens[i].tokenId */\n      0x00\n      add\n      sload\n        /* \"StakingBoxes.sol\":5579:5627  uint256 tokenId = staker.stakedTokens[i].tokenId */\n      swap1\n      pop\n        /* \"StakingBoxes.sol\":5642:5656  uint256 amount */\n      0x00\n        /* \"StakingBoxes.sol\":5659:5665  staker */\n      dup4\n        /* \"StakingBoxes.sol\":5659:5678  staker.stakedTokens */\n      0x01\n      add\n        /* \"StakingBoxes.sol\":5679:5680  i */\n      dup4\n        /* \"StakingBoxes.sol\":5659:5681  staker.stakedTokens[i] */\n      dup2\n      sload\n      dup2\n      lt\n      tag_339\n      jumpi\n      tag_339\n      tag_192\n      jump\t// in\n    tag_339:\n      swap1\n      0x00\n      mstore\n      keccak256(0x00, 0x20)\n      swap1\n      0x02\n      mul\n      add\n        /* \"StakingBoxes.sol\":5659:5688  staker.stakedTokens[i].amount */\n      0x01\n      add\n      sload\n        /* \"StakingBoxes.sol\":5642:5688  uint256 amount = staker.stakedTokens[i].amount */\n      swap1\n      pop\n        /* \"StakingBoxes.sol\":5716:5717  0 */\n      0x00\n        /* \"StakingBoxes.sol\":5707:5713  amount */\n      dup2\n        /* \"StakingBoxes.sol\":5707:5717  amount > 0 */\n      gt\n        /* \"StakingBoxes.sol\":5703:5884  if (amount > 0) {... */\n      iszero\n      tag_341\n      jumpi\n        /* \"StakingBoxes.sol\":5738:5811  boxCollection.safeTransferFrom(address(this), _user, tokenId, amount, \"\") */\n      mload(0x40)\n      shl(0xe1, 0x79212195)\n      dup2\n      mstore\n        /* \"StakingBoxes.sol\":5777:5781  this */\n      address\n        /* \"StakingBoxes.sol\":5738:5811  boxCollection.safeTransferFrom(address(this), _user, tokenId, amount, \"\") */\n      0x04\n      dup3\n      add\n        /* \"#utility.yul\":10238:10272   */\n      mstore\n      sub(shl(0xa0, 0x01), 0x01)\n        /* \"#utility.yul\":10308:10323   */\n      dup7\n      dup2\n      and\n        /* \"#utility.yul\":10288:10306   */\n      0x24\n      dup4\n      add\n        /* \"#utility.yul\":10281:10324   */\n      mstore\n        /* \"#utility.yul\":10340:10358   */\n      0x44\n      dup3\n      add\n        /* \"#utility.yul\":10333:10367   */\n      dup5\n      swap1\n      mstore\n        /* \"#utility.yul\":10383:10401   */\n      0x64\n      dup3\n      add\n        /* \"#utility.yul\":10376:10410   */\n      dup4\n      swap1\n      mstore\n        /* \"#utility.yul\":10447:10450   */\n      0xa0\n        /* \"#utility.yul\":10426:10445   */\n      0x84\n      dup4\n      add\n        /* \"#utility.yul\":10419:10451   */\n      mstore\n      0x00\n        /* \"#utility.yul\":10467:10486   */\n      0xa4\n      dup4\n      add\n        /* \"#utility.yul\":10460:10490   */\n      mstore\n        /* \"StakingBoxes.sol\":5738:5751  boxCollection */\n      immutable(\"0x1572b593c53d839d80004aa4b8c51211864104f06ace9e22be9c4365b50655ea\")\n        /* \"StakingBoxes.sol\":5738:5768  boxCollection.safeTransferFrom */\n      and\n      swap1\n      0xf242432a\n      swap1\n        /* \"#utility.yul\":10507:10526   */\n      0xc4\n      add\n        /* \"StakingBoxes.sol\":5738:5811  boxCollection.safeTransferFrom(address(this), _user, tokenId, amount, \"\") */\n      0x00\n      mload(0x40)\n      dup1\n      dup4\n      sub\n      dup2\n      0x00\n      dup8\n      dup1\n      extcodesize\n      iszero\n      dup1\n      iszero\n      tag_343\n      jumpi\n      0x00\n      dup1\n      revert\n    tag_343:\n      pop\n      gas\n      call\n      iszero\n      dup1\n      iszero\n      tag_345\n      jumpi\n      returndatasize\n      0x00\n      dup1\n      returndatacopy\n      revert(0x00, returndatasize)\n    tag_345:\n      pop\n      pop\n        /* \"StakingBoxes.sol\":5835:5868  Withdrawn(_user, tokenId, amount) */\n      0x40\n      dup1\n      mload\n        /* \"#utility.yul\":6959:6984   */\n      dup6\n      dup2\n      mstore\n        /* \"#utility.yul\":7015:7017   */\n      0x20\n        /* \"#utility.yul\":7000:7018   */\n      dup2\n      add\n        /* \"#utility.yul\":6993:7027   */\n      dup6\n      swap1\n      mstore\n      sub(shl(0xa0, 0x01), 0x01)\n        /* \"StakingBoxes.sol\":5835:5868  Withdrawn(_user, tokenId, amount) */\n      dup10\n      and\n      swap4\n      pop\n      0x92ccf450a286a957af52509bc1c9939d1a6a481783e142e41e2499f0bb66ebc6\n      swap3\n      pop\n        /* \"#utility.yul\":6932:6950   */\n      add\n        /* \"StakingBoxes.sol\":5835:5868  Withdrawn(_user, tokenId, amount) */\n      mload(0x40)\n      dup1\n      swap2\n      sub\n      swap1\n      log2\n        /* \"StakingBoxes.sol\":5703:5884  if (amount > 0) {... */\n    tag_341:\n      pop\n      pop\n        /* \"StakingBoxes.sol\":5559:5562  i++ */\n      0x01\n      add\n        /* \"StakingBoxes.sol\":5507:5895  for (uint256 i = 0; i < staker.stakedTokens.length; i++) {... */\n      jump(tag_332)\n    tag_333:\n      pop\n        /* \"StakingBoxes.sol\":5915:5941  delete staker.stakedTokens */\n      tag_347\n        /* \"StakingBoxes.sol\":5922:5941  staker.stakedTokens */\n      0x01\n      dup3\n      add\n      0x00\n        /* \"StakingBoxes.sol\":5915:5941  delete staker.stakedTokens */\n      tag_348\n      jump\t// in\n    tag_347:\n        /* \"StakingBoxes.sol\":5974:5975  0 */\n      0x00\n        /* \"StakingBoxes.sol\":5952:5975  staker.amountStaked = 0 */\n      dup1\n      dup3\n      sstore\n        /* \"StakingBoxes.sol\":6117:6132  block.timestamp */\n      timestamp\n        /* \"StakingBoxes.sol\":6091:6114  staker.timeOfLastUpdate */\n      0x02\n      dup4\n      add\n        /* \"StakingBoxes.sol\":6091:6132  staker.timeOfLastUpdate = block.timestamp */\n      sstore\n        /* \"StakingBoxes.sol\":6143:6166  staker.unclaimedRewards */\n      0x03\n      swap1\n      swap2\n      add\n        /* \"StakingBoxes.sol\":6143:6170  staker.unclaimedRewards = 0 */\n      sstore\n      pop\n        /* \"StakingBoxes.sol\":5344:6178  function _emergencyUnstakeAll(address _user) internal {... */\n      jump\t// out\n        /* \"@openzeppelin/contracts/token/ERC20/utils/SafeERC20.sol\":1219:1379   */\n    tag_170:\n        /* \"@openzeppelin/contracts/token/ERC20/utils/SafeERC20.sol\":1328:1371   */\n      0x40\n      dup1\n      mload\n      sub(shl(0xa0, 0x01), 0x01)\n        /* \"#utility.yul\":11124:11179   */\n      dup5\n      and\n        /* \"@openzeppelin/contracts/token/ERC20/utils/SafeERC20.sol\":1328:1371   */\n      0x24\n      dup3\n      add\n        /* \"#utility.yul\":11106:11180   */\n      mstore\n        /* \"#utility.yul\":11196:11214   */\n      0x44\n      dup1\n      dup3\n      add\n        /* \"#utility.yul\":11189:11223   */\n      dup5\n      swap1\n      mstore\n        /* \"@openzeppelin/contracts/token/ERC20/utils/SafeERC20.sol\":1328:1371   */\n      dup3\n      mload\n      dup1\n      dup4\n      sub\n      swap1\n      swap2\n      add\n      dup2\n      mstore\n        /* \"#utility.yul\":11079:11097   */\n      0x64\n      swap1\n      swap2\n      add\n        /* \"@openzeppelin/contracts/token/ERC20/utils/SafeERC20.sol\":1328:1371   */\n      swap1\n      swap2\n      mstore\n      0x20\n      dup2\n      add\n      dup1\n      mload\n      0xffffffffffffffffffffffffffffffffffffffffffffffffffffffff\n      and\n      shl(0xe0, 0xa9059cbb)\n      or\n      swap1\n      mstore\n        /* \"@openzeppelin/contracts/token/ERC20/utils/SafeERC20.sol\":1301:1372   */\n      tag_350\n      swap1\n        /* \"@openzeppelin/contracts/token/ERC20/utils/SafeERC20.sol\":1321:1326   */\n      dup5\n      swap1\n        /* \"@openzeppelin/contracts/token/ERC20/utils/SafeERC20.sol\":1301:1320   */\n      tag_352\n        /* \"@openzeppelin/contracts/token/ERC20/utils/SafeERC20.sol\":1301:1372   */\n      jump\t// in\n    tag_350:\n        /* \"@openzeppelin/contracts/token/ERC20/utils/SafeERC20.sol\":1219:1379   */\n      pop\n      pop\n      pop\n      jump\t// out\n        /* \"@openzeppelin/contracts/access/Ownable.sol\":2912:3099   */\n    tag_247:\n        /* \"@openzeppelin/contracts/access/Ownable.sol\":3004:3010   */\n      0x01\n      dup1\n      sload\n      sub(shl(0xa0, 0x01), 0x01)\n        /* \"@openzeppelin/contracts/access/Ownable.sol\":3020:3037   */\n      dup4\n      dup2\n      and\n      0xffffffffffffffffffffffff0000000000000000000000000000000000000000\n      dup4\n      and\n      dup2\n      or\n      swap1\n      swap4\n      sstore\n        /* \"@openzeppelin/contracts/access/Ownable.sol\":3052:3092   */\n      mload(0x40)\n        /* \"@openzeppelin/contracts/access/Ownable.sol\":3004:3010   */\n      swap2\n      and\n      swap2\n        /* \"@openzeppelin/contracts/access/Ownable.sol\":3020:3037   */\n      swap1\n        /* \"@openzeppelin/contracts/access/Ownable.sol\":3004:3010   */\n      dup3\n      swap1\n        /* \"@openzeppelin/contracts/access/Ownable.sol\":3052:3092   */\n      0x8be0079c531659141344cd1fd0a4f28419497f9722a3daafe3b4186f6b6457e0\n      swap1\n        /* \"@openzeppelin/contracts/access/Ownable.sol\":2985:3001   */\n      0x00\n      swap1\n        /* \"@openzeppelin/contracts/access/Ownable.sol\":3052:3092   */\n      log3\n        /* \"@openzeppelin/contracts/access/Ownable.sol\":2975:3099   */\n      pop\n        /* \"@openzeppelin/contracts/access/Ownable.sol\":2912:3099   */\n      pop\n      jump\t// out\n        /* \"@openzeppelin/contracts/token/ERC20/utils/SafeERC20.sol\":8370:9090   */\n    tag_352:\n        /* \"@openzeppelin/contracts/token/ERC20/utils/SafeERC20.sol\":8450:8468   */\n      0x00\n        /* \"@openzeppelin/contracts/token/ERC20/utils/SafeERC20.sol\":8478:8497   */\n      dup1\n        /* \"@openzeppelin/contracts/token/ERC20/utils/SafeERC20.sol\":8616:8620   */\n      0x20\n        /* \"@openzeppelin/contracts/token/ERC20/utils/SafeERC20.sol\":8613:8614   */\n      0x00\n        /* \"@openzeppelin/contracts/token/ERC20/utils/SafeERC20.sol\":8606:8610   */\n      dup5\n        /* \"@openzeppelin/contracts/token/ERC20/utils/SafeERC20.sol\":8600:8611   */\n      mload\n        /* \"@openzeppelin/contracts/token/ERC20/utils/SafeERC20.sol\":8593:8597   */\n      0x20\n        /* \"@openzeppelin/contracts/token/ERC20/utils/SafeERC20.sol\":8587:8591   */\n      dup7\n        /* \"@openzeppelin/contracts/token/ERC20/utils/SafeERC20.sol\":8583:8598   */\n      add\n        /* \"@openzeppelin/contracts/token/ERC20/utils/SafeERC20.sol\":8580:8581   */\n      0x00\n        /* \"@openzeppelin/contracts/token/ERC20/utils/SafeERC20.sol\":8573:8578   */\n      dup9\n        /* \"@openzeppelin/contracts/token/ERC20/utils/SafeERC20.sol\":8566:8571   */\n      gas\n        /* \"@openzeppelin/contracts/token/ERC20/utils/SafeERC20.sol\":8561:8621   */\n      call\n        /* \"@openzeppelin/contracts/token/ERC20/utils/SafeERC20.sol\":8673:8680   */\n      dup1\n        /* \"@openzeppelin/contracts/token/ERC20/utils/SafeERC20.sol\":8663:8839   */\n      tag_357\n      jumpi\n        /* \"@openzeppelin/contracts/token/ERC20/utils/SafeERC20.sol\":8717:8721   */\n      0x40\n        /* \"@openzeppelin/contracts/token/ERC20/utils/SafeERC20.sol\":8711:8722   */\n      mload\n        /* \"@openzeppelin/contracts/token/ERC20/utils/SafeERC20.sol\":8762:8778   */\n      returndatasize\n        /* \"@openzeppelin/contracts/token/ERC20/utils/SafeERC20.sol\":8759:8760   */\n      0x00\n        /* \"@openzeppelin/contracts/token/ERC20/utils/SafeERC20.sol\":8754:8757   */\n      dup3\n        /* \"@openzeppelin/contracts/token/ERC20/utils/SafeERC20.sol\":8739:8779   */\n      returndatacopy\n        /* \"@openzeppelin/contracts/token/ERC20/utils/SafeERC20.sol\":8808:8824   */\n      returndatasize\n        /* \"@openzeppelin/contracts/token/ERC20/utils/SafeERC20.sol\":8803:8806   */\n      dup2\n        /* \"@openzeppelin/contracts/token/ERC20/utils/SafeERC20.sol\":8796:8825   */\n      revert\n        /* \"@openzeppelin/contracts/token/ERC20/utils/SafeERC20.sol\":8663:8839   */\n    tag_357:\n      pop\n      pop\n        /* \"@openzeppelin/contracts/token/ERC20/utils/SafeERC20.sol\":8916:8917   */\n      0x00\n        /* \"@openzeppelin/contracts/token/ERC20/utils/SafeERC20.sol\":8910:8918   */\n      mload\n        /* \"@openzeppelin/contracts/token/ERC20/utils/SafeERC20.sol\":8866:8882   */\n      returndatasize\n      swap2\n      pop\n        /* \"@openzeppelin/contracts/token/ERC20/utils/SafeERC20.sol\":8942:8957   */\n      dup2\n      iszero\n        /* \"@openzeppelin/contracts/token/ERC20/utils/SafeERC20.sol\":8942:9010   */\n      tag_358\n      jumpi\n        /* \"@openzeppelin/contracts/token/ERC20/utils/SafeERC20.sol\":8994:9005   */\n      dup1\n        /* \"@openzeppelin/contracts/token/ERC20/utils/SafeERC20.sol\":9009:9010   */\n      0x01\n        /* \"@openzeppelin/contracts/token/ERC20/utils/SafeERC20.sol\":8994:9010   */\n      eq\n      iszero\n        /* \"@openzeppelin/contracts/token/ERC20/utils/SafeERC20.sol\":8942:9010   */\n      jump(tag_359)\n    tag_358:\n      sub(shl(0xa0, 0x01), 0x01)\n        /* \"@openzeppelin/contracts/token/ERC20/utils/SafeERC20.sol\":8960:8986   */\n      dup5\n      and\n      extcodesize\n        /* \"@openzeppelin/contracts/token/ERC20/utils/SafeERC20.sol\":8960:8991   */\n      iszero\n        /* \"@openzeppelin/contracts/token/ERC20/utils/SafeERC20.sol\":8942:9010   */\n    tag_359:\n        /* \"@openzeppelin/contracts/token/ERC20/utils/SafeERC20.sol\":8938:9084   */\n      iszero\n      tag_360\n      jumpi\n        /* \"@openzeppelin/contracts/token/ERC20/utils/SafeERC20.sol\":9033:9073   */\n      mload(0x40)\n      shl(0xe0, 0x5274afe7)\n      dup2\n      mstore\n      sub(shl(0xa0, 0x01), 0x01)\n        /* \"#utility.yul\":2470:2525   */\n      dup6\n      and\n        /* \"@openzeppelin/contracts/token/ERC20/utils/SafeERC20.sol\":9033:9073   */\n      0x04\n      dup3\n      add\n        /* \"#utility.yul\":2452:2526   */\n      mstore\n        /* \"#utility.yul\":2425:2443   */\n      0x24\n      add\n        /* \"@openzeppelin/contracts/token/ERC20/utils/SafeERC20.sol\":9033:9073   */\n      tag_147\n        /* \"#utility.yul\":2306:2532   */\n      jump\n        /* \"@openzeppelin/contracts/token/ERC20/utils/SafeERC20.sol\":8938:9084   */\n    tag_360:\n        /* \"@openzeppelin/contracts/token/ERC20/utils/SafeERC20.sol\":8440:9090   */\n      pop\n      pop\n        /* \"@openzeppelin/contracts/token/ERC20/utils/SafeERC20.sol\":8370:9090   */\n      pop\n      pop\n      jump\t// out\n    tag_348:\n      pop\n      dup1\n      sload\n      0x00\n      dup3\n      sstore\n      0x02\n      mul\n      swap1\n      0x00\n      mstore\n      keccak256(0x00, 0x20)\n      swap1\n      dup2\n      add\n      swap1\n      tag_292\n      swap2\n      swap1\n    tag_365:\n      dup1\n      dup3\n      gt\n      iszero\n      tag_366\n      jumpi\n      0x00\n      dup1\n      dup3\n      sstore\n      0x01\n      dup3\n      add\n      sstore\n      0x02\n      add\n      jump(tag_365)\n    tag_366:\n      pop\n      swap1\n      jump\t// out\n        /* \"#utility.yul\":14:300   */\n    tag_36:\n        /* \"#utility.yul\":72:78   */\n      0x00\n        /* \"#utility.yul\":125:127   */\n      0x20\n        /* \"#utility.yul\":113:122   */\n      dup3\n        /* \"#utility.yul\":104:111   */\n      dup5\n        /* \"#utility.yul\":100:123   */\n      sub\n        /* \"#utility.yul\":96:128   */\n      slt\n        /* \"#utility.yul\":93:145   */\n      iszero\n      tag_375\n      jumpi\n        /* \"#utility.yul\":141:142   */\n      0x00\n        /* \"#utility.yul\":138:139   */\n      dup1\n        /* \"#utility.yul\":131:143   */\n      revert\n        /* \"#utility.yul\":93:145   */\n    tag_375:\n        /* \"#utility.yul\":167:190   */\n      dup2\n      calldataload\n      not(sub(shl(0xe0, 0x01), 0x01))\n        /* \"#utility.yul\":219:251   */\n      dup2\n      and\n        /* \"#utility.yul\":209:252   */\n      dup2\n      eq\n        /* \"#utility.yul\":199:270   */\n      tag_376\n      jumpi\n        /* \"#utility.yul\":266:267   */\n      0x00\n        /* \"#utility.yul\":263:264   */\n      dup1\n        /* \"#utility.yul\":256:268   */\n      revert\n        /* \"#utility.yul\":199:270   */\n    tag_376:\n        /* \"#utility.yul\":289:294   */\n      swap4\n        /* \"#utility.yul\":14:300   */\n      swap3\n      pop\n      pop\n      pop\n      jump\t// out\n        /* \"#utility.yul\":497:677   */\n    tag_42:\n        /* \"#utility.yul\":556:562   */\n      0x00\n        /* \"#utility.yul\":609:611   */\n      0x20\n        /* \"#utility.yul\":597:606   */\n      dup3\n        /* \"#utility.yul\":588:595   */\n      dup5\n        /* \"#utility.yul\":584:607   */\n      sub\n        /* \"#utility.yul\":580:612   */\n      slt\n        /* \"#utility.yul\":577:629   */\n      iszero\n      tag_379\n      jumpi\n        /* \"#utility.yul\":625:626   */\n      0x00\n        /* \"#utility.yul\":622:623   */\n      dup1\n        /* \"#utility.yul\":615:627   */\n      revert\n        /* \"#utility.yul\":577:629   */\n    tag_379:\n      pop\n        /* \"#utility.yul\":648:671   */\n      calldataload\n      swap2\n        /* \"#utility.yul\":497:677   */\n      swap1\n      pop\n      jump\t// out\n        /* \"#utility.yul\":864:1112   */\n    tag_48:\n        /* \"#utility.yul\":932:938   */\n      0x00\n        /* \"#utility.yul\":940:946   */\n      dup1\n        /* \"#utility.yul\":993:995   */\n      0x40\n        /* \"#utility.yul\":981:990   */\n      dup4\n        /* \"#utility.yul\":972:979   */\n      dup6\n        /* \"#utility.yul\":968:991   */\n      sub\n        /* \"#utility.yul\":964:996   */\n      slt\n        /* \"#utility.yul\":961:1013   */\n      iszero\n      tag_382\n      jumpi\n        /* \"#utility.yul\":1009:1010   */\n      0x00\n        /* \"#utility.yul\":1006:1007   */\n      dup1\n        /* \"#utility.yul\":999:1011   */\n      revert\n        /* \"#utility.yul\":961:1013   */\n    tag_382:\n      pop\n      pop\n        /* \"#utility.yul\":1032:1055   */\n      dup1\n      calldataload\n      swap3\n        /* \"#utility.yul\":1102:1104   */\n      0x20\n        /* \"#utility.yul\":1087:1105   */\n      swap1\n      swap2\n      add\n        /* \"#utility.yul\":1074:1106   */\n      calldataload\n      swap2\n      pop\n        /* \"#utility.yul\":864:1112   */\n      jump\t// out\n        /* \"#utility.yul\":1117:1313   */\n    tag_367:\n        /* \"#utility.yul\":1185:1205   */\n      dup1\n      calldataload\n      sub(shl(0xa0, 0x01), 0x01)\n        /* \"#utility.yul\":1234:1288   */\n      dup2\n      and\n        /* \"#utility.yul\":1224:1289   */\n      dup2\n      eq\n        /* \"#utility.yul\":1214:1307   */\n      tag_384\n      jumpi\n        /* \"#utility.yul\":1303:1304   */\n      0x00\n        /* \"#utility.yul\":1300:1301   */\n      dup1\n        /* \"#utility.yul\":1293:1305   */\n      revert\n        /* \"#utility.yul\":1214:1307   */\n    tag_384:\n        /* \"#utility.yul\":1117:1313   */\n      swap2\n      swap1\n      pop\n      jump\t// out\n        /* \"#utility.yul\":1318:1504   */\n    tag_63:\n        /* \"#utility.yul\":1377:1383   */\n      0x00\n        /* \"#utility.yul\":1430:1432   */\n      0x20\n        /* \"#utility.yul\":1418:1427   */\n      dup3\n        /* \"#utility.yul\":1409:1416   */\n      dup5\n        /* \"#utility.yul\":1405:1428   */\n      sub\n        /* \"#utility.yul\":1401:1433   */\n      slt\n        /* \"#utility.yul\":1398:1450   */\n      iszero\n      tag_386\n      jumpi\n        /* \"#utility.yul\":1446:1447   */\n      0x00\n        /* \"#utility.yul\":1443:1444   */\n      dup1\n        /* \"#utility.yul\":1436:1448   */\n      revert\n        /* \"#utility.yul\":1398:1450   */\n    tag_386:\n        /* \"#utility.yul\":1469:1498   */\n      tag_376\n        /* \"#utility.yul\":1488:1497   */\n      dup3\n        /* \"#utility.yul\":1469:1498   */\n      tag_367\n      jump\t// in\n        /* \"#utility.yul\":1509:2301   */\n    tag_66:\n        /* \"#utility.yul\":1734:1736   */\n      0x20\n        /* \"#utility.yul\":1786:1807   */\n      dup1\n      dup3\n      mstore\n        /* \"#utility.yul\":1856:1869   */\n      dup3\n      mload\n        /* \"#utility.yul\":1759:1777   */\n      dup3\n      dup3\n      add\n        /* \"#utility.yul\":1878:1900   */\n      dup2\n      swap1\n      mstore\n        /* \"#utility.yul\":1705:1709   */\n      0x00\n      swap2\n        /* \"#utility.yul\":1734:1736   */\n      swap1\n        /* \"#utility.yul\":1919:1921   */\n      0x40\n      swap1\n        /* \"#utility.yul\":1937:1955   */\n      dup2\n      dup6\n      add\n      swap1\n        /* \"#utility.yul\":1978:1993   */\n      dup7\n      dup5\n      add\n        /* \"#utility.yul\":1705:1709   */\n      dup6\n        /* \"#utility.yul\":2021:2275   */\n    tag_389:\n        /* \"#utility.yul\":2035:2041   */\n      dup3\n        /* \"#utility.yul\":2032:2033   */\n      dup2\n        /* \"#utility.yul\":2029:2042   */\n      lt\n        /* \"#utility.yul\":2021:2275   */\n      iszero\n      tag_391\n      jumpi\n        /* \"#utility.yul\":2094:2107   */\n      dup2\n      mload\n        /* \"#utility.yul\":2132:2141   */\n      dup1\n      mload\n        /* \"#utility.yul\":2120:2142   */\n      dup6\n      mstore\n        /* \"#utility.yul\":2182:2193   */\n      dup7\n      add\n        /* \"#utility.yul\":2176:2194   */\n      mload\n        /* \"#utility.yul\":2162:2174   */\n      dup7\n      dup6\n      add\n        /* \"#utility.yul\":2155:2195   */\n      mstore\n        /* \"#utility.yul\":2215:2227   */\n      swap3\n      dup5\n      add\n      swap3\n        /* \"#utility.yul\":2250:2265   */\n      swap1\n      dup6\n      add\n      swap1\n        /* \"#utility.yul\":2057:2058   */\n      0x01\n        /* \"#utility.yul\":2050:2059   */\n      add\n        /* \"#utility.yul\":2021:2275   */\n      jump(tag_389)\n    tag_391:\n      pop\n        /* \"#utility.yul\":2292:2295   */\n      swap2\n      swap8\n        /* \"#utility.yul\":1509:2301   */\n      swap7\n      pop\n      pop\n      pop\n      pop\n      pop\n      pop\n      pop\n      jump\t// out\n        /* \"#utility.yul\":3109:3236   */\n    tag_368:\n        /* \"#utility.yul\":3170:3180   */\n      0x4e487b71\n        /* \"#utility.yul\":3165:3168   */\n      0xe0\n        /* \"#utility.yul\":3161:3181   */\n      shl\n        /* \"#utility.yul\":3158:3159   */\n      0x00\n        /* \"#utility.yul\":3151:3182   */\n      mstore\n        /* \"#utility.yul\":3201:3205   */\n      0x41\n        /* \"#utility.yul\":3198:3199   */\n      0x04\n        /* \"#utility.yul\":3191:3206   */\n      mstore\n        /* \"#utility.yul\":3225:3229   */\n      0x24\n        /* \"#utility.yul\":3222:3223   */\n      0x00\n        /* \"#utility.yul\":3215:3230   */\n      revert\n        /* \"#utility.yul\":3241:3516   */\n    tag_369:\n        /* \"#utility.yul\":3312:3314   */\n      0x40\n        /* \"#utility.yul\":3306:3315   */\n      mload\n        /* \"#utility.yul\":3377:3379   */\n      0x1f\n        /* \"#utility.yul\":3358:3371   */\n      dup3\n      add\n      not(0x1f)\n        /* \"#utility.yul\":3354:3381   */\n      and\n        /* \"#utility.yul\":3342:3382   */\n      dup2\n      add\n        /* \"#utility.yul\":3412:3430   */\n      0xffffffffffffffff\n        /* \"#utility.yul\":3397:3431   */\n      dup2\n      gt\n        /* \"#utility.yul\":3433:3455   */\n      dup3\n      dup3\n      lt\n        /* \"#utility.yul\":3394:3456   */\n      or\n        /* \"#utility.yul\":3391:3479   */\n      iszero\n      tag_398\n      jumpi\n        /* \"#utility.yul\":3459:3477   */\n      tag_398\n      tag_368\n      jump\t// in\n    tag_398:\n        /* \"#utility.yul\":3495:3497   */\n      0x40\n        /* \"#utility.yul\":3488:3510   */\n      mstore\n        /* \"#utility.yul\":3241:3516   */\n      swap2\n      swap1\n      pop\n      jump\t// out\n        /* \"#utility.yul\":3521:4233   */\n    tag_370:\n        /* \"#utility.yul\":3575:3580   */\n      0x00\n        /* \"#utility.yul\":3628:3631   */\n      dup3\n        /* \"#utility.yul\":3621:3625   */\n      0x1f\n        /* \"#utility.yul\":3613:3619   */\n      dup4\n        /* \"#utility.yul\":3609:3626   */\n      add\n        /* \"#utility.yul\":3605:3632   */\n      slt\n        /* \"#utility.yul\":3595:3650   */\n      tag_400\n      jumpi\n        /* \"#utility.yul\":3646:3647   */\n      0x00\n        /* \"#utility.yul\":3643:3644   */\n      dup1\n        /* \"#utility.yul\":3636:3648   */\n      revert\n        /* \"#utility.yul\":3595:3650   */\n    tag_400:\n        /* \"#utility.yul\":3682:3688   */\n      dup2\n        /* \"#utility.yul\":3669:3689   */\n      calldataload\n        /* \"#utility.yul\":3708:3712   */\n      0x20\n        /* \"#utility.yul\":3731:3749   */\n      0xffffffffffffffff\n        /* \"#utility.yul\":3727:3729   */\n      dup3\n        /* \"#utility.yul\":3724:3750   */\n      gt\n        /* \"#utility.yul\":3721:3773   */\n      iszero\n      tag_402\n      jumpi\n        /* \"#utility.yul\":3753:3771   */\n      tag_402\n      tag_368\n      jump\t// in\n    tag_402:\n        /* \"#utility.yul\":3799:3801   */\n      dup2\n        /* \"#utility.yul\":3796:3797   */\n      0x05\n        /* \"#utility.yul\":3792:3802   */\n      shl\n        /* \"#utility.yul\":3822:3850   */\n      tag_403\n        /* \"#utility.yul\":3846:3848   */\n      dup3\n        /* \"#utility.yul\":3842:3844   */\n      dup3\n        /* \"#utility.yul\":3838:3849   */\n      add\n        /* \"#utility.yul\":3822:3850   */\n      tag_369\n      jump\t// in\n    tag_403:\n        /* \"#utility.yul\":3884:3899   */\n      swap3\n      dup4\n      mstore\n        /* \"#utility.yul\":3954:3969   */\n      dup5\n      dup2\n      add\n        /* \"#utility.yul\":3950:3974   */\n      dup3\n      add\n      swap3\n        /* \"#utility.yul\":3915:3927   */\n      dup3\n      dup2\n      add\n      swap1\n        /* \"#utility.yul\":3986:4001   */\n      dup8\n      dup6\n      gt\n        /* \"#utility.yul\":3983:4018   */\n      iszero\n      tag_404\n      jumpi\n        /* \"#utility.yul\":4014:4015   */\n      0x00\n        /* \"#utility.yul\":4011:4012   */\n      dup1\n        /* \"#utility.yul\":4004:4016   */\n      revert\n        /* \"#utility.yul\":3983:4018   */\n    tag_404:\n        /* \"#utility.yul\":4050:4052   */\n      dup4\n        /* \"#utility.yul\":4042:4048   */\n      dup8\n        /* \"#utility.yul\":4038:4053   */\n      add\n        /* \"#utility.yul\":4027:4053   */\n      swap3\n      pop\n        /* \"#utility.yul\":4062:4204   */\n    tag_405:\n        /* \"#utility.yul\":4078:4084   */\n      dup5\n        /* \"#utility.yul\":4073:4076   */\n      dup4\n        /* \"#utility.yul\":4070:4085   */\n      lt\n        /* \"#utility.yul\":4062:4204   */\n      iszero\n      tag_407\n      jumpi\n        /* \"#utility.yul\":4144:4161   */\n      dup3\n      calldataload\n        /* \"#utility.yul\":4132:4162   */\n      dup3\n      mstore\n        /* \"#utility.yul\":4095:4107   */\n      swap2\n      dup4\n      add\n      swap2\n        /* \"#utility.yul\":4182:4194   */\n      swap1\n      dup4\n      add\n      swap1\n        /* \"#utility.yul\":4062:4204   */\n      jump(tag_405)\n    tag_407:\n        /* \"#utility.yul\":4222:4227   */\n      swap8\n        /* \"#utility.yul\":3521:4233   */\n      swap7\n      pop\n      pop\n      pop\n      pop\n      pop\n      pop\n      pop\n      jump\t// out\n        /* \"#utility.yul\":4238:4768   */\n    tag_371:\n        /* \"#utility.yul\":4280:4285   */\n      0x00\n        /* \"#utility.yul\":4333:4336   */\n      dup3\n        /* \"#utility.yul\":4326:4330   */\n      0x1f\n        /* \"#utility.yul\":4318:4324   */\n      dup4\n        /* \"#utility.yul\":4314:4331   */\n      add\n        /* \"#utility.yul\":4310:4337   */\n      slt\n        /* \"#utility.yul\":4300:4355   */\n      tag_409\n      jumpi\n        /* \"#utility.yul\":4351:4352   */\n      0x00\n        /* \"#utility.yul\":4348:4349   */\n      dup1\n        /* \"#utility.yul\":4341:4353   */\n      revert\n        /* \"#utility.yul\":4300:4355   */\n    tag_409:\n        /* \"#utility.yul\":4387:4393   */\n      dup2\n        /* \"#utility.yul\":4374:4394   */\n      calldataload\n        /* \"#utility.yul\":4413:4431   */\n      0xffffffffffffffff\n        /* \"#utility.yul\":4409:4411   */\n      dup2\n        /* \"#utility.yul\":4406:4432   */\n      gt\n        /* \"#utility.yul\":4403:4455   */\n      iszero\n      tag_411\n      jumpi\n        /* \"#utility.yul\":4435:4453   */\n      tag_411\n      tag_368\n      jump\t// in\n    tag_411:\n        /* \"#utility.yul\":4479:4534   */\n      tag_412\n        /* \"#utility.yul\":4522:4524   */\n      0x1f\n        /* \"#utility.yul\":4503:4516   */\n      dup3\n      add\n      not(0x1f)\n        /* \"#utility.yul\":4499:4526   */\n      and\n        /* \"#utility.yul\":4528:4532   */\n      0x20\n        /* \"#utility.yul\":4495:4533   */\n      add\n        /* \"#utility.yul\":4479:4534   */\n      tag_369\n      jump\t// in\n    tag_412:\n        /* \"#utility.yul\":4559:4561   */\n      dup2\n        /* \"#utility.yul\":4550:4557   */\n      dup2\n        /* \"#utility.yul\":4543:4562   */\n      mstore\n        /* \"#utility.yul\":4605:4608   */\n      dup5\n        /* \"#utility.yul\":4598:4602   */\n      0x20\n        /* \"#utility.yul\":4593:4595   */\n      dup4\n        /* \"#utility.yul\":4585:4591   */\n      dup7\n        /* \"#utility.yul\":4581:4596   */\n      add\n        /* \"#utility.yul\":4577:4603   */\n      add\n        /* \"#utility.yul\":4574:4609   */\n      gt\n        /* \"#utility.yul\":4571:4626   */\n      iszero\n      tag_413\n      jumpi\n        /* \"#utility.yul\":4622:4623   */\n      0x00\n        /* \"#utility.yul\":4619:4620   */\n      dup1\n        /* \"#utility.yul\":4612:4624   */\n      revert\n        /* \"#utility.yul\":4571:4626   */\n    tag_413:\n        /* \"#utility.yul\":4687:4689   */\n      dup2\n        /* \"#utility.yul\":4680:4684   */\n      0x20\n        /* \"#utility.yul\":4672:4678   */\n      dup6\n        /* \"#utility.yul\":4668:4685   */\n      add\n        /* \"#utility.yul\":4661:4665   */\n      0x20\n        /* \"#utility.yul\":4652:4659   */\n      dup4\n        /* \"#utility.yul\":4648:4666   */\n      add\n        /* \"#utility.yul\":4635:4690   */\n      calldatacopy\n        /* \"#utility.yul\":4735:4736   */\n      0x00\n        /* \"#utility.yul\":4710:4726   */\n      swap2\n      dup2\n      add\n        /* \"#utility.yul\":4728:4732   */\n      0x20\n        /* \"#utility.yul\":4706:4733   */\n      add\n        /* \"#utility.yul\":4699:4737   */\n      swap2\n      swap1\n      swap2\n      mstore\n        /* \"#utility.yul\":4714:4721   */\n      swap4\n        /* \"#utility.yul\":4238:4768   */\n      swap3\n      pop\n      pop\n      pop\n      jump\t// out\n        /* \"#utility.yul\":4773:5716   */\n    tag_97:\n        /* \"#utility.yul\":4927:4933   */\n      0x00\n        /* \"#utility.yul\":4935:4941   */\n      dup1\n        /* \"#utility.yul\":4943:4949   */\n      0x00\n        /* \"#utility.yul\":4951:4957   */\n      dup1\n        /* \"#utility.yul\":4959:4965   */\n      0x00\n        /* \"#utility.yul\":5012:5015   */\n      0xa0\n        /* \"#utility.yul\":5000:5009   */\n      dup7\n        /* \"#utility.yul\":4991:4998   */\n      dup9\n        /* \"#utility.yul\":4987:5010   */\n      sub\n        /* \"#utility.yul\":4983:5016   */\n      slt\n        /* \"#utility.yul\":4980:5033   */\n      iszero\n      tag_415\n      jumpi\n        /* \"#utility.yul\":5029:5030   */\n      0x00\n        /* \"#utility.yul\":5026:5027   */\n      dup1\n        /* \"#utility.yul\":5019:5031   */\n      revert\n        /* \"#utility.yul\":4980:5033   */\n    tag_415:\n        /* \"#utility.yul\":5052:5081   */\n      tag_416\n        /* \"#utility.yul\":5071:5080   */\n      dup7\n        /* \"#utility.yul\":5052:5081   */\n      tag_367\n      jump\t// in\n    tag_416:\n        /* \"#utility.yul\":5042:5081   */\n      swap5\n      pop\n        /* \"#utility.yul\":5100:5138   */\n      tag_417\n        /* \"#utility.yul\":5134:5136   */\n      0x20\n        /* \"#utility.yul\":5123:5132   */\n      dup8\n        /* \"#utility.yul\":5119:5137   */\n      add\n        /* \"#utility.yul\":5100:5138   */\n      tag_367\n      jump\t// in\n    tag_417:\n        /* \"#utility.yul\":5090:5138   */\n      swap4\n      pop\n        /* \"#utility.yul\":5189:5191   */\n      0x40\n        /* \"#utility.yul\":5178:5187   */\n      dup7\n        /* \"#utility.yul\":5174:5192   */\n      add\n        /* \"#utility.yul\":5161:5193   */\n      calldataload\n        /* \"#utility.yul\":5212:5230   */\n      0xffffffffffffffff\n        /* \"#utility.yul\":5253:5255   */\n      dup1\n        /* \"#utility.yul\":5245:5251   */\n      dup3\n        /* \"#utility.yul\":5242:5256   */\n      gt\n        /* \"#utility.yul\":5239:5273   */\n      iszero\n      tag_418\n      jumpi\n        /* \"#utility.yul\":5269:5270   */\n      0x00\n        /* \"#utility.yul\":5266:5267   */\n      dup1\n        /* \"#utility.yul\":5259:5271   */\n      revert\n        /* \"#utility.yul\":5239:5273   */\n    tag_418:\n        /* \"#utility.yul\":5292:5353   */\n      tag_419\n        /* \"#utility.yul\":5345:5352   */\n      dup10\n        /* \"#utility.yul\":5336:5342   */\n      dup4\n        /* \"#utility.yul\":5325:5334   */\n      dup11\n        /* \"#utility.yul\":5321:5343   */\n      add\n        /* \"#utility.yul\":5292:5353   */\n      tag_370\n      jump\t// in\n    tag_419:\n        /* \"#utility.yul\":5282:5353   */\n      swap5\n      pop\n        /* \"#utility.yul\":5406:5408   */\n      0x60\n        /* \"#utility.yul\":5395:5404   */\n      dup9\n        /* \"#utility.yul\":5391:5409   */\n      add\n        /* \"#utility.yul\":5378:5410   */\n      calldataload\n        /* \"#utility.yul\":5362:5410   */\n      swap2\n      pop\n        /* \"#utility.yul\":5435:5437   */\n      dup1\n        /* \"#utility.yul\":5425:5433   */\n      dup3\n        /* \"#utility.yul\":5422:5438   */\n      gt\n        /* \"#utility.yul\":5419:5455   */\n      iszero\n      tag_420\n      jumpi\n        /* \"#utility.yul\":5451:5452   */\n      0x00\n        /* \"#utility.yul\":5448:5449   */\n      dup1\n        /* \"#utility.yul\":5441:5453   */\n      revert\n        /* \"#utility.yul\":5419:5455   */\n    tag_420:\n        /* \"#utility.yul\":5474:5537   */\n      tag_421\n        /* \"#utility.yul\":5529:5536   */\n      dup10\n        /* \"#utility.yul\":5518:5526   */\n      dup4\n        /* \"#utility.yul\":5507:5516   */\n      dup11\n        /* \"#utility.yul\":5503:5527   */\n      add\n        /* \"#utility.yul\":5474:5537   */\n      tag_370\n      jump\t// in\n    tag_421:\n        /* \"#utility.yul\":5464:5537   */\n      swap4\n      pop\n        /* \"#utility.yul\":5590:5593   */\n      0x80\n        /* \"#utility.yul\":5579:5588   */\n      dup9\n        /* \"#utility.yul\":5575:5594   */\n      add\n        /* \"#utility.yul\":5562:5595   */\n      calldataload\n        /* \"#utility.yul\":5546:5595   */\n      swap2\n      pop\n        /* \"#utility.yul\":5620:5622   */\n      dup1\n        /* \"#utility.yul\":5610:5618   */\n      dup3\n        /* \"#utility.yul\":5607:5623   */\n      gt\n        /* \"#utility.yul\":5604:5640   */\n      iszero\n      tag_422\n      jumpi\n        /* \"#utility.yul\":5636:5637   */\n      0x00\n        /* \"#utility.yul\":5633:5634   */\n      dup1\n        /* \"#utility.yul\":5626:5638   */\n      revert\n        /* \"#utility.yul\":5604:5640   */\n    tag_422:\n      pop\n        /* \"#utility.yul\":5659:5710   */\n      tag_423\n        /* \"#utility.yul\":5702:5709   */\n      dup9\n        /* \"#utility.yul\":5691:5699   */\n      dup3\n        /* \"#utility.yul\":5680:5689   */\n      dup10\n        /* \"#utility.yul\":5676:5700   */\n      add\n        /* \"#utility.yul\":5659:5710   */\n      tag_371\n      jump\t// in\n    tag_423:\n        /* \"#utility.yul\":5649:5710   */\n      swap2\n      pop\n      pop\n        /* \"#utility.yul\":4773:5716   */\n      swap3\n      swap6\n      pop\n      swap3\n      swap6\n      swap1\n      swap4\n      pop\n      jump\t// out\n        /* \"#utility.yul\":6174:6780   */\n    tag_117:\n        /* \"#utility.yul\":6278:6284   */\n      0x00\n        /* \"#utility.yul\":6286:6292   */\n      dup1\n        /* \"#utility.yul\":6294:6300   */\n      0x00\n        /* \"#utility.yul\":6302:6308   */\n      dup1\n        /* \"#utility.yul\":6310:6316   */\n      0x00\n        /* \"#utility.yul\":6363:6366   */\n      0xa0\n        /* \"#utility.yul\":6351:6360   */\n      dup7\n        /* \"#utility.yul\":6342:6349   */\n      dup9\n        /* \"#utility.yul\":6338:6361   */\n      sub\n        /* \"#utility.yul\":6334:6367   */\n      slt\n        /* \"#utility.yul\":6331:6384   */\n      iszero\n      tag_427\n      jumpi\n        /* \"#utility.yul\":6380:6381   */\n      0x00\n        /* \"#utility.yul\":6377:6378   */\n      dup1\n        /* \"#utility.yul\":6370:6382   */\n      revert\n        /* \"#utility.yul\":6331:6384   */\n    tag_427:\n        /* \"#utility.yul\":6403:6432   */\n      tag_428\n        /* \"#utility.yul\":6422:6431   */\n      dup7\n        /* \"#utility.yul\":6403:6432   */\n      tag_367\n      jump\t// in\n    tag_428:\n        /* \"#utility.yul\":6393:6432   */\n      swap5\n      pop\n        /* \"#utility.yul\":6451:6489   */\n      tag_429\n        /* \"#utility.yul\":6485:6487   */\n      0x20\n        /* \"#utility.yul\":6474:6483   */\n      dup8\n        /* \"#utility.yul\":6470:6488   */\n      add\n        /* \"#utility.yul\":6451:6489   */\n      tag_367\n      jump\t// in\n    tag_429:\n        /* \"#utility.yul\":6441:6489   */\n      swap4\n      pop\n        /* \"#utility.yul\":6536:6538   */\n      0x40\n        /* \"#utility.yul\":6525:6534   */\n      dup7\n        /* \"#utility.yul\":6521:6539   */\n      add\n        /* \"#utility.yul\":6508:6540   */\n      calldataload\n        /* \"#utility.yul\":6498:6540   */\n      swap3\n      pop\n        /* \"#utility.yul\":6587:6589   */\n      0x60\n        /* \"#utility.yul\":6576:6585   */\n      dup7\n        /* \"#utility.yul\":6572:6590   */\n      add\n        /* \"#utility.yul\":6559:6591   */\n      calldataload\n        /* \"#utility.yul\":6549:6591   */\n      swap2\n      pop\n        /* \"#utility.yul\":6642:6645   */\n      0x80\n        /* \"#utility.yul\":6631:6640   */\n      dup7\n        /* \"#utility.yul\":6627:6646   */\n      add\n        /* \"#utility.yul\":6614:6647   */\n      calldataload\n        /* \"#utility.yul\":6670:6688   */\n      0xffffffffffffffff\n        /* \"#utility.yul\":6662:6668   */\n      dup2\n        /* \"#utility.yul\":6659:6689   */\n      gt\n        /* \"#utility.yul\":6656:6706   */\n      iszero\n      tag_430\n      jumpi\n        /* \"#utility.yul\":6702:6703   */\n      0x00\n        /* \"#utility.yul\":6699:6700   */\n      dup1\n        /* \"#utility.yul\":6692:6704   */\n      revert\n        /* \"#utility.yul\":6656:6706   */\n    tag_430:\n        /* \"#utility.yul\":6725:6774   */\n      tag_423\n        /* \"#utility.yul\":6766:6773   */\n      dup9\n        /* \"#utility.yul\":6757:6763   */\n      dup3\n        /* \"#utility.yul\":6746:6755   */\n      dup10\n        /* \"#utility.yul\":6742:6764   */\n      add\n        /* \"#utility.yul\":6725:6774   */\n      tag_371\n      jump\t// in\n        /* \"#utility.yul\":7386:7513   */\n    tag_372:\n        /* \"#utility.yul\":7447:7457   */\n      0x4e487b71\n        /* \"#utility.yul\":7442:7445   */\n      0xe0\n        /* \"#utility.yul\":7438:7458   */\n      shl\n        /* \"#utility.yul\":7435:7436   */\n      0x00\n        /* \"#utility.yul\":7428:7459   */\n      mstore\n        /* \"#utility.yul\":7478:7482   */\n      0x11\n        /* \"#utility.yul\":7475:7476   */\n      0x04\n        /* \"#utility.yul\":7468:7483   */\n      mstore\n        /* \"#utility.yul\":7502:7506   */\n      0x24\n        /* \"#utility.yul\":7499:7500   */\n      0x00\n        /* \"#utility.yul\":7492:7507   */\n      revert\n        /* \"#utility.yul\":7518:7646   */\n    tag_152:\n        /* \"#utility.yul\":7585:7594   */\n      dup2\n      dup2\n      sub\n        /* \"#utility.yul\":7606:7617   */\n      dup2\n      dup2\n      gt\n        /* \"#utility.yul\":7603:7640   */\n      iszero\n      tag_129\n      jumpi\n        /* \"#utility.yul\":7620:7638   */\n      tag_129\n      tag_372\n      jump\t// in\n        /* \"#utility.yul\":7651:7835   */\n    tag_158:\n        /* \"#utility.yul\":7721:7727   */\n      0x00\n        /* \"#utility.yul\":7774:7776   */\n      0x20\n        /* \"#utility.yul\":7762:7771   */\n      dup3\n        /* \"#utility.yul\":7753:7760   */\n      dup5\n        /* \"#utility.yul\":7749:7772   */\n      sub\n        /* \"#utility.yul\":7745:7777   */\n      slt\n        /* \"#utility.yul\":7742:7794   */\n      iszero\n      tag_439\n      jumpi\n        /* \"#utility.yul\":7790:7791   */\n      0x00\n        /* \"#utility.yul\":7787:7788   */\n      dup1\n        /* \"#utility.yul\":7780:7792   */\n      revert\n        /* \"#utility.yul\":7742:7794   */\n    tag_439:\n      pop\n        /* \"#utility.yul\":7813:7829   */\n      mload\n      swap2\n        /* \"#utility.yul\":7651:7835   */\n      swap1\n      pop\n      jump\t// out\n        /* \"#utility.yul\":8030:8155   */\n    tag_168:\n        /* \"#utility.yul\":8095:8104   */\n      dup1\n      dup3\n      add\n        /* \"#utility.yul\":8116:8126   */\n      dup1\n      dup3\n      gt\n        /* \"#utility.yul\":8113:8149   */\n      iszero\n      tag_129\n      jumpi\n        /* \"#utility.yul\":8129:8147   */\n      tag_129\n      tag_372\n      jump\t// in\n        /* \"#utility.yul\":8862:8989   */\n    tag_192:\n        /* \"#utility.yul\":8923:8933   */\n      0x4e487b71\n        /* \"#utility.yul\":8918:8921   */\n      0xe0\n        /* \"#utility.yul\":8914:8934   */\n      shl\n        /* \"#utility.yul\":8911:8912   */\n      0x00\n        /* \"#utility.yul\":8904:8935   */\n      mstore\n        /* \"#utility.yul\":8954:8958   */\n      0x32\n        /* \"#utility.yul\":8951:8952   */\n      0x04\n        /* \"#utility.yul\":8944:8959   */\n      mstore\n        /* \"#utility.yul\":8978:8982   */\n      0x24\n        /* \"#utility.yul\":8975:8976   */\n      0x00\n        /* \"#utility.yul\":8968:8983   */\n      revert\n        /* \"#utility.yul\":9405:9532   */\n    tag_218:\n        /* \"#utility.yul\":9466:9476   */\n      0x4e487b71\n        /* \"#utility.yul\":9461:9464   */\n      0xe0\n        /* \"#utility.yul\":9457:9477   */\n      shl\n        /* \"#utility.yul\":9454:9455   */\n      0x00\n        /* \"#utility.yul\":9447:9478   */\n      mstore\n        /* \"#utility.yul\":9497:9501   */\n      0x31\n        /* \"#utility.yul\":9494:9495   */\n      0x04\n        /* \"#utility.yul\":9487:9502   */\n      mstore\n        /* \"#utility.yul\":9521:9525   */\n      0x24\n        /* \"#utility.yul\":9518:9519   */\n      0x00\n        /* \"#utility.yul\":9511:9526   */\n      revert\n        /* \"#utility.yul\":10537:10705   */\n    tag_240:\n        /* \"#utility.yul\":10610:10619   */\n      dup1\n      dup3\n      mul\n        /* \"#utility.yul\":10641:10650   */\n      dup2\n      iszero\n        /* \"#utility.yul\":10658:10673   */\n      dup3\n      dup3\n      div\n        /* \"#utility.yul\":10652:10674   */\n      dup5\n      eq\n        /* \"#utility.yul\":10638:10675   */\n      or\n        /* \"#utility.yul\":10628:10699   */\n      tag_129\n      jumpi\n        /* \"#utility.yul\":10679:10697   */\n      tag_129\n      tag_372\n      jump\t// in\n        /* \"#utility.yul\":10710:10927   */\n    tag_242:\n        /* \"#utility.yul\":10750:10751   */\n      0x00\n        /* \"#utility.yul\":10776:10777   */\n      dup3\n        /* \"#utility.yul\":10766:10898   */\n      tag_455\n      jumpi\n        /* \"#utility.yul\":10820:10830   */\n      0x4e487b71\n        /* \"#utility.yul\":10815:10818   */\n      0xe0\n        /* \"#utility.yul\":10811:10831   */\n      shl\n        /* \"#utility.yul\":10808:10809   */\n      0x00\n        /* \"#utility.yul\":10801:10832   */\n      mstore\n        /* \"#utility.yul\":10855:10859   */\n      0x12\n        /* \"#utility.yul\":10852:10853   */\n      0x04\n        /* \"#utility.yul\":10845:10860   */\n      mstore\n        /* \"#utility.yul\":10883:10887   */\n      0x24\n        /* \"#utility.yul\":10880:10881   */\n      0x00\n        /* \"#utility.yul\":10873:10888   */\n      revert\n        /* \"#utility.yul\":10766:10898   */\n    tag_455:\n      pop\n        /* \"#utility.yul\":10912:10921   */\n      div\n      swap1\n        /* \"#utility.yul\":10710:10927   */\n      jump\t// out\n\n    auxdata: 0xa26469706673582212201fb822e417c76b9cb861a5033d7a396d292ecfbe2a2d7dbc82749f409b3b123664736f6c63430008190033\n}\n",
    "bytecode": {
      "linkReferences": {},
      "object": "60c0604052691fc3842bd1f071c0000060035534801561001d575f80fd5b5060015f55338061004757604051631e4fbdf760e01b81525f600482015260240160405180910390fd5b61005081610086565b50732d355478971d42fbddf879377216e18b2ad8755960a05273a051d30e4210782f6ad78be009701b6003adb23e6080526100d7565b600180546001600160a01b038381166001600160a01b0319831681179093556040519116919082907f8be0079c531659141344cd1fd0a4f28419497f9722a3daafe3b4186f6b6457e0905f90a35050565b60805160a0516119196101305f395f81816102a701528181610a9701528181610cb401528181610db101526112d701525f81816103860152818161057d015281816106b501528181610f50015261101c01526119195ff3fe608060405234801561000f575f80fd5b506004361061018f575f3560e01c80637b0472f0116100dd578063e56ce48011610088578063f23a6e6111610063578063f23a6e61146103df578063f2fde38b146103fe578063f854a27f14610411575f80fd5b8063e56ce480146103a8578063ea7cbff1146103c3578063ee172546146103d6575f80fd5b8063921496a9116100b8578063921496a914610336578063bc197c8114610349578063d25570f214610381575f80fd5b80637b0472f0146102c95780638da5cb5b146102dc5780639168ae72146102ed575f80fd5b806362784cd71161013d5780636ad10ef8116101185780636ad10ef814610267578063715018a61461029a57806372f8a256146102a2575f80fd5b806362784cd71461022b57806363c28db11461023457806364ab867514610254575f80fd5b806335fbbe011161016d57806335fbbe01146101fd578063372500ab14610210578063441a3e7014610218575f80fd5b806301ffc9a71461019357806326f7b85a146101bb5780633462e0a8146101e8575b5f80fd5b6101a66101a136600461151c565b610424565b60405190151581526020015b60405180910390f35b6101da6101c936600461154a565b60026020525f908152604090205481565b6040519081526020016101b2565b6101fb6101f6366004611561565b61045a565b005b6101fb61020b36600461154a565b6104b0565b6101fb6104bd565b6101fb610226366004611561565b610766565b6101da60035481565b61024761024236600461159c565b610b41565b6040516101b291906115b5565b6101da61026236600461159c565b610bc9565b61028273a051d30e4210782f6ad78be009701b6003adb23e81565b6040516001600160a01b0390911681526020016101b2565b6101fb610c2f565b6102827f000000000000000000000000000000000000000000000000000000000000000081565b6101fb6102d7366004611561565b610c40565b6001546001600160a01b0316610282565b61031b6102fb36600461159c565b60056020525f908152604090208054600282015460039092015490919083565b604080519384526020840192909252908201526060016101b2565b6101fb61034436600461154a565b610f31565b610368610357366004611731565b63bc197c8160e01b95945050505050565b6040516001600160e01b031990911681526020016101b2565b6102827f000000000000000000000000000000000000000000000000000000000000000081565b610282732d355478971d42fbddf879377216e18b2ad8755981565b6101da6103d136600461159c565b611046565b6101da60045481565b6103686103ed3660046117d4565b63f23a6e6160e01b95945050505050565b6101fb61040c36600461159c565b6110f6565b6101da61041f36600461159c565b611130565b5f6001600160e01b03198216630271189760e51b148061045457506301ffc9a760e01b6001600160e01b03198316145b92915050565b61046261116b565b5f8281526002602090815260409182902083905581518481529081018390527fc390a98ace15a7bb6bab611eedfdbb2685043b241a869420043cdfb23ccfee50910160405180910390a15050565b6104b861116b565b600355565b6104c5611198565b6104ce336111c0565b335f90815260056020526040902060030154806105325760405162461bcd60e51b815260206004820152601360248201527f4e6f207265776172647320746f20636c61696d0000000000000000000000000060448201526064015b60405180910390fd5b5f60045460035411610544575f610554565b6004546003546105549190611848565b90505f81831115610566575090508060015b6040516370a0823160e01b81523060048201525f907f00000000000000000000000000000000000000000000000000000000000000006001600160a01b0316906370a0823190602401602060405180830381865afa1580156105ca573d5f803e3d5ffd5b505050506040513d601f19601f820116820180604052508101906105ee919061185b565b90508084111561060057809350600191505b8315801561060b5750815b1561066957335f8181526005602052604081206003015561062b9061120e565b6040515f815233907fc6de05d0802f64b865bcc39b2ff620df8f504497826dc676d28e26cad141e1db9060200160405180910390a25050505061075b565b335f908152600560205260408120600301805486929061068a908490611848565b925050819055508360045f8282546106a29190611872565b909155506106dc90506001600160a01b037f000000000000000000000000000000000000000000000000000000000000000016338661139e565b60405184815233907ffc30cddea38e2bf4d6ea7d3f9ed3b6ad7f176419f4963bd81318067a4aee73fe9060200160405180910390a28115610756576107203361120e565b60405184815233907fc6de05d0802f64b865bcc39b2ff620df8f504497826dc676d28e26cad141e1db9060200160405180910390a25b505050505b61076460015f55565b565b61076e611198565b5f81116107bd5760405162461bcd60e51b815260206004820152601260248201527f416d6f756e74206d757374206265203e203000000000000000000000000000006044820152606401610529565b335f908152600560205260409020805482111561081c5760405162461bcd60e51b815260206004820152601a60248201527f496e73756666696369656e74207374616b656420616d6f756e740000000000006044820152606401610529565b610825336111c0565b5f805b60018301548110156109fc578483600101828154811061084a5761084a611885565b905f5260205f2090600202015f0154036109f4578383600101828154811061087457610874611885565b905f5260205f2090600202016001015410156108f85760405162461bcd60e51b815260206004820152602a60248201527f496e73756666696369656e74207374616b65642062616c616e636520666f722060448201527f7468697320746f6b656e000000000000000000000000000000000000000000006064820152608401610529565b8383600101828154811061090e5761090e611885565b905f5260205f2090600202016001015f82825461092b9190611848565b90915550506001830180548290811061094657610946611885565b905f5260205f209060020201600101545f036109eb5760018084018054909161096e91611848565b8154811061097e5761097e611885565b905f5260205f20906002020183600101828154811061099f5761099f611885565b5f918252602090912082546002909202019081556001918201549082015583018054806109ce576109ce611899565b5f8281526020812060025f19909301928302018181556001015590555b600191506109fc565b600101610828565b5080610a4a5760405162461bcd60e51b815260206004820152601060248201527f546f6b656e206e6f74207374616b6564000000000000000000000000000000006044820152606401610529565b82825f015f828254610a5c9190611848565b9091555050604051637921219560e11b8152306004820152336024820152604481018590526064810184905260a060848201525f60a48201527f00000000000000000000000000000000000000000000000000000000000000006001600160a01b03169063f242432a9060c4015f604051808303815f87803b158015610ae0575f80fd5b505af1158015610af2573d5f803e3d5ffd5b505060408051878152602081018790523393507f92ccf450a286a957af52509bc1c9939d1a6a481783e142e41e2499f0bb66ebc69250015b60405180910390a25050610b3d60015f55565b5050565b6001600160a01b0381165f908152600560209081526040808320600101805482518185028101850190935280835260609492939192909184015b82821015610bbe578382905f5260205f2090600202016040518060400160405290815f820154815260200160018201548152505081526020019060010190610b7b565b505050509050919050565b6001600160a01b0381165f90815260056020526040812080548203610bf057505f92915050565b5f816002015442610c019190611848565b90505f610c0d85611046565b9050610e10610c1c82846118ad565b610c2691906118c4565b95945050505050565b610c3761116b565b6107645f61140a565b610c48611198565b5f8111610c975760405162461bcd60e51b815260206004820152601260248201527f416d6f756e74206d757374206265203e203000000000000000000000000000006044820152606401610529565b604051627eeac760e11b81523360048201526024810183905281907f00000000000000000000000000000000000000000000000000000000000000006001600160a01b03169062fdd58e90604401602060405180830381865afa158015610d00573d5f803e3d5ffd5b505050506040513d601f19601f82011682018060405250810190610d24919061185b565b1015610d725760405162461bcd60e51b815260206004820152601460248201527f496e73756666696369656e742062616c616e63650000000000000000000000006044820152606401610529565b610d7b336111c0565b604051637921219560e11b8152336004820152306024820152604481018390526064810182905260a060848201525f60a48201527f00000000000000000000000000000000000000000000000000000000000000006001600160a01b03169063f242432a9060c4015f604051808303815f87803b158015610dfa575f80fd5b505af1158015610e0c573d5f803e3d5ffd5b5050335f90815260056020526040812092509050805b6001830154811015610ea25784836001018281548110610e4457610e44611885565b905f5260205f2090600202015f015403610e9a5783836001018281548110610e6e57610e6e611885565b905f5260205f2090600202016001015f828254610e8b9190611872565b9091555060019250610ea29050565b600101610e22565b5080610ee2576040805180820190915284815260208082018581526001808601805480830182555f91825293902093516002909302909301918255519101555b82825f015f828254610ef49190611872565b9091555050604080518581526020810185905233917f1449c6dd7851abc30abf37f57715f492010519147cc2652fbc38202c18a6ee909101610b2a565b610f3961116b565b6040516370a0823160e01b815230600482015281907f00000000000000000000000000000000000000000000000000000000000000006001600160a01b0316906370a0823190602401602060405180830381865afa158015610f9d573d5f803e3d5ffd5b505050506040513d601f19601f82011682018060405250810190610fc1919061185b565b101561100f5760405162461bcd60e51b815260206004820152601460248201527f496e73756666696369656e742062616c616e63650000000000000000000000006044820152606401610529565b6110436001600160a01b037f000000000000000000000000000000000000000000000000000000000000000016338361139e565b50565b6001600160a01b0381165f90815260056020526040812081805b60018301548110156110ee575f83600101828154811061108257611082611885565b905f5260205f2090600202015f015490505f8460010183815481106110a9576110a9611885565b905f5260205f2090600202016001015490508060025f8481526020019081526020015f20546110d891906118ad565b6110e29085611872565b93505050600101611060565b509392505050565b6110fe61116b565b6001600160a01b03811661112757604051631e4fbdf760e01b81525f6004820152602401610529565b6110438161140a565b6001600160a01b0381165f9081526005602052604081208161115184610bc9565b90508082600301546111639190611872565b949350505050565b6001546001600160a01b031633146107645760405163118cdaa760e01b8152336004820152602401610529565b60025f54036111ba57604051633ee5aeb560e01b815260040160405180910390fd5b60025f55565b6001600160a01b0381165f908152600560205260409020805415611204575f6111e883610bc9565b905080826003015f8282546111fd9190611872565b9091555050505b4260029091015550565b6001600160a01b0381165f9081526005602052604081208054909103611232575050565b5f5b600182015481101561137d575f82600101828154811061125657611256611885565b905f5260205f2090600202015f015490505f83600101838154811061127d5761127d611885565b905f5260205f2090600202016001015490505f81111561137357604051637921219560e11b81523060048201526001600160a01b038681166024830152604482018490526064820183905260a060848301525f60a48301527f0000000000000000000000000000000000000000000000000000000000000000169063f242432a9060c4015f604051808303815f87803b158015611318575f80fd5b505af115801561132a573d5f803e3d5ffd5b505060408051858152602081018590526001600160a01b03891693507f92ccf450a286a957af52509bc1c9939d1a6a481783e142e41e2499f0bb66ebc692500160405180910390a25b5050600101611234565b5061138b600182015f6114e5565b5f80825542600283015560039091015550565b604080516001600160a01b038416602482015260448082018490528251808303909101815260649091019091526020810180517bffffffffffffffffffffffffffffffffffffffffffffffffffffffff1663a9059cbb60e01b179052611405908490611473565b505050565b600180546001600160a01b038381167fffffffffffffffffffffffff0000000000000000000000000000000000000000831681179093556040519116919082907f8be0079c531659141344cd1fd0a4f28419497f9722a3daafe3b4186f6b6457e0905f90a35050565b5f8060205f8451602086015f885af180611492576040513d5f823e3d81fd5b50505f513d915081156114a95780600114156114b6565b6001600160a01b0384163b155b156114df57604051635274afe760e01b81526001600160a01b0385166004820152602401610529565b50505050565b5080545f8255600202905f5260205f209081019061104391905b80821115611518575f80825560018201556002016114ff565b5090565b5f6020828403121561152c575f80fd5b81356001600160e01b031981168114611543575f80fd5b9392505050565b5f6020828403121561155a575f80fd5b5035919050565b5f8060408385031215611572575f80fd5b50508035926020909101359150565b80356001600160a01b0381168114611597575f80fd5b919050565b5f602082840312156115ac575f80fd5b61154382611581565b602080825282518282018190525f919060409081850190868401855b828110156115f6578151805185528601518685015292840192908501906001016115d1565b5091979650505050505050565b634e487b7160e01b5f52604160045260245ffd5b604051601f8201601f1916810167ffffffffffffffff8111828210171561164057611640611603565b604052919050565b5f82601f830112611657575f80fd5b8135602067ffffffffffffffff82111561167357611673611603565b8160051b611682828201611617565b928352848101820192828101908785111561169b575f80fd5b83870192505b848310156116ba578235825291830191908301906116a1565b979650505050505050565b5f82601f8301126116d4575f80fd5b813567ffffffffffffffff8111156116ee576116ee611603565b611701601f8201601f1916602001611617565b818152846020838601011115611715575f80fd5b816020850160208301375f918101602001919091529392505050565b5f805f805f60a08688031215611745575f80fd5b61174e86611581565b945061175c60208701611581565b9350604086013567ffffffffffffffff80821115611778575f80fd5b61178489838a01611648565b94506060880135915080821115611799575f80fd5b6117a589838a01611648565b935060808801359150808211156117ba575f80fd5b506117c7888289016116c5565b9150509295509295909350565b5f805f805f60a086880312156117e8575f80fd5b6117f186611581565b94506117ff60208701611581565b93506040860135925060608601359150608086013567ffffffffffffffff811115611828575f80fd5b6117c7888289016116c5565b634e487b7160e01b5f52601160045260245ffd5b8181038181111561045457610454611834565b5f6020828403121561186b575f80fd5b5051919050565b8082018082111561045457610454611834565b634e487b7160e01b5f52603260045260245ffd5b634e487b7160e01b5f52603160045260245ffd5b808202811582820484141761045457610454611834565b5f826118de57634e487b7160e01b5f52601260045260245ffd5b50049056fea26469706673582212201fb822e417c76b9cb861a5033d7a396d292ecfbe2a2d7dbc82749f409b3b123664736f6c63430008190033",
      "opcodes": "PUSH1 0xC0 PUSH1 0x40 MSTORE PUSH10 0x1FC3842BD1F071C00000 PUSH1 0x3 SSTORE CALLVALUE DUP1 ISZERO PUSH2 0x1D JUMPI PUSH0 DUP1 REVERT JUMPDEST POP PUSH1 0x1 PUSH0 SSTORE CALLER DUP1 PUSH2 0x47 JUMPI PUSH1 0x40 MLOAD PUSH4 0x1E4FBDF7 PUSH1 0xE0 SHL DUP2 MSTORE PUSH0 PUSH1 0x4 DUP3 ADD MSTORE PUSH1 0x24 ADD PUSH1 0x40 MLOAD DUP1 SWAP2 SUB SWAP1 REVERT JUMPDEST PUSH2 0x50 DUP2 PUSH2 0x86 JUMP JUMPDEST POP PUSH20 0x2D355478971D42FBDDF879377216E18B2AD87559 PUSH1 0xA0 MSTORE PUSH20 0xA051D30E4210782F6AD78BE009701B6003ADB23E PUSH1 0x80 MSTORE PUSH2 0xD7 JUMP JUMPDEST PUSH1 0x1 DUP1 SLOAD PUSH1 0x1 PUSH1 0x1 PUSH1 0xA0 SHL SUB DUP4 DUP2 AND PUSH1 0x1 PUSH1 0x1 PUSH1 0xA0 SHL SUB NOT DUP4 AND DUP2 OR SWAP1 SWAP4 SSTORE PUSH1 0x40 MLOAD SWAP2 AND SWAP2 SWAP1 DUP3 SWAP1 PUSH32 0x8BE0079C531659141344CD1FD0A4F28419497F9722A3DAAFE3B4186F6B6457E0 SWAP1 PUSH0 SWAP1 LOG3 POP POP JUMP JUMPDEST PUSH1 0x80 MLOAD PUSH1 0xA0 MLOAD PUSH2 0x1919 PUSH2 0x130 PUSH0 CODECOPY PUSH0 DUP2 DUP2 PUSH2 0x2A7 ADD MSTORE DUP2 DUP2 PUSH2 0xA97 ADD MSTORE DUP2 DUP2 PUSH2 0xCB4 ADD MSTORE DUP2 DUP2 PUSH2 0xDB1 ADD MSTORE PUSH2 0x12D7 ADD MSTORE PUSH0 DUP2 DUP2 PUSH2 0x386 ADD MSTORE DUP2 DUP2 PUSH2 0x57D ADD MSTORE DUP2 DUP2 PUSH2 0x6B5 ADD MSTORE DUP2 DUP2 PUSH2 0xF50 ADD MSTORE PUSH2 0x101C ADD MSTORE PUSH2 0x1919 PUSH0 RETURN INVALID PUSH1 0x80 PUSH1 0x40 MSTORE CALLVALUE DUP1 ISZERO PUSH2 0xF JUMPI PUSH0 DUP1 REVERT JUMPDEST POP PUSH1 0x4 CALLDATASIZE LT PUSH2 0x18F JUMPI PUSH0 CALLDATALOAD PUSH1 0xE0 SHR DUP1 PUSH4 0x7B0472F0 GT PUSH2 0xDD JUMPI DUP1 PUSH4 0xE56CE480 GT PUSH2 0x88 JUMPI DUP1 PUSH4 0xF23A6E61 GT PUSH2 0x63 JUMPI DUP1 PUSH4 0xF23A6E61 EQ PUSH2 0x3DF JUMPI DUP1 PUSH4 0xF2FDE38B EQ PUSH2 0x3FE JUMPI DUP1 PUSH4 0xF854A27F EQ PUSH2 0x411 JUMPI PUSH0 DUP1 REVERT JUMPDEST DUP1 PUSH4 0xE56CE480 EQ PUSH2 0x3A8 JUMPI DUP1 PUSH4 0xEA7CBFF1 EQ PUSH2 0x3C3 JUMPI DUP1 PUSH4 0xEE172546 EQ PUSH2 0x3D6 JUMPI PUSH0 DUP1 REVERT JUMPDEST DUP1 PUSH4 0x921496A9 GT PUSH2 0xB8 JUMPI DUP1 PUSH4 0x921496A9 EQ PUSH2 0x336 JUMPI DUP1 PUSH4 0xBC197C81 EQ PUSH2 0x349 JUMPI DUP1 PUSH4 0xD25570F2 EQ PUSH2 0x381 JUMPI PUSH0 DUP1 REVERT JUMPDEST DUP1 PUSH4 0x7B0472F0 EQ PUSH2 0x2C9 JUMPI DUP1 PUSH4 0x8DA5CB5B EQ PUSH2 0x2DC JUMPI DUP1 PUSH4 0x9168AE72 EQ PUSH2 0x2ED JUMPI PUSH0 DUP1 REVERT JUMPDEST DUP1 PUSH4 0x62784CD7 GT PUSH2 0x13D JUMPI DUP1 PUSH4 0x6AD10EF8 GT PUSH2 0x118 JUMPI DUP1 PUSH4 0x6AD10EF8 EQ PUSH2 0x267 JUMPI DUP1 PUSH4 0x715018A6 EQ PUSH2 0x29A JUMPI DUP1 PUSH4 0x72F8A256 EQ PUSH2 0x2A2 JUMPI PUSH0 DUP1 REVERT JUMPDEST DUP1 PUSH4 0x62784CD7 EQ PUSH2 0x22B JUMPI DUP1 PUSH4 0x63C28DB1 EQ PUSH2 0x234 JUMPI DUP1 PUSH4 0x64AB8675 EQ PUSH2 0x254 JUMPI PUSH0 DUP1 REVERT JUMPDEST DUP1 PUSH4 0x35FBBE01 GT PUSH2 0x16D JUMPI DUP1 PUSH4 0x35FBBE01 EQ PUSH2 0x1FD JUMPI DUP1 PUSH4 0x372500AB EQ PUSH2 0x210 JUMPI DUP1 PUSH4 0x441A3E70 EQ PUSH2 0x218 JUMPI PUSH0 DUP1 REVERT JUMPDEST DUP1 PUSH4 0x1FFC9A7 EQ PUSH2 0x193 JUMPI DUP1 PUSH4 0x26F7B85A EQ PUSH2 0x1BB JUMPI DUP1 PUSH4 0x3462E0A8 EQ PUSH2 0x1E8 JUMPI JUMPDEST PUSH0 DUP1 REVERT JUMPDEST PUSH2 0x1A6 PUSH2 0x1A1 CALLDATASIZE PUSH1 0x4 PUSH2 0x151C JUMP JUMPDEST PUSH2 0x424 JUMP JUMPDEST PUSH1 0x40 MLOAD SWAP1 ISZERO ISZERO DUP2 MSTORE PUSH1 0x20 ADD JUMPDEST PUSH1 0x40 MLOAD DUP1 SWAP2 SUB SWAP1 RETURN JUMPDEST PUSH2 0x1DA PUSH2 0x1C9 CALLDATASIZE PUSH1 0x4 PUSH2 0x154A JUMP JUMPDEST PUSH1 0x2 PUSH1 0x20 MSTORE PUSH0 SWAP1 DUP2 MSTORE PUSH1 0x40 SWAP1 KECCAK256 SLOAD DUP2 JUMP JUMPDEST PUSH1 0x40 MLOAD SWAP1 DUP2 MSTORE PUSH1 0x20 ADD PUSH2 0x1B2 JUMP JUMPDEST PUSH2 0x1FB PUSH2 0x1F6 CALLDATASIZE PUSH1 0x4 PUSH2 0x1561 JUMP JUMPDEST PUSH2 0x45A JUMP JUMPDEST STOP JUMPDEST PUSH2 0x1FB PUSH2 0x20B CALLDATASIZE PUSH1 0x4 PUSH2 0x154A JUMP JUMPDEST PUSH2 0x4B0 JUMP JUMPDEST PUSH2 0x1FB PUSH2 0x4BD JUMP JUMPDEST PUSH2 0x1FB PUSH2 0x226 CALLDATASIZE PUSH1 0x4 PUSH2 0x1561 JUMP JUMPDEST PUSH2 0x766 JUMP JUMPDEST PUSH2 0x1DA PUSH1 0x3 SLOAD DUP2 JUMP JUMPDEST PUSH2 0x247 PUSH2 0x242 CALLDATASIZE PUSH1 0x4 PUSH2 0x159C JUMP JUMPDEST PUSH2 0xB41 JUMP JUMPDEST PUSH1 0x40 MLOAD PUSH2 0x1B2 SWAP2 SWAP1 PUSH2 0x15B5 JUMP JUMPDEST PUSH2 0x1DA PUSH2 0x262 CALLDATASIZE PUSH1 0x4 PUSH2 0x159C JUMP JUMPDEST PUSH2 0xBC9 JUMP JUMPDEST PUSH2 0x282 PUSH20 0xA051D30E4210782F6AD78BE009701B6003ADB23E DUP2 JUMP JUMPDEST PUSH1 0x40 MLOAD PUSH1 0x1 PUSH1 0x1 PUSH1 0xA0 SHL SUB SWAP1 SWAP2 AND DUP2 MSTORE PUSH1 0x20 ADD PUSH2 0x1B2 JUMP JUMPDEST PUSH2 0x1FB PUSH2 0xC2F JUMP JUMPDEST PUSH2 0x282 PUSH32 0x0 DUP2 JUMP JUMPDEST PUSH2 0x1FB PUSH2 0x2D7 CALLDATASIZE PUSH1 0x4 PUSH2 0x1561 JUMP JUMPDEST PUSH2 0xC40 JUMP JUMPDEST PUSH1 0x1 SLOAD PUSH1 0x1 PUSH1 0x1 PUSH1 0xA0 SHL SUB AND PUSH2 0x282 JUMP JUMPDEST PUSH2 0x31B PUSH2 0x2FB CALLDATASIZE PUSH1 0x4 PUSH2 0x159C JUMP JUMPDEST PUSH1 0x5 PUSH1 0x20 MSTORE PUSH0 SWAP1 DUP2 MSTORE PUSH1 0x40 SWAP1 KECCAK256 DUP1 SLOAD PUSH1 0x2 DUP3 ADD SLOAD PUSH1 0x3 SWAP1 SWAP3 ADD SLOAD SWAP1 SWAP2 SWAP1 DUP4 JUMP JUMPDEST PUSH1 0x40 DUP1 MLOAD SWAP4 DUP5 MSTORE PUSH1 0x20 DUP5 ADD SWAP3 SWAP1 SWAP3 MSTORE SWAP1 DUP3 ADD MSTORE PUSH1 0x60 ADD PUSH2 0x1B2 JUMP JUMPDEST PUSH2 0x1FB PUSH2 0x344 CALLDATASIZE PUSH1 0x4 PUSH2 0x154A JUMP JUMPDEST PUSH2 0xF31 JUMP JUMPDEST PUSH2 0x368 PUSH2 0x357 CALLDATASIZE PUSH1 0x4 PUSH2 0x1731 JUMP JUMPDEST PUSH4 0xBC197C81 PUSH1 0xE0 SHL SWAP6 SWAP5 POP POP POP POP POP JUMP JUMPDEST PUSH1 0x40 MLOAD PUSH1 0x1 PUSH1 0x1 PUSH1 0xE0 SHL SUB NOT SWAP1 SWAP2 AND DUP2 MSTORE PUSH1 0x20 ADD PUSH2 0x1B2 JUMP JUMPDEST PUSH2 0x282 PUSH32 0x0 DUP2 JUMP JUMPDEST PUSH2 0x282 PUSH20 0x2D355478971D42FBDDF879377216E18B2AD87559 DUP2 JUMP JUMPDEST PUSH2 0x1DA PUSH2 0x3D1 CALLDATASIZE PUSH1 0x4 PUSH2 0x159C JUMP JUMPDEST PUSH2 0x1046 JUMP JUMPDEST PUSH2 0x1DA PUSH1 0x4 SLOAD DUP2 JUMP JUMPDEST PUSH2 0x368 PUSH2 0x3ED CALLDATASIZE PUSH1 0x4 PUSH2 0x17D4 JUMP JUMPDEST PUSH4 0xF23A6E61 PUSH1 0xE0 SHL SWAP6 SWAP5 POP POP POP POP POP JUMP JUMPDEST PUSH2 0x1FB PUSH2 0x40C CALLDATASIZE PUSH1 0x4 PUSH2 0x159C JUMP JUMPDEST PUSH2 0x10F6 JUMP JUMPDEST PUSH2 0x1DA PUSH2 0x41F CALLDATASIZE PUSH1 0x4 PUSH2 0x159C JUMP JUMPDEST PUSH2 0x1130 JUMP JUMPDEST PUSH0 PUSH1 0x1 PUSH1 0x1 PUSH1 0xE0 SHL SUB NOT DUP3 AND PUSH4 0x2711897 PUSH1 0xE5 SHL EQ DUP1 PUSH2 0x454 JUMPI POP PUSH4 0x1FFC9A7 PUSH1 0xE0 SHL PUSH1 0x1 PUSH1 0x1 PUSH1 0xE0 SHL SUB NOT DUP4 AND EQ JUMPDEST SWAP3 SWAP2 POP POP JUMP JUMPDEST PUSH2 0x462 PUSH2 0x116B JUMP JUMPDEST PUSH0 DUP3 DUP2 MSTORE PUSH1 0x2 PUSH1 0x20 SWAP1 DUP2 MSTORE PUSH1 0x40 SWAP2 DUP3 SWAP1 KECCAK256 DUP4 SWAP1 SSTORE DUP2 MLOAD DUP5 DUP2 MSTORE SWAP1 DUP2 ADD DUP4 SWAP1 MSTORE PUSH32 0xC390A98ACE15A7BB6BAB611EEDFDBB2685043B241A869420043CDFB23CCFEE50 SWAP2 ADD PUSH1 0x40 MLOAD DUP1 SWAP2 SUB SWAP1 LOG1 POP POP JUMP JUMPDEST PUSH2 0x4B8 PUSH2 0x116B JUMP JUMPDEST PUSH1 0x3 SSTORE JUMP JUMPDEST PUSH2 0x4C5 PUSH2 0x1198 JUMP JUMPDEST PUSH2 0x4CE CALLER PUSH2 0x11C0 JUMP JUMPDEST CALLER PUSH0 SWAP1 DUP2 MSTORE PUSH1 0x5 PUSH1 0x20 MSTORE PUSH1 0x40 SWAP1 KECCAK256 PUSH1 0x3 ADD SLOAD DUP1 PUSH2 0x532 JUMPI PUSH1 0x40 MLOAD PUSH3 0x461BCD PUSH1 0xE5 SHL DUP2 MSTORE PUSH1 0x20 PUSH1 0x4 DUP3 ADD MSTORE PUSH1 0x13 PUSH1 0x24 DUP3 ADD MSTORE PUSH32 0x4E6F207265776172647320746F20636C61696D00000000000000000000000000 PUSH1 0x44 DUP3 ADD MSTORE PUSH1 0x64 ADD JUMPDEST PUSH1 0x40 MLOAD DUP1 SWAP2 SUB SWAP1 REVERT JUMPDEST PUSH0 PUSH1 0x4 SLOAD PUSH1 0x3 SLOAD GT PUSH2 0x544 JUMPI PUSH0 PUSH2 0x554 JUMP JUMPDEST PUSH1 0x4 SLOAD PUSH1 0x3 SLOAD PUSH2 0x554 SWAP2 SWAP1 PUSH2 0x1848 JUMP JUMPDEST SWAP1 POP PUSH0 DUP2 DUP4 GT ISZERO PUSH2 0x566 JUMPI POP SWAP1 POP DUP1 PUSH1 0x1 JUMPDEST PUSH1 0x40 MLOAD PUSH4 0x70A08231 PUSH1 0xE0 SHL DUP2 MSTORE ADDRESS PUSH1 0x4 DUP3 ADD MSTORE PUSH0 SWAP1 PUSH32 0x0 PUSH1 0x1 PUSH1 0x1 PUSH1 0xA0 SHL SUB AND SWAP1 PUSH4 0x70A08231 SWAP1 PUSH1 0x24 ADD PUSH1 0x20 PUSH1 0x40 MLOAD DUP1 DUP4 SUB DUP2 DUP7 GAS STATICCALL ISZERO DUP1 ISZERO PUSH2 0x5CA JUMPI RETURNDATASIZE PUSH0 DUP1 RETURNDATACOPY RETURNDATASIZE PUSH0 REVERT JUMPDEST POP POP POP POP PUSH1 0x40 MLOAD RETURNDATASIZE PUSH1 0x1F NOT PUSH1 0x1F DUP3 ADD AND DUP3 ADD DUP1 PUSH1 0x40 MSTORE POP DUP2 ADD SWAP1 PUSH2 0x5EE SWAP2 SWAP1 PUSH2 0x185B JUMP JUMPDEST SWAP1 POP DUP1 DUP5 GT ISZERO PUSH2 0x600 JUMPI DUP1 SWAP4 POP PUSH1 0x1 SWAP2 POP JUMPDEST DUP4 ISZERO DUP1 ISZERO PUSH2 0x60B JUMPI POP DUP2 JUMPDEST ISZERO PUSH2 0x669 JUMPI CALLER PUSH0 DUP2 DUP2 MSTORE PUSH1 0x5 PUSH1 0x20 MSTORE PUSH1 0x40 DUP2 KECCAK256 PUSH1 0x3 ADD SSTORE PUSH2 0x62B SWAP1 PUSH2 0x120E JUMP JUMPDEST PUSH1 0x40 MLOAD PUSH0 DUP2 MSTORE CALLER SWAP1 PUSH32 0xC6DE05D0802F64B865BCC39B2FF620DF8F504497826DC676D28E26CAD141E1DB SWAP1 PUSH1 0x20 ADD PUSH1 0x40 MLOAD DUP1 SWAP2 SUB SWAP1 LOG2 POP POP POP POP PUSH2 0x75B JUMP JUMPDEST CALLER PUSH0 SWAP1 DUP2 MSTORE PUSH1 0x5 PUSH1 0x20 MSTORE PUSH1 0x40 DUP2 KECCAK256 PUSH1 0x3 ADD DUP1 SLOAD DUP7 SWAP3 SWAP1 PUSH2 0x68A SWAP1 DUP5 SWAP1 PUSH2 0x1848 JUMP JUMPDEST SWAP3 POP POP DUP2 SWAP1 SSTORE POP DUP4 PUSH1 0x4 PUSH0 DUP3 DUP3 SLOAD PUSH2 0x6A2 SWAP2 SWAP1 PUSH2 0x1872 JUMP JUMPDEST SWAP1 SWAP2 SSTORE POP PUSH2 0x6DC SWAP1 POP PUSH1 0x1 PUSH1 0x1 PUSH1 0xA0 SHL SUB PUSH32 0x0 AND CALLER DUP7 PUSH2 0x139E JUMP JUMPDEST PUSH1 0x40 MLOAD DUP5 DUP2 MSTORE CALLER SWAP1 PUSH32 0xFC30CDDEA38E2BF4D6EA7D3F9ED3B6AD7F176419F4963BD81318067A4AEE73FE SWAP1 PUSH1 0x20 ADD PUSH1 0x40 MLOAD DUP1 SWAP2 SUB SWAP1 LOG2 DUP2 ISZERO PUSH2 0x756 JUMPI PUSH2 0x720 CALLER PUSH2 0x120E JUMP JUMPDEST PUSH1 0x40 MLOAD DUP5 DUP2 MSTORE CALLER SWAP1 PUSH32 0xC6DE05D0802F64B865BCC39B2FF620DF8F504497826DC676D28E26CAD141E1DB SWAP1 PUSH1 0x20 ADD PUSH1 0x40 MLOAD DUP1 SWAP2 SUB SWAP1 LOG2 JUMPDEST POP POP POP POP JUMPDEST PUSH2 0x764 PUSH1 0x1 PUSH0 SSTORE JUMP JUMPDEST JUMP JUMPDEST PUSH2 0x76E PUSH2 0x1198 JUMP JUMPDEST PUSH0 DUP2 GT PUSH2 0x7BD JUMPI PUSH1 0x40 MLOAD PUSH3 0x461BCD PUSH1 0xE5 SHL DUP2 MSTORE PUSH1 0x20 PUSH1 0x4 DUP3 ADD MSTORE PUSH1 0x12 PUSH1 0x24 DUP3 ADD MSTORE PUSH32 0x416D6F756E74206D757374206265203E20300000000000000000000000000000 PUSH1 0x44 DUP3 ADD MSTORE PUSH1 0x64 ADD PUSH2 0x529 JUMP JUMPDEST CALLER PUSH0 SWAP1 DUP2 MSTORE PUSH1 0x5 PUSH1 0x20 MSTORE PUSH1 0x40 SWAP1 KECCAK256 DUP1 SLOAD DUP3 GT ISZERO PUSH2 0x81C JUMPI PUSH1 0x40 MLOAD PUSH3 0x461BCD PUSH1 0xE5 SHL DUP2 MSTORE PUSH1 0x20 PUSH1 0x4 DUP3 ADD MSTORE PUSH1 0x1A PUSH1 0x24 DUP3 ADD MSTORE PUSH32 0x496E73756666696369656E74207374616B656420616D6F756E74000000000000 PUSH1 0x44 DUP3 ADD MSTORE PUSH1 0x64 ADD PUSH2 0x529 JUMP JUMPDEST PUSH2 0x825 CALLER PUSH2 0x11C0 JUMP JUMPDEST PUSH0 DUP1 JUMPDEST PUSH1 0x1 DUP4 ADD SLOAD DUP2 LT ISZERO PUSH2 0x9FC JUMPI DUP5 DUP4 PUSH1 0x1 ADD DUP3 DUP2 SLOAD DUP2 LT PUSH2 0x84A JUMPI PUSH2 0x84A PUSH2 0x1885 JUMP JUMPDEST SWAP1 PUSH0 MSTORE PUSH1 0x20 PUSH0 KECCAK256 SWAP1 PUSH1 0x2 MUL ADD PUSH0 ADD SLOAD SUB PUSH2 0x9F4 JUMPI DUP4 DUP4 PUSH1 0x1 ADD DUP3 DUP2 SLOAD DUP2 LT PUSH2 0x874 JUMPI PUSH2 0x874 PUSH2 0x1885 JUMP JUMPDEST SWAP1 PUSH0 MSTORE PUSH1 0x20 PUSH0 KECCAK256 SWAP1 PUSH1 0x2 MUL ADD PUSH1 0x1 ADD SLOAD LT ISZERO PUSH2 0x8F8 JUMPI PUSH1 0x40 MLOAD PUSH3 0x461BCD PUSH1 0xE5 SHL DUP2 MSTORE PUSH1 0x20 PUSH1 0x4 DUP3 ADD MSTORE PUSH1 0x2A PUSH1 0x24 DUP3 ADD MSTORE PUSH32 0x496E73756666696369656E74207374616B65642062616C616E636520666F7220 PUSH1 0x44 DUP3 ADD MSTORE PUSH32 0x7468697320746F6B656E00000000000000000000000000000000000000000000 PUSH1 0x64 DUP3 ADD MSTORE PUSH1 0x84 ADD PUSH2 0x529 JUMP JUMPDEST DUP4 DUP4 PUSH1 0x1 ADD DUP3 DUP2 SLOAD DUP2 LT PUSH2 0x90E JUMPI PUSH2 0x90E PUSH2 0x1885 JUMP JUMPDEST SWAP1 PUSH0 MSTORE PUSH1 0x20 PUSH0 KECCAK256 SWAP1 PUSH1 0x2 MUL ADD PUSH1 0x1 ADD PUSH0 DUP3 DUP3 SLOAD PUSH2 0x92B SWAP2 SWAP1 PUSH2 0x1848 JUMP JUMPDEST SWAP1 SWAP2 SSTORE POP POP PUSH1 0x1 DUP4 ADD DUP1 SLOAD DUP3 SWAP1 DUP2 LT PUSH2 0x946 JUMPI PUSH2 0x946 PUSH2 0x1885 JUMP JUMPDEST SWAP1 PUSH0 MSTORE PUSH1 0x20 PUSH0 KECCAK256 SWAP1 PUSH1 0x2 MUL ADD PUSH1 0x1 ADD SLOAD PUSH0 SUB PUSH2 0x9EB JUMPI PUSH1 0x1 DUP1 DUP5 ADD DUP1 SLOAD SWAP1 SWAP2 PUSH2 0x96E SWAP2 PUSH2 0x1848 JUMP JUMPDEST DUP2 SLOAD DUP2 LT PUSH2 0x97E JUMPI PUSH2 0x97E PUSH2 0x1885 JUMP JUMPDEST SWAP1 PUSH0 MSTORE PUSH1 0x20 PUSH0 KECCAK256 SWAP1 PUSH1 0x2 MUL ADD DUP4 PUSH1 0x1 ADD DUP3 DUP2 SLOAD DUP2 LT PUSH2 0x99F JUMPI PUSH2 0x99F PUSH2 0x1885 JUMP JUMPDEST PUSH0 SWAP2 DUP3 MSTORE PUSH1 0x20 SWAP1 SWAP2 KECCAK256 DUP3 SLOAD PUSH1 0x2 SWAP1 SWAP3 MUL ADD SWAP1 DUP2 SSTORE PUSH1 0x1 SWAP2 DUP3 ADD SLOAD SWAP1 DUP3 ADD SSTORE DUP4 ADD DUP1 SLOAD DUP1 PUSH2 0x9CE JUMPI PUSH2 0x9CE PUSH2 0x1899 JUMP JUMPDEST PUSH0 DUP3 DUP2 MSTORE PUSH1 0x20 DUP2 KECCAK256 PUSH1 0x2 PUSH0 NOT SWAP1 SWAP4 ADD SWAP3 DUP4 MUL ADD DUP2 DUP2 SSTORE PUSH1 0x1 ADD SSTORE SWAP1 SSTORE JUMPDEST PUSH1 0x1 SWAP2 POP PUSH2 0x9FC JUMP JUMPDEST PUSH1 0x1 ADD PUSH2 0x828 JUMP JUMPDEST POP DUP1 PUSH2 0xA4A JUMPI PUSH1 0x40 MLOAD PUSH3 0x461BCD PUSH1 0xE5 SHL DUP2 MSTORE PUSH1 0x20 PUSH1 0x4 DUP3 ADD MSTORE PUSH1 0x10 PUSH1 0x24 DUP3 ADD MSTORE PUSH32 0x546F6B656E206E6F74207374616B656400000000000000000000000000000000 PUSH1 0x44 DUP3 ADD MSTORE PUSH1 0x64 ADD PUSH2 0x529 JUMP JUMPDEST DUP3 DUP3 PUSH0 ADD PUSH0 DUP3 DUP3 SLOAD PUSH2 0xA5C SWAP2 SWAP1 PUSH2 0x1848 JUMP JUMPDEST SWAP1 SWAP2 SSTORE POP POP PUSH1 0x40 MLOAD PUSH4 0x79212195 PUSH1 0xE1 SHL DUP2 MSTORE ADDRESS PUSH1 0x4 DUP3 ADD MSTORE CALLER PUSH1 0x24 DUP3 ADD MSTORE PUSH1 0x44 DUP2 ADD DUP6 SWAP1 MSTORE PUSH1 0x64 DUP2 ADD DUP5 SWAP1 MSTORE PUSH1 0xA0 PUSH1 0x84 DUP3 ADD MSTORE PUSH0 PUSH1 0xA4 DUP3 ADD MSTORE PUSH32 0x0 PUSH1 0x1 PUSH1 0x1 PUSH1 0xA0 SHL SUB AND SWAP1 PUSH4 0xF242432A SWAP1 PUSH1 0xC4 ADD PUSH0 PUSH1 0x40 MLOAD DUP1 DUP4 SUB DUP2 PUSH0 DUP8 DUP1 EXTCODESIZE ISZERO DUP1 ISZERO PUSH2 0xAE0 JUMPI PUSH0 DUP1 REVERT JUMPDEST POP GAS CALL ISZERO DUP1 ISZERO PUSH2 0xAF2 JUMPI RETURNDATASIZE PUSH0 DUP1 RETURNDATACOPY RETURNDATASIZE PUSH0 REVERT JUMPDEST POP POP PUSH1 0x40 DUP1 MLOAD DUP8 DUP2 MSTORE PUSH1 0x20 DUP2 ADD DUP8 SWAP1 MSTORE CALLER SWAP4 POP PUSH32 0x92CCF450A286A957AF52509BC1C9939D1A6A481783E142E41E2499F0BB66EBC6 SWAP3 POP ADD JUMPDEST PUSH1 0x40 MLOAD DUP1 SWAP2 SUB SWAP1 LOG2 POP POP PUSH2 0xB3D PUSH1 0x1 PUSH0 SSTORE JUMP JUMPDEST POP POP JUMP JUMPDEST PUSH1 0x1 PUSH1 0x1 PUSH1 0xA0 SHL SUB DUP2 AND PUSH0 SWAP1 DUP2 MSTORE PUSH1 0x5 PUSH1 0x20 SWAP1 DUP2 MSTORE PUSH1 0x40 DUP1 DUP4 KECCAK256 PUSH1 0x1 ADD DUP1 SLOAD DUP3 MLOAD DUP2 DUP6 MUL DUP2 ADD DUP6 ADD SWAP1 SWAP4 MSTORE DUP1 DUP4 MSTORE PUSH1 0x60 SWAP5 SWAP3 SWAP4 SWAP2 SWAP3 SWAP1 SWAP2 DUP5 ADD JUMPDEST DUP3 DUP3 LT ISZERO PUSH2 0xBBE JUMPI DUP4 DUP3 SWAP1 PUSH0 MSTORE PUSH1 0x20 PUSH0 KECCAK256 SWAP1 PUSH1 0x2 MUL ADD PUSH1 0x40 MLOAD DUP1 PUSH1 0x40 ADD PUSH1 0x40 MSTORE SWAP1 DUP2 PUSH0 DUP3 ADD SLOAD DUP2 MSTORE PUSH1 0x20 ADD PUSH1 0x1 DUP3 ADD SLOAD DUP2 MSTORE POP POP DUP2 MSTORE PUSH1 0x20 ADD SWAP1 PUSH1 0x1 ADD SWAP1 PUSH2 0xB7B JUMP JUMPDEST POP POP POP POP SWAP1 POP SWAP2 SWAP1 POP JUMP JUMPDEST PUSH1 0x1 PUSH1 0x1 PUSH1 0xA0 SHL SUB DUP2 AND PUSH0 SWAP1 DUP2 MSTORE PUSH1 0x5 PUSH1 0x20 MSTORE PUSH1 0x40 DUP2 KECCAK256 DUP1 SLOAD DUP3 SUB PUSH2 0xBF0 JUMPI POP PUSH0 SWAP3 SWAP2 POP POP JUMP JUMPDEST PUSH0 DUP2 PUSH1 0x2 ADD SLOAD TIMESTAMP PUSH2 0xC01 SWAP2 SWAP1 PUSH2 0x1848 JUMP JUMPDEST SWAP1 POP PUSH0 PUSH2 0xC0D DUP6 PUSH2 0x1046 JUMP JUMPDEST SWAP1 POP PUSH2 0xE10 PUSH2 0xC1C DUP3 DUP5 PUSH2 0x18AD JUMP JUMPDEST PUSH2 0xC26 SWAP2 SWAP1 PUSH2 0x18C4 JUMP JUMPDEST SWAP6 SWAP5 POP POP POP POP POP JUMP JUMPDEST PUSH2 0xC37 PUSH2 0x116B JUMP JUMPDEST PUSH2 0x764 PUSH0 PUSH2 0x140A JUMP JUMPDEST PUSH2 0xC48 PUSH2 0x1198 JUMP JUMPDEST PUSH0 DUP2 GT PUSH2 0xC97 JUMPI PUSH1 0x40 MLOAD PUSH3 0x461BCD PUSH1 0xE5 SHL DUP2 MSTORE PUSH1 0x20 PUSH1 0x4 DUP3 ADD MSTORE PUSH1 0x12 PUSH1 0x24 DUP3 ADD MSTORE PUSH32 0x416D6F756E74206D757374206265203E20300000000000000000000000000000 PUSH1 0x44 DUP3 ADD MSTORE PUSH1 0x64 ADD PUSH2 0x529 JUMP JUMPDEST PUSH1 0x40 MLOAD PUSH3 0x7EEAC7 PUSH1 0xE1 SHL DUP2 MSTORE CALLER PUSH1 0x4 DUP3 ADD MSTORE PUSH1 0x24 DUP2 ADD DUP4 SWAP1 MSTORE DUP2 SWAP1 PUSH32 0x0 PUSH1 0x1 PUSH1 0x1 PUSH1 0xA0 SHL SUB AND SWAP1 PUSH3 0xFDD58E SWAP1 PUSH1 0x44 ADD PUSH1 0x20 PUSH1 0x40 MLOAD DUP1 DUP4 SUB DUP2 DUP7 GAS STATICCALL ISZERO DUP1 ISZERO PUSH2 0xD00 JUMPI RETURNDATASIZE PUSH0 DUP1 RETURNDATACOPY RETURNDATASIZE PUSH0 REVERT JUMPDEST POP POP POP POP PUSH1 0x40 MLOAD RETURNDATASIZE PUSH1 0x1F NOT PUSH1 0x1F DUP3 ADD AND DUP3 ADD DUP1 PUSH1 0x40 MSTORE POP DUP2 ADD SWAP1 PUSH2 0xD24 SWAP2 SWAP1 PUSH2 0x185B JUMP JUMPDEST LT ISZERO PUSH2 0xD72 JUMPI PUSH1 0x40 MLOAD PUSH3 0x461BCD PUSH1 0xE5 SHL DUP2 MSTORE PUSH1 0x20 PUSH1 0x4 DUP3 ADD MSTORE PUSH1 0x14 PUSH1 0x24 DUP3 ADD MSTORE PUSH32 0x496E73756666696369656E742062616C616E6365000000000000000000000000 PUSH1 0x44 DUP3 ADD MSTORE PUSH1 0x64 ADD PUSH2 0x529 JUMP JUMPDEST PUSH2 0xD7B CALLER PUSH2 0x11C0 JUMP JUMPDEST PUSH1 0x40 MLOAD PUSH4 0x79212195 PUSH1 0xE1 SHL DUP2 MSTORE CALLER PUSH1 0x4 DUP3 ADD MSTORE ADDRESS PUSH1 0x24 DUP3 ADD MSTORE PUSH1 0x44 DUP2 ADD DUP4 SWAP1 MSTORE PUSH1 0x64 DUP2 ADD DUP3 SWAP1 MSTORE PUSH1 0xA0 PUSH1 0x84 DUP3 ADD MSTORE PUSH0 PUSH1 0xA4 DUP3 ADD MSTORE PUSH32 0x0 PUSH1 0x1 PUSH1 0x1 PUSH1 0xA0 SHL SUB AND SWAP1 PUSH4 0xF242432A SWAP1 PUSH1 0xC4 ADD PUSH0 PUSH1 0x40 MLOAD DUP1 DUP4 SUB DUP2 PUSH0 DUP8 DUP1 EXTCODESIZE ISZERO DUP1 ISZERO PUSH2 0xDFA JUMPI PUSH0 DUP1 REVERT JUMPDEST POP GAS CALL ISZERO DUP1 ISZERO PUSH2 0xE0C JUMPI RETURNDATASIZE PUSH0 DUP1 RETURNDATACOPY RETURNDATASIZE PUSH0 REVERT JUMPDEST POP POP CALLER PUSH0 SWAP1 DUP2 MSTORE PUSH1 0x5 PUSH1 0x20 MSTORE PUSH1 0x40 DUP2 KECCAK256 SWAP3 POP SWAP1 POP DUP1 JUMPDEST PUSH1 0x1 DUP4 ADD SLOAD DUP2 LT ISZERO PUSH2 0xEA2 JUMPI DUP5 DUP4 PUSH1 0x1 ADD DUP3 DUP2 SLOAD DUP2 LT PUSH2 0xE44 JUMPI PUSH2 0xE44 PUSH2 0x1885 JUMP JUMPDEST SWAP1 PUSH0 MSTORE PUSH1 0x20 PUSH0 KECCAK256 SWAP1 PUSH1 0x2 MUL ADD PUSH0 ADD SLOAD SUB PUSH2 0xE9A JUMPI DUP4 DUP4 PUSH1 0x1 ADD DUP3 DUP2 SLOAD DUP2 LT PUSH2 0xE6E JUMPI PUSH2 0xE6E PUSH2 0x1885 JUMP JUMPDEST SWAP1 PUSH0 MSTORE PUSH1 0x20 PUSH0 KECCAK256 SWAP1 PUSH1 0x2 MUL ADD PUSH1 0x1 ADD PUSH0 DUP3 DUP3 SLOAD PUSH2 0xE8B SWAP2 SWAP1 PUSH2 0x1872 JUMP JUMPDEST SWAP1 SWAP2 SSTORE POP PUSH1 0x1 SWAP3 POP PUSH2 0xEA2 SWAP1 POP JUMP JUMPDEST PUSH1 0x1 ADD PUSH2 0xE22 JUMP JUMPDEST POP DUP1 PUSH2 0xEE2 JUMPI PUSH1 0x40 DUP1 MLOAD DUP1 DUP3 ADD SWAP1 SWAP2 MSTORE DUP5 DUP2 MSTORE PUSH1 0x20 DUP1 DUP3 ADD DUP6 DUP2 MSTORE PUSH1 0x1 DUP1 DUP7 ADD DUP1 SLOAD DUP1 DUP4 ADD DUP3 SSTORE PUSH0 SWAP2 DUP3 MSTORE SWAP4 SWAP1 KECCAK256 SWAP4 MLOAD PUSH1 0x2 SWAP1 SWAP4 MUL SWAP1 SWAP4 ADD SWAP2 DUP3 SSTORE MLOAD SWAP2 ADD SSTORE JUMPDEST DUP3 DUP3 PUSH0 ADD PUSH0 DUP3 DUP3 SLOAD PUSH2 0xEF4 SWAP2 SWAP1 PUSH2 0x1872 JUMP JUMPDEST SWAP1 SWAP2 SSTORE POP POP PUSH1 0x40 DUP1 MLOAD DUP6 DUP2 MSTORE PUSH1 0x20 DUP2 ADD DUP6 SWAP1 MSTORE CALLER SWAP2 PUSH32 0x1449C6DD7851ABC30ABF37F57715F492010519147CC2652FBC38202C18A6EE90 SWAP2 ADD PUSH2 0xB2A JUMP JUMPDEST PUSH2 0xF39 PUSH2 0x116B JUMP JUMPDEST PUSH1 0x40 MLOAD PUSH4 0x70A08231 PUSH1 0xE0 SHL DUP2 MSTORE ADDRESS PUSH1 0x4 DUP3 ADD MSTORE DUP2 SWAP1 PUSH32 0x0 PUSH1 0x1 PUSH1 0x1 PUSH1 0xA0 SHL SUB AND SWAP1 PUSH4 0x70A08231 SWAP1 PUSH1 0x24 ADD PUSH1 0x20 PUSH1 0x40 MLOAD DUP1 DUP4 SUB DUP2 DUP7 GAS STATICCALL ISZERO DUP1 ISZERO PUSH2 0xF9D JUMPI RETURNDATASIZE PUSH0 DUP1 RETURNDATACOPY RETURNDATASIZE PUSH0 REVERT JUMPDEST POP POP POP POP PUSH1 0x40 MLOAD RETURNDATASIZE PUSH1 0x1F NOT PUSH1 0x1F DUP3 ADD AND DUP3 ADD DUP1 PUSH1 0x40 MSTORE POP DUP2 ADD SWAP1 PUSH2 0xFC1 SWAP2 SWAP1 PUSH2 0x185B JUMP JUMPDEST LT ISZERO PUSH2 0x100F JUMPI PUSH1 0x40 MLOAD PUSH3 0x461BCD PUSH1 0xE5 SHL DUP2 MSTORE PUSH1 0x20 PUSH1 0x4 DUP3 ADD MSTORE PUSH1 0x14 PUSH1 0x24 DUP3 ADD MSTORE PUSH32 0x496E73756666696369656E742062616C616E6365000000000000000000000000 PUSH1 0x44 DUP3 ADD MSTORE PUSH1 0x64 ADD PUSH2 0x529 JUMP JUMPDEST PUSH2 0x1043 PUSH1 0x1 PUSH1 0x1 PUSH1 0xA0 SHL SUB PUSH32 0x0 AND CALLER DUP4 PUSH2 0x139E JUMP JUMPDEST POP JUMP JUMPDEST PUSH1 0x1 PUSH1 0x1 PUSH1 0xA0 SHL SUB DUP2 AND PUSH0 SWAP1 DUP2 MSTORE PUSH1 0x5 PUSH1 0x20 MSTORE PUSH1 0x40 DUP2 KECCAK256 DUP2 DUP1 JUMPDEST PUSH1 0x1 DUP4 ADD SLOAD DUP2 LT ISZERO PUSH2 0x10EE JUMPI PUSH0 DUP4 PUSH1 0x1 ADD DUP3 DUP2 SLOAD DUP2 LT PUSH2 0x1082 JUMPI PUSH2 0x1082 PUSH2 0x1885 JUMP JUMPDEST SWAP1 PUSH0 MSTORE PUSH1 0x20 PUSH0 KECCAK256 SWAP1 PUSH1 0x2 MUL ADD PUSH0 ADD SLOAD SWAP1 POP PUSH0 DUP5 PUSH1 0x1 ADD DUP4 DUP2 SLOAD DUP2 LT PUSH2 0x10A9 JUMPI PUSH2 0x10A9 PUSH2 0x1885 JUMP JUMPDEST SWAP1 PUSH0 MSTORE PUSH1 0x20 PUSH0 KECCAK256 SWAP1 PUSH1 0x2 MUL ADD PUSH1 0x1 ADD SLOAD SWAP1 POP DUP1 PUSH1 0x2 PUSH0 DUP5 DUP2 MSTORE PUSH1 0x20 ADD SWAP1 DUP2 MSTORE PUSH1 0x20 ADD PUSH0 KECCAK256 SLOAD PUSH2 0x10D8 SWAP2 SWAP1 PUSH2 0x18AD JUMP JUMPDEST PUSH2 0x10E2 SWAP1 DUP6 PUSH2 0x1872 JUMP JUMPDEST SWAP4 POP POP POP PUSH1 0x1 ADD PUSH2 0x1060 JUMP JUMPDEST POP SWAP4 SWAP3 POP POP POP JUMP JUMPDEST PUSH2 0x10FE PUSH2 0x116B JUMP JUMPDEST PUSH1 0x1 PUSH1 0x1 PUSH1 0xA0 SHL SUB DUP2 AND PUSH2 0x1127 JUMPI PUSH1 0x40 MLOAD PUSH4 0x1E4FBDF7 PUSH1 0xE0 SHL DUP2 MSTORE PUSH0 PUSH1 0x4 DUP3 ADD MSTORE PUSH1 0x24 ADD PUSH2 0x529 JUMP JUMPDEST PUSH2 0x1043 DUP2 PUSH2 0x140A JUMP JUMPDEST PUSH1 0x1 PUSH1 0x1 PUSH1 0xA0 SHL SUB DUP2 AND PUSH0 SWAP1 DUP2 MSTORE PUSH1 0x5 PUSH1 0x20 MSTORE PUSH1 0x40 DUP2 KECCAK256 DUP2 PUSH2 0x1151 DUP5 PUSH2 0xBC9 JUMP JUMPDEST SWAP1 POP DUP1 DUP3 PUSH1 0x3 ADD SLOAD PUSH2 0x1163 SWAP2 SWAP1 PUSH2 0x1872 JUMP JUMPDEST SWAP5 SWAP4 POP POP POP POP JUMP JUMPDEST PUSH1 0x1 SLOAD PUSH1 0x1 PUSH1 0x1 PUSH1 0xA0 SHL SUB AND CALLER EQ PUSH2 0x764 JUMPI PUSH1 0x40 MLOAD PUSH4 0x118CDAA7 PUSH1 0xE0 SHL DUP2 MSTORE CALLER PUSH1 0x4 DUP3 ADD MSTORE PUSH1 0x24 ADD PUSH2 0x529 JUMP JUMPDEST PUSH1 0x2 PUSH0 SLOAD SUB PUSH2 0x11BA JUMPI PUSH1 0x40 MLOAD PUSH4 0x3EE5AEB5 PUSH1 0xE0 SHL DUP2 MSTORE PUSH1 0x4 ADD PUSH1 0x40 MLOAD DUP1 SWAP2 SUB SWAP1 REVERT JUMPDEST PUSH1 0x2 PUSH0 SSTORE JUMP JUMPDEST PUSH1 0x1 PUSH1 0x1 PUSH1 0xA0 SHL SUB DUP2 AND PUSH0 SWAP1 DUP2 MSTORE PUSH1 0x5 PUSH1 0x20 MSTORE PUSH1 0x40 SWAP1 KECCAK256 DUP1 SLOAD ISZERO PUSH2 0x1204 JUMPI PUSH0 PUSH2 0x11E8 DUP4 PUSH2 0xBC9 JUMP JUMPDEST SWAP1 POP DUP1 DUP3 PUSH1 0x3 ADD PUSH0 DUP3 DUP3 SLOAD PUSH2 0x11FD SWAP2 SWAP1 PUSH2 0x1872 JUMP JUMPDEST SWAP1 SWAP2 SSTORE POP POP POP JUMPDEST TIMESTAMP PUSH1 0x2 SWAP1 SWAP2 ADD SSTORE POP JUMP JUMPDEST PUSH1 0x1 PUSH1 0x1 PUSH1 0xA0 SHL SUB DUP2 AND PUSH0 SWAP1 DUP2 MSTORE PUSH1 0x5 PUSH1 0x20 MSTORE PUSH1 0x40 DUP2 KECCAK256 DUP1 SLOAD SWAP1 SWAP2 SUB PUSH2 0x1232 JUMPI POP POP JUMP JUMPDEST PUSH0 JUMPDEST PUSH1 0x1 DUP3 ADD SLOAD DUP2 LT ISZERO PUSH2 0x137D JUMPI PUSH0 DUP3 PUSH1 0x1 ADD DUP3 DUP2 SLOAD DUP2 LT PUSH2 0x1256 JUMPI PUSH2 0x1256 PUSH2 0x1885 JUMP JUMPDEST SWAP1 PUSH0 MSTORE PUSH1 0x20 PUSH0 KECCAK256 SWAP1 PUSH1 0x2 MUL ADD PUSH0 ADD SLOAD SWAP1 POP PUSH0 DUP4 PUSH1 0x1 ADD DUP4 DUP2 SLOAD DUP2 LT PUSH2 0x127D JUMPI PUSH2 0x127D PUSH2 0x1885 JUMP JUMPDEST SWAP1 PUSH0 MSTORE PUSH1 0x20 PUSH0 KECCAK256 SWAP1 PUSH1 0x2 MUL ADD PUSH1 0x1 ADD SLOAD SWAP1 POP PUSH0 DUP2 GT ISZERO PUSH2 0x1373 JUMPI PUSH1 0x40 MLOAD PUSH4 0x79212195 PUSH1 0xE1 SHL DUP2 MSTORE ADDRESS PUSH1 0x4 DUP3 ADD MSTORE PUSH1 0x1 PUSH1 0x1 PUSH1 0xA0 SHL SUB DUP7 DUP2 AND PUSH1 0x24 DUP4 ADD MSTORE PUSH1 0x44 DUP3 ADD DUP5 SWAP1 MSTORE PUSH1 0x64 DUP3 ADD DUP4 SWAP1 MSTORE PUSH1 0xA0 PUSH1 0x84 DUP4 ADD MSTORE PUSH0 PUSH1 0xA4 DUP4 ADD MSTORE PUSH32 0x0 AND SWAP1 PUSH4 0xF242432A SWAP1 PUSH1 0xC4 ADD PUSH0 PUSH1 0x40 MLOAD DUP1 DUP4 SUB DUP2 PUSH0 DUP8 DUP1 EXTCODESIZE ISZERO DUP1 ISZERO PUSH2 0x1318 JUMPI PUSH0 DUP1 REVERT JUMPDEST POP GAS CALL ISZERO DUP1 ISZERO PUSH2 0x132A JUMPI RETURNDATASIZE PUSH0 DUP1 RETURNDATACOPY RETURNDATASIZE PUSH0 REVERT JUMPDEST POP POP PUSH1 0x40 DUP1 MLOAD DUP6 DUP2 MSTORE PUSH1 0x20 DUP2 ADD DUP6 SWAP1 MSTORE PUSH1 0x1 PUSH1 0x1 PUSH1 0xA0 SHL SUB DUP10 AND SWAP4 POP PUSH32 0x92CCF450A286A957AF52509BC1C9939D1A6A481783E142E41E2499F0BB66EBC6 SWAP3 POP ADD PUSH1 0x40 MLOAD DUP1 SWAP2 SUB SWAP1 LOG2 JUMPDEST POP POP PUSH1 0x1 ADD PUSH2 0x1234 JUMP JUMPDEST POP PUSH2 0x138B PUSH1 0x1 DUP3 ADD PUSH0 PUSH2 0x14E5 JUMP JUMPDEST PUSH0 DUP1 DUP3 SSTORE TIMESTAMP PUSH1 0x2 DUP4 ADD SSTORE PUSH1 0x3 SWAP1 SWAP2 ADD SSTORE POP JUMP JUMPDEST PUSH1 0x40 DUP1 MLOAD PUSH1 0x1 PUSH1 0x1 PUSH1 0xA0 SHL SUB DUP5 AND PUSH1 0x24 DUP3 ADD MSTORE PUSH1 0x44 DUP1 DUP3 ADD DUP5 SWAP1 MSTORE DUP3 MLOAD DUP1 DUP4 SUB SWAP1 SWAP2 ADD DUP2 MSTORE PUSH1 0x64 SWAP1 SWAP2 ADD SWAP1 SWAP2 MSTORE PUSH1 0x20 DUP2 ADD DUP1 MLOAD PUSH28 0xFFFFFFFFFFFFFFFFFFFFFFFFFFFFFFFFFFFFFFFFFFFFFFFFFFFFFFFF AND PUSH4 0xA9059CBB PUSH1 0xE0 SHL OR SWAP1 MSTORE PUSH2 0x1405 SWAP1 DUP5 SWAP1 PUSH2 0x1473 JUMP JUMPDEST POP POP POP JUMP JUMPDEST PUSH1 0x1 DUP1 SLOAD PUSH1 0x1 PUSH1 0x1 PUSH1 0xA0 SHL SUB DUP4 DUP2 AND PUSH32 0xFFFFFFFFFFFFFFFFFFFFFFFF0000000000000000000000000000000000000000 DUP4 AND DUP2 OR SWAP1 SWAP4 SSTORE PUSH1 0x40 MLOAD SWAP2 AND SWAP2 SWAP1 DUP3 SWAP1 PUSH32 0x8BE0079C531659141344CD1FD0A4F28419497F9722A3DAAFE3B4186F6B6457E0 SWAP1 PUSH0 SWAP1 LOG3 POP POP JUMP JUMPDEST PUSH0 DUP1 PUSH1 0x20 PUSH0 DUP5 MLOAD PUSH1 0x20 DUP7 ADD PUSH0 DUP9 GAS CALL DUP1 PUSH2 0x1492 JUMPI PUSH1 0x40 MLOAD RETURNDATASIZE PUSH0 DUP3 RETURNDATACOPY RETURNDATASIZE DUP2 REVERT JUMPDEST POP POP PUSH0 MLOAD RETURNDATASIZE SWAP2 POP DUP2 ISZERO PUSH2 0x14A9 JUMPI DUP1 PUSH1 0x1 EQ ISZERO PUSH2 0x14B6 JUMP JUMPDEST PUSH1 0x1 PUSH1 0x1 PUSH1 0xA0 SHL SUB DUP5 AND EXTCODESIZE ISZERO JUMPDEST ISZERO PUSH2 0x14DF JUMPI PUSH1 0x40 MLOAD PUSH4 0x5274AFE7 PUSH1 0xE0 SHL DUP2 MSTORE PUSH1 0x1 PUSH1 0x1 PUSH1 0xA0 SHL SUB DUP6 AND PUSH1 0x4 DUP3 ADD MSTORE PUSH1 0x24 ADD PUSH2 0x529 JUMP JUMPDEST POP POP POP POP JUMP JUMPDEST POP DUP1 SLOAD PUSH0 DUP3 SSTORE PUSH1 0x2 MUL SWAP1 PUSH0 MSTORE PUSH1 0x20 PUSH0 KECCAK256 SWAP1 DUP2 ADD SWAP1 PUSH2 0x1043 SWAP2 SWAP1 JUMPDEST DUP1 DUP3 GT ISZERO PUSH2 0x1518 JUMPI PUSH0 DUP1 DUP3 SSTORE PUSH1 0x1 DUP3 ADD SSTORE PUSH1 0x2 ADD PUSH2 0x14FF JUMP JUMPDEST POP SWAP1 JUMP JUMPDEST PUSH0 PUSH1 0x20 DUP3 DUP5 SUB SLT ISZERO PUSH2 0x152C JUMPI PUSH0 DUP1 REVERT JUMPDEST DUP2 CALLDATALOAD PUSH1 0x1 PUSH1 0x1 PUSH1 0xE0 SHL SUB NOT DUP2 AND DUP2 EQ PUSH2 0x1543 JUMPI PUSH0 DUP1 REVERT JUMPDEST SWAP4 SWAP3 POP POP POP JUMP JUMPDEST PUSH0 PUSH1 0x20 DUP3 DUP5 SUB SLT ISZERO PUSH2 0x155A JUMPI PUSH0 DUP1 REVERT JUMPDEST POP CALLDATALOAD SWAP2 SWAP1 POP JUMP JUMPDEST PUSH0 DUP1 PUSH1 0x40 DUP4 DUP6 SUB SLT ISZERO PUSH2 0x1572 JUMPI PUSH0 DUP1 REVERT JUMPDEST POP POP DUP1 CALLDATALOAD SWAP3 PUSH1 0x20 SWAP1 SWAP2 ADD CALLDATALOAD SWAP2 POP JUMP JUMPDEST DUP1 CALLDATALOAD PUSH1 0x1 PUSH1 0x1 PUSH1 0xA0 SHL SUB DUP2 AND DUP2 EQ PUSH2 0x1597 JUMPI PUSH0 DUP1 REVERT JUMPDEST SWAP2 SWAP1 POP JUMP JUMPDEST PUSH0 PUSH1 0x20 DUP3 DUP5 SUB SLT ISZERO PUSH2 0x15AC JUMPI PUSH0 DUP1 REVERT JUMPDEST PUSH2 0x1543 DUP3 PUSH2 0x1581 JUMP JUMPDEST PUSH1 0x20 DUP1 DUP3 MSTORE DUP3 MLOAD DUP3 DUP3 ADD DUP2 SWAP1 MSTORE PUSH0 SWAP2 SWAP1 PUSH1 0x40 SWAP1 DUP2 DUP6 ADD SWAP1 DUP7 DUP5 ADD DUP6 JUMPDEST DUP3 DUP2 LT ISZERO PUSH2 0x15F6 JUMPI DUP2 MLOAD DUP1 MLOAD DUP6 MSTORE DUP7 ADD MLOAD DUP7 DUP6 ADD MSTORE SWAP3 DUP5 ADD SWAP3 SWAP1 DUP6 ADD SWAP1 PUSH1 0x1 ADD PUSH2 0x15D1 JUMP JUMPDEST POP SWAP2 SWAP8 SWAP7 POP POP POP POP POP POP POP JUMP JUMPDEST PUSH4 0x4E487B71 PUSH1 0xE0 SHL PUSH0 MSTORE PUSH1 0x41 PUSH1 0x4 MSTORE PUSH1 0x24 PUSH0 REVERT JUMPDEST PUSH1 0x40 MLOAD PUSH1 0x1F DUP3 ADD PUSH1 0x1F NOT AND DUP2 ADD PUSH8 0xFFFFFFFFFFFFFFFF DUP2 GT DUP3 DUP3 LT OR ISZERO PUSH2 0x1640 JUMPI PUSH2 0x1640 PUSH2 0x1603 JUMP JUMPDEST PUSH1 0x40 MSTORE SWAP2 SWAP1 POP JUMP JUMPDEST PUSH0 DUP3 PUSH1 0x1F DUP4 ADD SLT PUSH2 0x1657 JUMPI PUSH0 DUP1 REVERT JUMPDEST DUP2 CALLDATALOAD PUSH1 0x20 PUSH8 0xFFFFFFFFFFFFFFFF DUP3 GT ISZERO PUSH2 0x1673 JUMPI PUSH2 0x1673 PUSH2 0x1603 JUMP JUMPDEST DUP2 PUSH1 0x5 SHL PUSH2 0x1682 DUP3 DUP3 ADD PUSH2 0x1617 JUMP JUMPDEST SWAP3 DUP4 MSTORE DUP5 DUP2 ADD DUP3 ADD SWAP3 DUP3 DUP2 ADD SWAP1 DUP8 DUP6 GT ISZERO PUSH2 0x169B JUMPI PUSH0 DUP1 REVERT JUMPDEST DUP4 DUP8 ADD SWAP3 POP JUMPDEST DUP5 DUP4 LT ISZERO PUSH2 0x16BA JUMPI DUP3 CALLDATALOAD DUP3 MSTORE SWAP2 DUP4 ADD SWAP2 SWAP1 DUP4 ADD SWAP1 PUSH2 0x16A1 JUMP JUMPDEST SWAP8 SWAP7 POP POP POP POP POP POP POP JUMP JUMPDEST PUSH0 DUP3 PUSH1 0x1F DUP4 ADD SLT PUSH2 0x16D4 JUMPI PUSH0 DUP1 REVERT JUMPDEST DUP2 CALLDATALOAD PUSH8 0xFFFFFFFFFFFFFFFF DUP2 GT ISZERO PUSH2 0x16EE JUMPI PUSH2 0x16EE PUSH2 0x1603 JUMP JUMPDEST PUSH2 0x1701 PUSH1 0x1F DUP3 ADD PUSH1 0x1F NOT AND PUSH1 0x20 ADD PUSH2 0x1617 JUMP JUMPDEST DUP2 DUP2 MSTORE DUP5 PUSH1 0x20 DUP4 DUP7 ADD ADD GT ISZERO PUSH2 0x1715 JUMPI PUSH0 DUP1 REVERT JUMPDEST DUP2 PUSH1 0x20 DUP6 ADD PUSH1 0x20 DUP4 ADD CALLDATACOPY PUSH0 SWAP2 DUP2 ADD PUSH1 0x20 ADD SWAP2 SWAP1 SWAP2 MSTORE SWAP4 SWAP3 POP POP POP JUMP JUMPDEST PUSH0 DUP1 PUSH0 DUP1 PUSH0 PUSH1 0xA0 DUP7 DUP9 SUB SLT ISZERO PUSH2 0x1745 JUMPI PUSH0 DUP1 REVERT JUMPDEST PUSH2 0x174E DUP7 PUSH2 0x1581 JUMP JUMPDEST SWAP5 POP PUSH2 0x175C PUSH1 0x20 DUP8 ADD PUSH2 0x1581 JUMP JUMPDEST SWAP4 POP PUSH1 0x40 DUP7 ADD CALLDATALOAD PUSH8 0xFFFFFFFFFFFFFFFF DUP1 DUP3 GT ISZERO PUSH2 0x1778 JUMPI PUSH0 DUP1 REVERT JUMPDEST PUSH2 0x1784 DUP10 DUP4 DUP11 ADD PUSH2 0x1648 JUMP JUMPDEST SWAP5 POP PUSH1 0x60 DUP9 ADD CALLDATALOAD SWAP2 POP DUP1 DUP3 GT ISZERO PUSH2 0x1799 JUMPI PUSH0 DUP1 REVERT JUMPDEST PUSH2 0x17A5 DUP10 DUP4 DUP11 ADD PUSH2 0x1648 JUMP JUMPDEST SWAP4 POP PUSH1 0x80 DUP9 ADD CALLDATALOAD SWAP2 POP DUP1 DUP3 GT ISZERO PUSH2 0x17BA JUMPI PUSH0 DUP1 REVERT JUMPDEST POP PUSH2 0x17C7 DUP9 DUP3 DUP10 ADD PUSH2 0x16C5 JUMP JUMPDEST SWAP2 POP POP SWAP3 SWAP6 POP SWAP3 SWAP6 SWAP1 SWAP4 POP JUMP JUMPDEST PUSH0 DUP1 PUSH0 DUP1 PUSH0 PUSH1 0xA0 DUP7 DUP9 SUB SLT ISZERO PUSH2 0x17E8 JUMPI PUSH0 DUP1 REVERT JUMPDEST PUSH2 0x17F1 DUP7 PUSH2 0x1581 JUMP JUMPDEST SWAP5 POP PUSH2 0x17FF PUSH1 0x20 DUP8 ADD PUSH2 0x1581 JUMP JUMPDEST SWAP4 POP PUSH1 0x40 DUP7 ADD CALLDATALOAD SWAP3 POP PUSH1 0x60 DUP7 ADD CALLDATALOAD SWAP2 POP PUSH1 0x80 DUP7 ADD CALLDATALOAD PUSH8 0xFFFFFFFFFFFFFFFF DUP2 GT ISZERO PUSH2 0x1828 JUMPI PUSH0 DUP1 REVERT JUMPDEST PUSH2 0x17C7 DUP9 DUP3 DUP10 ADD PUSH2 0x16C5 JUMP JUMPDEST PUSH4 0x4E487B71 PUSH1 0xE0 SHL PUSH0 MSTORE PUSH1 0x11 PUSH1 0x4 MSTORE PUSH1 0x24 PUSH0 REVERT JUMPDEST DUP2 DUP2 SUB DUP2 DUP2 GT ISZERO PUSH2 0x454 JUMPI PUSH2 0x454 PUSH2 0x1834 JUMP JUMPDEST PUSH0 PUSH1 0x20 DUP3 DUP5 SUB SLT ISZERO PUSH2 0x186B JUMPI PUSH0 DUP1 REVERT JUMPDEST POP MLOAD SWAP2 SWAP1 POP JUMP JUMPDEST DUP1 DUP3 ADD DUP1 DUP3 GT ISZERO PUSH2 0x454 JUMPI PUSH2 0x454 PUSH2 0x1834 JUMP JUMPDEST PUSH4 0x4E487B71 PUSH1 0xE0 SHL PUSH0 MSTORE PUSH1 0x32 PUSH1 0x4 MSTORE PUSH1 0x24 PUSH0 REVERT JUMPDEST PUSH4 0x4E487B71 PUSH1 0xE0 SHL PUSH0 MSTORE PUSH1 0x31 PUSH1 0x4 MSTORE PUSH1 0x24 PUSH0 REVERT JUMPDEST DUP1 DUP3 MUL DUP2 ISZERO DUP3 DUP3 DIV DUP5 EQ OR PUSH2 0x454 JUMPI PUSH2 0x454 PUSH2 0x1834 JUMP JUMPDEST PUSH0 DUP3 PUSH2 0x18DE JUMPI PUSH4 0x4E487B71 PUSH1 0xE0 SHL PUSH0 MSTORE PUSH1 0x12 PUSH1 0x4 MSTORE PUSH1 0x24 PUSH0 REVERT JUMPDEST POP DIV SWAP1 JUMP INVALID LOG2 PUSH5 0x6970667358 0x22 SLT KECCAK256 0x1F 0xB8 0x22 0xE4 OR 0xC7 PUSH12 0x9CB861A5033D7A396D292ECF 0xBE 0x2A 0x2D PUSH30 0xBC82749F409B3B123664736F6C6343000819003300000000000000000000 "
    },
    "gasEstimates": {
      "creation": {
        "codeDepositCost": "1285000",
        "executionCost": "infinite",
        "totalCost": "infinite"
      },
      "external": {
        "BOX_COLLECTION_ADDRESS()": "260",
        "NZNA_TOKEN_ADDRESS()": "260",
        "adminWithdrawTokens(uint256)": "infinite",
        "availableRewards(address)": "4995",
        "boxCollection()": "infinite",
        "calculateRewards(address)": "infinite",
        "claimRewards()": "infinite",
        "getRewardRate(address)": "infinite",
        "getStakedTokens(address)": "infinite",
        "maxRewardSupply()": "2340",
        "nznaToken()": "infinite",
        "onERC1155BatchReceived(address,address,uint256[],uint256[],bytes)": "infinite",
        "onERC1155Received(address,address,uint256,uint256,bytes)": "infinite",
        "owner()": "2398",
        "renounceOwnership()": "infinite",
        "rewardPerHourPerTokenId(uint256)": "2504",
        "setMaxRewardSupply(uint256)": "24532",
        "setRewardRate(uint256,uint256)": "26018",
        "stake(uint256,uint256)": "infinite",
        "stakers(address)": "6881",
        "supportsInterface(bytes4)": "470",
        "totalRewardsDistributed()": "2383",
        "transferOwnership(address)": "28384",
        "withdraw(uint256,uint256)": "infinite"
      },
      "internal": {
        "_emergencyUnstakeAll(address)": "infinite",
        "updateRewards(address)": "50906"
      }
    },
    "methodIdentifiers": {
      "BOX_COLLECTION_ADDRESS()": "e56ce480",
      "NZNA_TOKEN_ADDRESS()": "6ad10ef8",
      "adminWithdrawTokens(uint256)": "921496a9",
      "availableRewards(address)": "f854a27f",
      "boxCollection()": "72f8a256",
      "calculateRewards(address)": "64ab8675",
      "claimRewards()": "372500ab",
      "getRewardRate(address)": "ea7cbff1",
      "getStakedTokens(address)": "63c28db1",
      "maxRewardSupply()": "62784cd7",
      "nznaToken()": "d25570f2",
      "onERC1155BatchReceived(address,address,uint256[],uint256[],bytes)": "bc197c81",
      "onERC1155Received(address,address,uint256,uint256,bytes)": "f23a6e61",
      "owner()": "8da5cb5b",
      "renounceOwnership()": "715018a6",
      "rewardPerHourPerTokenId(uint256)": "26f7b85a",
      "setMaxRewardSupply(uint256)": "35fbbe01",
      "setRewardRate(uint256,uint256)": "3462e0a8",
      "stake(uint256,uint256)": "7b0472f0",
      "stakers(address)": "9168ae72",
      "supportsInterface(bytes4)": "01ffc9a7",
      "totalRewardsDistributed()": "ee172546",
      "transferOwnership(address)": "f2fde38b",
      "withdraw(uint256,uint256)": "441a3e70"
    }
  },
  "storageLayout": {
    "storage": [
      {
        "astId": 1782,
        "contract": "StakingBoxes.sol:StakingBoxes",
        "label": "_status",
        "offset": 0,
        "slot": "0",
        "type": "t_uint256"
      },
      {
        "astId": 886,
        "contract": "StakingBoxes.sol:StakingBoxes",
        "label": "_owner",
        "offset": 0,
        "slot": "1",
        "type": "t_address"
      },
      {
        "astId": 43,
        "contract": "StakingBoxes.sol:StakingBoxes",
        "label": "rewardPerHourPerTokenId",
        "offset": 0,
        "slot": "2",
        "type": "t_mapping(t_uint256,t_uint256)"
      },
      {
        "astId": 48,
        "contract": "StakingBoxes.sol:StakingBoxes",
        "label": "maxRewardSupply",
        "offset": 0,
        "slot": "3",
        "type": "t_uint256"
      },
      {
        "astId": 50,
        "contract": "StakingBoxes.sol:StakingBoxes",
        "label": "totalRewardsDistributed",
        "offset": 0,
        "slot": "4",
        "type": "t_uint256"
      },
      {
        "astId": 55,
        "contract": "StakingBoxes.sol:StakingBoxes",
        "label": "stakers",
        "offset": 0,
        "slot": "5",
        "type": "t_mapping(t_address,t_struct(Staker)39_storage)"
      }
    ],
    "types": {
      "t_address": {
        "encoding": "inplace",
        "label": "address",
        "numberOfBytes": "20"
      },
      "t_array(t_struct(StakedToken)28_storage)dyn_storage": {
        "base": "t_struct(StakedToken)28_storage",
        "encoding": "dynamic_array",
        "label": "struct StakingBoxes.StakedToken[]",
        "numberOfBytes": "32"
      },
      "t_mapping(t_address,t_struct(Staker)39_storage)": {
        "encoding": "mapping",
        "key": "t_address",
        "label": "mapping(address => struct StakingBoxes.Staker)",
        "numberOfBytes": "32",
        "value": "t_struct(Staker)39_storage"
      },
      "t_mapping(t_uint256,t_uint256)": {
        "encoding": "mapping",
        "key": "t_uint256",
        "label": "mapping(uint256 => uint256)",
        "numberOfBytes": "32",
        "value": "t_uint256"
      },
      "t_struct(StakedToken)28_storage": {
        "encoding": "inplace",
        "label": "struct StakingBoxes.StakedToken",
        "members": [
          {
            "astId": 25,
            "contract": "StakingBoxes.sol:StakingBoxes",
            "label": "tokenId",
            "offset": 0,
            "slot": "0",
            "type": "t_uint256"
          },
          {
            "astId": 27,
            "contract": "StakingBoxes.sol:StakingBoxes",
            "label": "amount",
            "offset": 0,
            "slot": "1",
            "type": "t_uint256"
          }
        ],
        "numberOfBytes": "64"
      },
      "t_struct(Staker)39_storage": {
        "encoding": "inplace",
        "label": "struct StakingBoxes.Staker",
        "members": [
          {
            "astId": 30,
            "contract": "StakingBoxes.sol:StakingBoxes",
            "label": "amountStaked",
            "offset": 0,
            "slot": "0",
            "type": "t_uint256"
          },
          {
            "astId": 34,
            "contract": "StakingBoxes.sol:StakingBoxes",
            "label": "stakedTokens",
            "offset": 0,
            "slot": "1",
            "type": "t_array(t_struct(StakedToken)28_storage)dyn_storage"
          },
          {
            "astId": 36,
            "contract": "StakingBoxes.sol:StakingBoxes",
            "label": "timeOfLastUpdate",
            "offset": 0,
            "slot": "2",
            "type": "t_uint256"
          },
          {
            "astId": 38,
            "contract": "StakingBoxes.sol:StakingBoxes",
            "label": "unclaimedRewards",
            "offset": 0,
            "slot": "3",
            "type": "t_uint256"
          }
        ],
        "numberOfBytes": "128"
      },
      "t_uint256": {
        "encoding": "inplace",
        "label": "uint256",
        "numberOfBytes": "32"
      }
    }
  },
  "userdoc": {
    "kind": "user",
    "methods": {},
    "version": 1
  }
}